:020000040800F2
:1000000018160020C9010008D1010008D30100081A
:10001000D5010008D7010008D90100080000000040
:10002000000000000000000000000000DB010008EC
:10003000DD01000800000000DF0100084D08000895
:10004000E3010008E3010008E3010008E301000800
:10005000E3010008E3010008E3010008E3010008F0
:10006000E3010008E3010008E3010008FD020008C5
:10007000E3010008E3010008E3010008E3010008D0
:10008000E3010008E301000885020008E30100081D
:10009000E3010008E3010008E3010008E3010008B0
:1000A000E3010008E3010008E3010008E3010008A0
:1000B000E3010008E3010008E3010008E301000890
:1000C000E3010008E3010008E3010008E301000880
:1000D0006D060008D5080008E3010008E5080008DF
:1000E00065030008E3010008E301000800F002F8DE
:1000F00000F05AF80AA090E8000C82448344AAF168
:100100000107DA4501D100F04FF8AFF2090EBAE865
:100110000F0013F0010F18BFFB1A43F0010318473B
:10012000A8160000C81600000A444FF0000C10F892
:10013000013B13F0070408BF10F8014B1D1108BF65
:1001400010F8015B641E05D010F8016B641E01F805
:10015000016BF9D113F0080F1EBF10F8014BAD1C55
:100160000C1B09D16D1E58BF01F801CBFAD505E073
:1001700014F8016B01F8016B6D1EF9D59142D6D3CD
:10018000704700000023002400250026103A28BFF5
:1001900078C1FBD8520728BF30C148BF0B607047F9
:1001A0001FB51FBD10B510BD00F031F81146FFF7A7
:1001B000F7FF00F039FC00F04FF803B4FFF7F2FF4F
:1001C00003BC00F057F80000094880470948004781
:1001D000FEE7FEE7FEE7FEE7FEE7FEE7FEE7FEE7F7
:1001E000FEE7FEE704480549054A064B7047000054
:1001F00075080008ED0000081810002018160020EF
:10020000181200201812002070477047704775467A
:1002100000F02CF8AE4605006946534620F0070072
:10022000854618B020B5FFF7DDFFBDE820404FF050
:1002300000064FF000074FF000084FF0000B21F0D0
:100240000701AC46ACE8C009ACE8C009ACE8C0099D
:10025000ACE8C0098D46704710B50446AFF3008086
:100260002046BDE81040FFF7A8BF000000487047D7
:10027000B40F002001491820ABBEFEE726000200A3
:100280007047000010B54FF408710B4800F023F8D8
:1002900088B1094800F01BF80849094A127821F88A
:1002A000120007480078401C054908704FF4087197
:1002B000014800F007F810BD00240140540F002051
:1002C0007407002000220A12D343036070470146DE
:1002D000C86C80B2704770B502460020002300242D
:1002E0000B125568CEB205EA060415681D4015B11B
:1002F0000CB1012000E0002070BD000010B502200C
:1003000000F01AF838B104480078401C024908701F
:10031000022000F003F810BD7407002000F08051A7
:1003200011B10349086001E00249486070470000CC
:10033000040402400000024001460020002201F0B7
:10034000805313B1054B1A6801E0054B1A6802EAA5
:1003500001030BB1012000E00020704700040240BF
:100360000000024010B54FF4805000F031F810B397
:100370001148007888B904201049086080021049AB
:10038000086001200C49087000030D49091F08602E
:1003900004200A49091F086009E00748007801287D
:1003A00005D10003064908600220034908704FF494
:1003B000805000F007F810BD1D0700201414014004
:1003C000140801400149086070470000140401400E
:1003D000014600200022074B1B6803EA0102054B7F
:1003E00014331B680B4013B10AB1012000E0002058
:1003F00070470000000401402DE9F041024600254D
:100400000026002000230024002791F803C00CF0F0
:100410000F0591F803C00CF0100CBCF1000F03D0D5
:1004200091F802C04CEA050591F800C0BCF1000F3C
:1004300031D0146800202BE04FF0010C0CFA00F3CF
:10044000B1F800C00CEA03069E4220D183004FF0B1
:100450000F0C0CFA03F7BC4305FA03FC4CEA040446
:1004600091F803C0BCF1280F06D14FF0010C0CFA33
:1004700000FCC2F814C00AE091F803C0BCF1480FB8
:1004800005D14FF0010C0CFA00FCC2F810C0401C62
:100490000828D1D31460B1F800C0BCF1FF0F34DDDF
:1004A000546800202EE000F1080C4FF0010808FA13
:1004B0000CF3B1F800C00CEA03069E4221D1830080
:1004C0004FF00F0C0CFA03F7BC4305FA03FC4CEA9F
:1004D000040491F803C0BCF1280F05D100F1080C09
:1004E00008FA0CF8C2F8148091F803C0BCF1480F68
:1004F00007D100F1080C4FF0010808FA0CF8C2F817
:100500001080401C0828CED35460BDE8F081000064
:10051000F0B50A46002300240021002500F0004623
:10052000B6F1004F02D11D4EF16901E01B4E71681A
:10053000C0F3034583B200F44016B6F5401F08D15E
:1005400021F07061154E766826F07066134F7E605C
:1005500012E000F48016B6F5801F06D1032606FAD5
:1005600005F4A14341F0706106E0460D360103FA3F
:1005700006F6B14341F0706122B1460D360103FA2F
:1005800006F6314300F00046B6F1004F02D1034EAB
:10059000F16101E0014E7160F0BD0000000001401A
:1005A0000246002093680B400BB1012000E00020C0
:1005B00070474161704701617047000070B50021CC
:1005C00000230F22C47804B3154C246804F4E064BB
:1005D000C4F5E064210AC1F10403CA40447804FA76
:1005E00003F184781440214309010E4C0678A1558B
:1005F000047804F01F050124AC4005786D11AD00AE
:1006000005F1E025C5F8004109E0047804F01F0574
:100610000124AC40044D0678761145F8264070BDA3
:100620000CED00E000E400E080E100E029B1064AC2
:10063000D2690243044BDA6104E0034AD26982437F
:10064000014BDA61704700000010024029B1064AF0
:1006500092690243044B9A6104E0034A926982431F
:10066000014B9A61704700000010024010B502482B
:1006700000F034FC10BD00005000002021B10288C1
:1006800042F40052028004E002884DF6FF731A40E3
:100690000280704721B1028842F04002028004E0EB
:1006A00002884FF6BF731A400280704710B50022CF
:1006B00001F00F040123A3409AB2D343038110BD7C
:1006C0000246002013890B400BB1012000E00020FE
:1006D0007047F0B50246002000240023002501F0F9
:1006E0000F070126BE40B4B20B1101269E40B3B2E3
:1006F000968806EA03051689264016B10DB1012039
:1007000000E00020F0BD0146888970478181704774
:1007100010B50022028802F441520B884C88234312
:100720008C882343CC8823430C8923434C8923435F
:100730008C892343CC8923431A430280838B4FF255
:10074000FF74234083830B8A038210BD21B182880A
:1007500042F00402828004E082884FF6FB731A4064
:100760008280704710B500F001F810BD0CB5002074
:10077000019000903348006840F4803031490860AF
:1007800000BF3048006800F4003000900198401C21
:100790000190009818B90198B0F5A06FF1D12948DF
:1007A000006800F4003010B10120009001E000204A
:1007B00000900098012843D12348006840F01000C1
:1007C000214908600846006820F0030008600846D8
:1007D000006840F0020008601A4840681949486003
:1007E0000846406848600846406840F480604860B9
:1007F0000846406820F47C1048600846406840F491
:10080000E81048600846006840F08070086000BF4B
:100810000C48006800F000700028F9D009484068D2
:1008200020F00300074948600846406840F0020095
:10083000486000BF0348406800F00C000828F9D168
:100840000CBD000000100240002002400648006875
:10085000401C0549086005480068401E03490860BF
:100860000020034908707047140000201800002081
:100870001C00002010B51348006840F00100114929
:10088000086008464068104908400E49486008461C
:1008900000680E4908400B4908600846006820F4CB
:1008A000802008600846406820F4FE0048604FF44D
:1008B0001F008860FFF756FF4FF000600449086092
:1008C00010BD0000001002400000FFF8FFFFF6FE20
:1008D00008ED00E010B5024800F0B6FE10BD0000C3
:1008E0002000002010B5024800F0AEFE10BD000050
:1008F0003800002010B50022002340F66A14A142FF
:1009000000D100BF0A1201249440A3B2DC4304804A
:1009100010BD70B50246002400230025002040F6DB
:100920006A16B14200D100BFC1F3421501F01F03A6
:10093000012606FA03F3012D02D19689334006E021
:10094000022D02D1168A334001E0968A33400C1200
:10095000012606FA04F41688344013B10CB10120C4
:1009600000E0002070BD01468888C0F30800704791
:1009700010B501210846FFF769FE10BD0349086064
:1009800000BF024909680029FBD170471800002008
:1009900001480068704700001400002038B5044684
:1009A0000D4603208DF802008DF80350A088ADF8A5
:1009B000000069462068FFF71FFD38BD38B50446C2
:1009C0000D4603208DF802008DF80350A088ADF885
:1009D000000069462068FFF70FFD38BD38B50446B2
:1009E0000D4603208DF802008DF80350A088ADF865
:1009F000000069462068FFF7FFFC38BD10B50446CB
:100A0000A1882068FFF7CCFD10BD10B50446A18871
:100A10002068FFF7CEFD10BD10B50446A188206800
:100A2000FFF7C9FD10BD00001FB500F00DF900F083
:100A3000C9FD48217748FFF7D1FF48217648FFF7E5
:100A4000CDFF28217548FFF7C9FF28217448FFF71B
:100A5000C5FF48217348FFF7C1FF48217248FFF7DF
:100A6000BDFF28216B48FFF7B9FF28216A48FFF72F
:100A7000B5FF4FF478401F2300224FF6FF7100901E
:100A8000104600F0A9FB00F0EBFA00BF0020039035
:100A900000BF00BF65A000680290B9E000BFFFF78B
:100AA00077FF634909688842F9D0FFF771FF604911
:100AB0000860084600685F490968401A3228ECD38C
:100AC0005B4800685B4908605248FFF797FF5A4946
:100AD00008705148FFF792FF584908704F48FFF7D8
:100AE0008DFF574908704E48FFF788FF5549087039
:100AF00000F0B6FA202001901CE00020009012E0E7
:100B00004D48007828B10022DDE9001000F0D6FB46
:100B100005E04FF6FF72DDE9001000F0CFFB009812
:100B2000401CC0B2009000982028E9DB0198401CCE
:100B3000C0B2019001984028DFDB002001901CE04A
:100B40002020009012E03D48007828B10022DDE925
:100B5000001000F0B3FB05E04FF6FF72DDE9001076
:100B600000F0ACFB0098401CC0B2009000984028F8
:100B7000E9DB0198401CC0B2019001982028DFDB1E
:100B8000402001901CE02020009012E02C480078CA
:100B900028B10022DDE9001000F090FB05E04FF6DF
:100BA000FF72DDE9001000F089FB0098401CC0B224
:100BB000009000984028E9DB0198401CC0B20190E9
:100BC00001986028DFDB202001901CE0402000908D
:100BD00012E01C48007828B10022DDE9001000F086
:100BE0006DFB05E04FF6FF72DDE9001000F066FBDB
:100BF0000098401CC0B2009000986028E9DB019882
:100C0000401CC0B2019001984028DFDB00F0F8FBE7
:100C100044E7000098170008A0170008A81700086C
:100C2000B0170008C0170008B8170008464C524219
:100C3000780700207C070020800700208107002023
:100C4000820700208307002010B5FFF791FE0121E5
:100C50000420FFF7FBFC01210820FFF7F7FC01212E
:100C60001020FFF7F3FC01212020FFF7EFFC01210A
:100C70004020FFF7EBFC10BD2DE9F04186B00446A3
:100C80000F4615461E46DDF83080206800F04AF910
:100C900018216068FFF782FE05F4004048B1B6F500
:100CA000827F01D1A16800E0E16808461821FFF7C2
:100CB00075FE05F4404048B1B6F5827F01D1E16888
:100CC00000E0A16808461821FFF768FE20690128A6
:100CD0007ED020690228FBD020690428F8D0206942
:100CE0000828F5D06A4920698842F1D06849203146
:100CF00020698842ECD0674920698842E8D065497C
:100D000080312069884263D06349206988425FD07E
:100D10006249206988425BD061492069884257D086
:100D200060492069884253D05F49206988424FD08A
:100D30002069B0F5805F4BD02069B0F5EA1F7CD008
:100D40002069B0F5EB1F78D02069B0F5004F74D062
:100D500056492069884270D0491C206988426CD06D
:100D6000891C2069884268D0091D2069884264D0A6
:100D70004E490F31206988425FD02069B0F1201FB1
:100D80005BD04FEAF1312069884256D0484920694A
:100D9000884252D04749206988424ED0464920694E
:100DA00088424AD045492069884246D04449206952
:100DB000884242D02069B0F5011F3ED041492069E8
:100DC00088423AD0491C2069884236D0891C00E00C
:100DD00033E02069884230D0091D206988422CD038
:100DE00038490F312069884227D036491F312069A0
:100DF000884222D033493F31206988421DD0314991
:100E00007F312069884218D02E49FF3120698842FD
:100E100013D02D49206988420FD02C49206988427F
:100E20000BD02B492069884207D02A492069884283
:100E300003D029492069884203D101212069FFF7A5
:100E400067FBADF80450ADF80660ADF808800220ED
:100E5000ADF80A000120ADF80C004002ADF80E001C
:100E6000ADF810700020ADF8120001A92068FFF75E
:100E70004FFC01212068FFF70DFC00212068FFF7DF
:100E8000FDFB00212068FFF761FC06B0BDE8F081A2
:100E900010001400400016000001180000021800A5
:100EA0000003180000081A00000C1A0001002000BE
:100EB000000130000002300000043000001120006A
:100EC000002020000100008000020080000400805B
:100ED00000080080001000800020008070B50446EB
:100EE00060212068FFF7F5FB68B12068FFF70BFC75
:100EF0000546606910B1E8B26169884760212068E1
:100F0000FFF7D4FB0DE071212068FFF7E2FB40B151
:100F1000A06910B1A1692068884771212068FFF796
:100F2000C5FB70BD10B504460B48844204D10121B5
:100F30008014FFF78BFB0EE00848844204D10121A6
:100F40000014FFF773FB06E00548844203D101213A
:100F5000C013FFF76BFB10BD0030014000380040AC
:100F6000003C004070B504460D4600BF02212068D9
:100F7000FFF7A6FB0028F9D029462068FFF7C6FB3B
:100F800070BD000010B502463048007800EBC00389
:100F900003EB00102E4B03EBC00002EB820300EBCF
:100FA0004300405C2B4B1B7803EBC30404EB03139F
:100FB000274C04EBC30302EB820403EB44035B5CAA
:100FC00098423FD12148007800EBC00303EB0010AA
:100FD000214B03EB001002EB820300EB830030F89F
:100FE00011001C4B1B7803EBC30404EB03131A4CD6
:100FF00004EB031302EB820403EB840333F8113098
:1010000098421FD11148007800EBC00303EB001099
:10101000124B03EB001002EB820300EB830030F86D
:1010200011000C4B1B7803EBC30404EB03130B4CB4
:1010300004EB031302EB820403EB840333F8113057
:10104000984201D0012010BD0020FCE77E06002060
:10105000840700207F06002014090020340C0020A3
:1010600010B5002006490880002404E0204600F066
:101070000BF8601CC4B2034800788442F6DB10BD54
:10108000780600207D06002010B50146002032E0E1
:1010900020221B4B1B7803EBC30404EB0313194CF6
:1010A00004EBC30300EB800403EB44035A54164AD9
:1010B0001288134B1B7803EBC30404EB0313134C8C
:1010C00004EB031300EB800403EB840323F81120EB
:1010D0000F4A12880A4B1B7803EBC30404EB03137B
:1010E0000C4C04EB031300EB800403EB840323F8A4
:1010F0001120421CD0B2084A12789042C8DB10BDC1
:101100007E060020840700207006002014090020BD
:101110006C060020340C00207C06002010B5002452
:1011200023E01549085D00F031FA1348005D3628C8
:1011300005D11249124A1278885C00F035FA0EE0A7
:101140000D48005DFF2806D1611C0C460A4A505C20
:10115000FFF714FC03E00849085D00F025FA601C65
:1011600004460549085C4328EAD1601C044602494C
:10117000085C4228D5D110BDE016000851170008C0
:10118000760600200120014908707047770600208C
:1011900070B505460F49087800EBD0714910A0EBF7
:1011A000410131B18023A0220021084600F0B0F8AF
:1011B00005E0A02380220021084600F0A9F80024C1
:1011C00003E0284600F0D8F9641CB4F5A04FF8D32A
:1011D00070BD0000760600202DE9F04104460D4662
:1011E00016461F46DDF8188000202C4908802C493F
:1011F000087001202B4908702B48047001460878BC
:1012000000EBD0714910A0EB410109B1012100E0D0
:101210000221264A11702449087800EBD071491048
:10122000A0EB410109B1022100E00121204A117027
:1012300000F0CCF800F050F8FFF770FF284600F0FF
:101240005BF8304600F0BCF8384600F0B3F8404692
:1012500000F058F82846FFF79BFF204604EBD071BA
:101260004910A4EB410109B1142100E01021114AF9
:101270001170204604EBD0714910A4EB410109B173
:10128000082100E00A210C4A1170FFF77BFFFFF7ED
:10129000E7FE00F0B5F8BDE8F08100007806002018
:1012A0007E0600207F0600207606002074060020BF
:1012B000750600207C0600207D06002070B50546DE
:1012C0000E46144601231A463146284600F020F8FF
:1012D000204600F051F970BD10B50648FFF795FBA8
:1012E0006420FFF74BFB0348FFF796FB6420FFF7F2
:1012F00045FB10BDD016000801490880704700006A
:101300006C06002001490880704700006E0600202E
:101310002DE9F05F04460D4692469B4626462F4631
:1013200004EB0A001FFA80F805EB0B001FFA80F9A6
:101330001D480078304486B21C480078384487B293
:101340001948007840441FFA80F81848007848444B
:101350001FFA80F92A2000F019F9300A00F024F968
:10136000F0B200F021F94FEA182000F01DF908F062
:10137000FF0000F019F92B2000F008F9380A00F0FE
:1013800013F9F8B200F010F94FEA192000F00CF947
:1013900009F0FF0000F008F92C2000F0F7F80448ED
:1013A000FFF73AFBBDE8F09F7406002075060020A9
:1013B000D816000801490880704700007206002016
:1013C00001490880704700007006002008B5002021
:1013D0004FF482734FF44042014600900548FFF7F6
:1013E0004BFC10210448FFF7E9FA10210348FFF7EE
:1013F000E5FA08BD50000020D0160008D8160008F5
:101400002DE9F05F00250027A8465248007808B96A
:10141000BDE8F09F002686E000247DE031462046AE
:10142000FFF7B0FD002875D0012501E0681C05B26A
:10143000601949490978884206DA6119C8B231460B
:10144000FFF7A0FD0028F1D10123C3EBC5039AB239
:101450003101E0000F23FFF75BFF4FF0000853E07E
:101460003E48007800EBC00101EB00103C4901EB65
:10147000C000E11901EB810100EB4100805D2038E3
:10148000384901EB001A4FF0080930E01AF808005B
:10149000A9F10101084100F0010080B12F48007856
:1014A00000EBC00101EB00102F4901EB0010E11926
:1014B00001EB810100EB810030F816000FE02748B6
:1014C000007800EBC00101EB0010284901EB00108F
:1014D000E11901EB810100EB810030F81600834631
:1014E000584600F049F8A9F1010000F0FF09B9F1F0
:1014F000000FCBDC781CC0B20746A84204D10027FD
:1015000008F1010000F0FF08B8F1100FA8DB681E19
:101510002044C4B2601CC4B20F4800788442FFF675
:101520007DAF701CC6B2124800788642FFF674AFD9
:101530000A48007808B9012000E000200749087037
:101540000C48007808B9012000E000200949087023
:1015500000BF5DE7770600207C0600207E060020A5
:10156000840700206C00002014090020340C0020A7
:101570007D0600207F06002010B50446201200F0F2
:1015800013F8E0B200F010F810BD000010B50446EA
:101590000348FFF73AFA21460248FFF7E3FC10BD83
:1015A000D81600085000002010B504460348FFF785
:1015B00033FA21460248FFF7D5FC10BDD8160008C3
:1015C0005000002038B500208DF801008DF8020091
:1015D00001208DF80300FF208DF800006846FEF71B
:1015E000EDFF154800684FF47A72B0FBF2F1481E27
:1015F000B0F1807F00D31BE0481E4FF0E022506125
:1016000050170F22002804DB13071C0E0B4B1C5431
:1016100006E013071D0E0A4B00F00F04241F1D5592
:1016200000BF00204FF0E02290610720106100BF52
:1016300000200449086038BD0000002000E400E0FC
:1016400018ED00E01400002070B5044640F225516A
:101650002068FFF75EF970B12068FFF784F905464E
:10166000E06810B1E8B2E168884740F2255120688F
:10167000FFF740F90EE040F227712068FFF749F9C3
:1016800040B1206908B12069804740F22771206885
:10169000FFF730F970BD00000008014000020000B3
:1016A0000008014000040000001001400004000098
:1016B0000010014000080000000C01400020000064
:1016C000000C014000400000000C014000800000C0
:1016D000000C014000100000000C01400040000020
:1016E0000011FF0A43B1012C2D43B2012C2D43B34D
:1016F000012C2D012C2D43B40743C0A2028443C109
:10170000C543C20A0043C38A2A43C48AEE43C50EB6
:10171000433643E00F1A0F182F2820221F1B2337B0
:101720000007021043E10F1B0F17332C292E303016
:10173000393F00070310432A0000007F432B0000BD
:10174000009F43F00143F600433A054329432C43ED
:1017500042C0A0006000000000080140010000003D
:1017600000080140020000000008014004000000E1
:1017700000080140080000000008014010000000BF
:101780000008014020000000000801404000000067
:101790000008014080000000000801401000000027
:1017A0000008014020000000000801404000000047
:1017B0000008014080000000000C0140000400000F
:1017C000000C014000080000E8170008000000209D
:1017D0008407000028010008A01B000884070020DF
:1017E000940E0000840100081184A24A04D009016B
:1017F000020304060708091638014098161B08A0C2
:1018000004D112481B40A8149AB01812101A1430B0
:10181000111B40B8141AC004EAC83401111008188A
:101820003C3C3C181818190341E5666666243D6C7B
:101830006CFE6C04392E580B187CC6C2C07C068620
:10184000C67C31215809C2C60C183060C686AD501E
:101850000A6C6C3876DCCCCCCC76D5303030601964
:101860002C390163180C19093901931830AE663C04
:10187000FF3C66A37B187E6D89149931110A11FE15
:10188000D879322B0206A063C080580B7CC6C6CE26
:10189000D6D6E6C6C67C281B38784C19016A7E204D
:1018A000492F5AC65419106E063C060606301F0C06
:1018B0001C3C6CCCFEB15A1E7B8EC0C0C0FC0E20FE
:1018C0001B3860101AC60159101AFE4049F479807D
:1018D0002AC6046920290C1A7E60BB0C78BA99F1DB
:1018E000591069EF399FA530180C0619AB59AE3164
:1018F000391C292479601A0CDE895119115EDEDE4B
:10190000DEDCC0802F10386CC6C6FE91611EFC66FE
:1019100066667C046366FC1C3C66C2E265C0C26607
:101920003C2BF86C1D5D66666CF87C580966626835
:1019300078686062668259109C6060F04066DEC61E
:10194000C6663A296A396F59701A3C9D3901596047
:101950002B1E0C0165CCCCCC781FE6666C6C7878BD
:101960007562E61AF05B190179709EC6EEFEFED62E
:10197000508FC6E6F6FEDECE1029DF29019B6C38BB
:10198000E0294259A04A7C1F7ED6DE7C0C0E20291D
:10199000E459701920600860380C06C6C67CBC7E0D
:1019A0007E5AB0493F19015920590E9C6C381010CD
:1019B0006ED6D6FE6C6C101E6C6C38386C96611945
:1019C0006A9B663C50580AFEC6860C183060C2C638
:1019D000E05B3C3001592011580A80C0E070381C8F
:1019E0000E0602205A0C0139201A10EF011922FFAD
:1019F00004123030186008780C7CCCCCCC762EE009
:101A00006060786C9592DC6E7CC6C0C0C0E01A1C29
:101A10006A1A6C2F693039208AFE201F386C646086
:101A2000F0600192F02A762F4ECC7C0CCC78602BA3
:101A30006C766062E61318181A38FE5B1818E0130B
:101A400006063B0E06012B66661319301C666C7881
:101A5000935930492D8930312CECFED601912ADC86
:101A60005F9B6666A0290159A079207A7CA369A0B2
:101A70005B0C1E20BB7662C06E7CC660380C401EBC
:101A8000103030FC300193361C393F93CC76395FEF
:101A9000933C18197D8DD6D6FE6C10AF6C38383853
:101AA0006CC6201901657E060CF86008FECC183063
:101AB00060C6FE1A0EEB2A70F0620E290B3905592A
:101AC00060291C29245B1870CDC2DCCAFF010116F5
:101AD0001211101E124617201814192F1A1E320444
:101AE00029142C1E2A04427F4D0963E064FF6520FF
:101AF000661267101413F00D810FC5142122FF2305
:101B0000012434253C26A12B101E6BAA13FF695D0E
:101B1000900A910192019301945F95539611971A3F
:101B2000983D995A9A1E9B10329C25A765A8659EE0
:101B300081A6067E0C7F16802A814E8261836F8487
:101B40007B8586868E879788A489AF8AC58BD78C3C
:101B5000E88D20A980AA80ACFF3316229923034A7E
:101B6000100E491347084B144C1746050CD00E8233
:101B70004D13581733080F2A600822012A68081AE3
:101B800002FE290822032A780822042A8008220556
:101B90002A880822062A900872077A10F00111009C
:04000005080000ED02
:00000001FF
