:020000040800F2
:1000000038160020750200087D0200087F020008F3
:100010008102000883020008850200080000000039
:10002000000000000000000000000000870200083F
:1000300089020008000000008B020008212500084A
:100040008F0200088F0200088F0200088F0200084C
:100050008F0200088F0200088F0200088F0200083C
:100060008F0200088F0200088F020008391D000867
:100070008F0200088F0200088F0200088F0200081C
:100080008F0200088F020008391B00088F02000849
:100090008F0200088F0200088F0200088F020008FC
:1000A0008F0200088F0200088F0200088F020008EC
:1000B0008F0200088F0200088F0200088F020008DC
:1000C0008F0200088F0200088F0200088F020008CC
:1000D00041230008592900088F02000869290008F7
:1000E000411F00088F0200088F02000800F002F88C
:1000F00000F0B0F80AA090E8000C82448344AAF112
:100100000107DA4501D100F0A5F8AFF2090EBAE80F
:100110000F0013F0010F18BFFB1A43F0010318473B
:10012000DC4F0000FC4F00000A444FF0000C10F8B8
:10013000013B13F0070408BF10F8014B1D1108BF65
:1001400010F8015B641E05D010F8016B641E01F805
:10015000016BF9D113F0080F1EBF10F8014BAD1C55
:100160000C1B09D16D1E58BF01F801CBFAD505E073
:1001700014F8016B01F8016B6D1EF9D59142D6D3CD
:10018000704700000023002400250026103A28BFF5
:1001900078C1FBD8520728BF30C148BF0B607047F9
:1001A0006E2900F03B81702900F07D82662904F001
:1001B0009D83652904F09A83672904F09783612958
:1001C00004F0968303681B0A28BF41F08001692967
:1001D00000F0E880642900F0E580752900F0E280F5
:1001E0006F2900F00A82782900F04982E92900F09D
:1001F000A581E42900F0A281F52900F09F81EF2973
:1002000000F00782F82900F048820368DB0928BF64
:1002100041F08001632900F04B87732900F050877B
:10022000E32900F05B87F32900F060870020704726
:100230001FB500F0ADFF04000020002104F03EF9DE
:10024000401C60600020002104F022F9E0601FBD26
:1002500010B510BD00F06EFF1146FFF7E9FF02F088
:10026000E1FE01F04BF803B4FFF7F2FF03BC01F02D
:1002700093F800000948804709480047FEE7FEE779
:10028000FEE7FEE7FEE7FEE7FEE7FEE7FEE7FEE746
:1002900004480549054A064B7047000049250008F7
:1002A000ED00000838100020381600203812002019
:1002B000381200201CB50C46064B7B446946009062
:1002C000204600F0C4F804460020694600F0D2F849
:1002D00020461CBDB701000070477047704770B5DD
:1002E000044685690068C10601D5302600E0202655
:1002F000C00707D070BDD4E9012130469047206A7D
:10030000401C20626D1EF6D570BD70B5044685692F
:100310000078C00707D170BDD4E9012120209047A3
:10032000206A401C20626D1EF6D570BD09684A0522
:1003300001D540B27047C905FCD500B270470968C5
:100340004A0501D5C0B27047C905FCD580B27047D7
:1003500070B50C460546012A05D02878800600D5E0
:10036000EA69002302E0012305E05B1C934202D20C
:10037000E05C0028F9D1A869E618C01AA861286ACB
:10038000184428622846FFF7AAFF04E0D5E90121B6
:1003900014F8010B9047B442F8D32846FFF7B5FF95
:1003A00070BD00002DE9F041064600241068752953
:1003B000314616A510D0FFF7B9FF002802DA4042F7
:1003C00013A507E031688A0701D512A502E04907A5
:1003D00004D511A5012401E0FFF7B1FF00210A2295
:1003E00006F1240709E0B0FBF2FCB0FBF2F302FBDC
:1003F0001C00303078541846491C0028F3D123469D
:100400002A463046BDE8F04100F061BA0000000025
:100410002D0000002B000000200000001168026881
:10042000006A530501D508700AE0D30501D508809C
:1004300006E0130603D5C217C1E9000200E0086018
:100440000120704701694A1C02610878704700B5B5
:100450008FB0CDE901310021059105497944CDE9FD
:1004600003101146684600F029F90FB000BD0000E6
:10047000E5FFFFFF0A6802F8010B0A607047000001
:100480002DE9FF5F15468A460446DFF8AC80F84444
:100490000027D8E900103E46CDE9001010E03AF8F8
:1004A00016106A4602A800F025FE411C07D02178EC
:1004B000890603D5E269391891420DD80744761CA4
:1004C0002078800602D5E069B84205DDAE42E6DB61
:1004D0003AF816000028E2D1A069C01BA0612046AE
:1004E000FFF7FDFED8E90010CDE90010002017E06D
:1004F0003AF818106A4602A800F0FCFDB0F1FF3F80
:1005000081460BD000250DF1080B05E0D4E901214F
:100510001BF8050090476D1C4D45F7D308F101000D
:10052000B0428046E4DB206A384420622046FFF770
:10053000ECFEBDE8FF9F00006E4B00002DE9F0418E
:100540008046D21D22F007020025D2E90002F529DB
:1005500015A614D0011E72F1000106DA0023D0EBBB
:10056000030063EB020211A608E0D8F800108B0725
:1005700001D50FA602E0490701D50EA601251146B7
:10058000002408F1240704E000F05CF930323A5509
:10059000641C50EA0102F7D12B4632462146404600
:1005A000BDE8F04100F093B9000000002D0000000C
:1005B0002B0000002000000030B4002100F12404D2
:1005C00008E002F00705D208303542EA4372DB0842
:1005D0006554491C52EA0305F3D10468002310A2B4
:1005E000250707D5A40600D421B1C46901230DA2B3
:1005F000641EC46130BC00F06AB910B504462146DF
:100600001068FFF79CFE02462046BDE8104000231C
:10061000D2E7D21D22F00701D1E90023CCE7000088
:100620000000000030000000F0B40D46018809050C
:1006300002D5214C7C4402E01F4C7C440E34002146
:1006400000F1240608E002F00F071209E75D42EA14
:1006500003721B097754491C52EA0307F3D102784D
:100660000023120704D5702D06D009B102231134DE
:100670002246F0BC00F02BB901231034F8E770B526
:1006800004460D4621461068FFF759FE02462946EA
:100690002046BDE870400023C6E7D21D22F00703C4
:1006A000D3E90023C0E70368126843F02003036026
:1006B0000823C3610023B7E7D04900002DE9F05FAC
:1006C000894604464FF0000ADFF874B1FB44C0F8D5
:1006D00020A02046E1688847002874D0252806D04D
:1006E000D4E901219047206A401C2062F1E70026EE
:1006F0005F462046E16888472028054607DB312D04
:1007000005D2781910F8200C08B10643F1E7B007BC
:1007100001D526F00406C4F81CA00027C4F818A0D0
:100720002A2D09D0284602F002FA38B304EB8708D4
:10073000303DC8F8185019E059F8041B204604EB66
:1007400087029161E1688847012F054618D1E06969
:10075000002820DA26F020061DE0D8F8180000EB6B
:10076000800005EB40003038C8F818002046E168EA
:100770008847054602F0DBF90028EED1012F0AD0A8
:100780002E2D08D12046E16888477F1C0546022FA0
:1007900046F02006C4DBA069002803DA404246F098
:1007A0000106A061F00701D026F010066C2D0BD0D9
:1007B000682D09D04C2D39D06A2D35D0742D35D007
:1007C0007A2D33D016E038E0E1682F46204688477E
:1007D000B842054609D16C2F26D04FF48060E168FD
:1007E000064320468847054604E06C2F1AD04FF494
:1007F000807006430DB3A5F14100192802D82035B9
:1008000046F400664A462946204626604E46FFF7D3
:10081000C7FC80B101280BD0F61D26F0070000F1BF
:10082000080956E74020E4E78020D8E70020D6E713
:1008300006F104094DE7284652E7206ABDE8F09F1B
:100840006049000030B5B0F10A024FEA900E71F134
:1008500000034EEA817EB0EB0E0061EB91014FEA9E
:10086000101E4EEA017E10EB0E0041EB11114FEA13
:10087000102E4EEA016E10EB0E0041EB11214FEAF3
:10088000104E4EEA014E10EB0E0041EB11414018A4
:1008900041F100014FEAD00040EA41704FEAD10136
:1008A00010EB80054FEA810444EA907444EB0104A4
:1008B0006D1944EB0404521BA3414FF0000348BFE1
:1008C0000A3200D530BD401C41F1000130BD2DE998
:1008D000F0470D4699469246044600F12408016807
:1008E000880604D5E06921F01001216000E00120B4
:1008F000A84201DD471B00E00027A1697A1902EB3D
:100900000900081AA0612078C00602D42046FFF72B
:10091000E6FC002608E0D4E901211AF80600904719
:10092000206A401C761C20624E45F4DB2078C0060D
:100930000AD52046FFF7D3FC06E0D4E90121302098
:100940009047206A401C2062381EA7F10107F4DCA2
:1009500007E0D4E9012118F805009047206A401CFF
:100960002062281EA5F10105F3DC2046FFF7CDFC2F
:100970002078000602D50220BDE8F0870120FBE7C1
:1009800070472DE9FF4F0C461E464FF0FF378BB0E6
:10099000D2E90001DDF860800A908A46C1F30A5569
:1009A00005B93D46002108464FF00000BAF1000F9E
:1009B00000F4400005DA00EB80004FF4400101EA4A
:1009C00050004FEA9059B9F1010F00DDB9460A987D
:1009D00050EA4A000ED044F61050A5F2FF354543C8
:1009E0002F14B8F1000F1ED07542291E1EDDC9F16B
:1009F00000021CE0B8F1010F4FF0000001D03021DF
:100A000003E0F24305E02154401CB042FBDB3046DA
:100A10000022002121540B99C1F80880C1E900206F
:100A20000FB0BDE8F08FBD1B6D1CDEE74A4600DA53
:100A3000694206A800F0F0FB06AB93E8070003ABA1
:100A400083E8070050460A9900F0ADFC8DE80700E6
:100A5000A0F500501F3800900398002D0ADD42F2E7
:100A60001F014A460844002303A90390684600F08A
:100A700016FF09E0A0F500504A461F38002303A9DD
:100A80000390684600F020FF8DE807000004000C8A
:100A900003D04FF0FF30410800E01046B8F1000FDE
:100AA00003D00022009215461EE0751E05D4FFF704
:100AB000C9FE303262556D1EF9D5B3460122084396
:100AC00002D000227F1C04E02078302801D10022CF
:100AD0007F1E002A099784D01DE0112D07DAFFF749
:100AE000B1FE303262556D1C50EA0102F5D1084367
:100AF00002D00098C8B10EE00021681E05E0235C1A
:100B0000625C63542254401E491C8142F7DBAB46B1
:100B1000A81B401E0990002004F80B000B98099AAE
:100B2000C0F80880C0E9002B7AE711264FF00008D2
:100B300057E72DE9F04F88460446D21D22F0070101
:100B400091B0D1E90001CDE90A0101F0DCFF0246D4
:100B50000B98C00F01D02D2007E02068810701D538
:100B60002B2002E0202101EAC000032A099001D0D5
:100B7000072A05DB03464146204600F00DFB0BE14A
:100B80002078800601D5E06900E00620B8F1650F05
:100B9000814606D0B8F1660F18D0B8F1670F70D152
:100BA00031E00020B9F1110F009001DB112301E0C9
:100BB00009F101030AAA01A90CA8FFF7E2FEDDE989
:100BC0000C70002609F10105834647E001204B46E1
:100BD00000904FF000470AAA01A90CA8FFF7D1FE28
:100BE000DDE90DB00C995D46002610B909F1010050
:100BF0000D18B9EB050003D4C0F1FF3609F101056A
:100C0000A5EB09002BE0B9F1010F01DA4FF0010962
:100C10000020B9F1110F0090484601DD112300E0DA
:100C200003460AAA01A90CA8FFF7ABFEDDE90C7088
:100C30004D4600268346207800070AD4AB4500DAEB
:100C40005D4601A8012D04DD411911F8011C302970
:100C500007D04F4502DA17F1040F04DA012082466B
:100C60000FE06D1EEEE7002F02DCED1B3E4403E0BB
:100C7000781CA84200DD7D1CB81B00F1010A4FF072
:100C800000472078000703D4AA4501DB4FF0FF3A64
:100C90000021B7F1004F0DF143088DF8431024D027
:100CA00002202B23002F01DA7F422D230A21021E6E
:100CB000A0F1010000DC5FB197FBF1FC97FBF1F2C2
:100CC00001FB1C7C17460CF1300C08F801CDEEE757
:100CD000A8F1010003702188090501D5452100E034
:100CE0006521A0F1010800F8011C09980FA9A1EBEA
:100CF0000807FF1D00B10120411901EBEA70A1694D
:100D00003844081A401EA0612078C00602D420464C
:100D1000FFF7E5FA099828B1D4E901219047206A44
:100D2000401C20622078C00622D52046FFF7D7FA63
:100D30001EE0002E04DBB34502DD01A8805D00E06B
:100D40003020D4E901219047206A401C2062761CA3
:100D5000AAF101005FEA000A0AD100F019FAC0689E
:100D60000168405CD4E901219047206A401C206260
:100D7000281EA5F10105DCDC07E0D4E9012118F803
:100D8000010B9047206A401C2062381EA7F1010722
:100D9000F3DC2046FFF7B9FA032011B041E600006A
:100DA0002DE9F04F04460D46D21D22F0070089B010
:100DB000D0E900974846394601F0A5FE0246F80FF3
:100DC00001D02D2307E02068810701D52B2302E005
:100DD000202101EAC0038DF820300BB1012000E092
:100DE0000020032A824601D0072A04DB2946204638
:100DF00000F0D2F93FE12078800601D40D2500E013
:100E0000E569C7F30A560D2D49DA00214FEA175B51
:100E100008464FF00000002F00F4400007DA00EB16
:100E200080004FF4400100EBD07001EA60008115B2
:100E3000012901DD4FF0FF3100224FEA850CBCF1A2
:100E4000180F06D31346ACF118004FF08052C24081
:100E500003E04FF4801323FA0CF30CF10C0CBCF1FB
:100E6000200F04D3ACF1200C09FA0CF001E007FAD2
:100E70000CF000294FF0004801DD18B90FE00ED149
:100E800040450CD319EB02095F4121B9404502D11D
:100E90009F4329EA0209BBEB175F00D0761C20882C
:100EA000000502D57B48784402E07A487844193836
:100EB00008AA302302F80A30037C0AF10101002E4F
:100EC0000AF1020A53546A4602DC4FF0300101E095
:100ED0004FF031014FF001088DF8001002D0A6F25A
:100EE000FF3603E059EA470100D06B4E002D02DCCB
:100EF0002178090704D54FF002082E218DF8011042
:100F0000C44600210BE0C7F303433F01C35C491C07
:100F10006D1E02F80830052908F1010801DA002DDC
:100F2000F1DC00210CE000EB1973491C1B786D1EED
:100F3000082902F808304FEA091908F1010801DA16
:100F4000002DF0DC21688B0602D516E0A8F101081F
:100F5000E04505DD02EB080313F8013C302BF5D02A
:100F6000B8F1000F09DD02EB080313F8013C2E2B4A
:100F700003D1090701D4A8F10108002D05DD3E21A8
:100F800002F808106D1E08F10108407C002E02F8DE
:100F9000080008F1010804DA2D20764202F8080062
:100FA00002E02B2002F808000A214FF47A708642F2
:100FB00008F101080BDB96FBF0F3303302F8083040
:100FC00096FBF0F308F1010800FB136601E0642EC4
:100FD0000CDB642096FBF0F3303302F8083096FB0C
:100FE000F0F308F1010800FB136601E00A2E06DBAE
:100FF00096FBF1F0303002F8080008F1010896FB8A
:10100000F1F001FB1060303002F80800A16908F12E
:10101000010808EB050202EB0A00081AA06120781B
:10102000C00602D42046FFF75AF9216A08AE01EB48
:101030000A00206204E0D4E9012116F8010B904770
:10104000BAF1010AF7D22078C00602D52046FFF790
:1010500046F96E4609E016F8010B3E280FD0D4E998
:1010600001219047206A401C2062B8F10108F2D2A9
:101070002046FFF74AF909B00320BDE8F08F206A47
:101080002844206203E0D4E90121302090476D1EFE
:10109000EBD3F8E7AA41000002FCFFFF10B543695B
:1010A00013B1AFF3008001E0FFF752F9012010BD4A
:1010B000127800F124010A7000224A700122EDE743
:1010C00011684FF0FF32E9E710B5436913B1AFF390
:1010D000008001E0FFF7D4F9012010BD128800F173
:1010E000240182840022C2840122EDE711684FF0BE
:1010F000FF32E9E770B516460C46054600F040F8A9
:10110000036893F80101012806D0FF2C0FD8185D61
:1011100068B101202C7070BDD3F80701324621461A
:1011200003F2071303442846BDE8704018474FF008
:10113000FF3070BD754600F0EBF8AE46050069461D
:10114000534620F00700854618B020B5FFF7A0F8F9
:10115000BDE820404FF000064FF000074FF00008B8
:101160004FF0000B21F00701AC46ACE8C009ACE839
:10117000C009ACE8C009ACE8C0098D467047000062
:1011800010B500F005F8001D10BD00BF31330000A0
:1011900000487047F40F00202DE9F0411F46044637
:1011A00003260168072A01F4006004DB08B116A5D4
:1011B00005E016A503E008B115A500E015A521F08E
:1011C00010002060A069C01EA0610FB1401EA06188
:1011D0002046FFF784F84FB1D4E901213846904703
:1011E000206A401C2062C01C206206E0206AFAE7E8
:1011F000D4E9012115F8010B9047761EF8D220465C
:10120000FFF783F8BDE8F0814E414E006E616E003D
:10121000494E4600696E66002DE9F0478146164644
:101220008AB0354878440DC88DE80D0032487844BE
:10123000801C03AC0DC884E80D0041F69B300844C7
:10124000372190FBF1F290FBF1F5A5F1800501FB50
:1012500012041B3C02D56442012000E00020DFF8AC
:1012600098A080460027FA44AAF1BE0A0EE0E007E3
:101270000AD03246684607EB470101230AEB810199
:1012800000F022FB8DE8070064107F1C002CEED1DB
:10129000194F7F44AE3F19E0E80715D007EB041063
:1012A0000DF1180A90E80E008AE80E00C068F042BE
:1012B00001D1981908903246012306A903A800F02D
:1012C00003FB03AB83E807006D10641C002DE3D122
:1012D0004FF0010332466946B8F1000F03A802D06F
:1012E00000F0DDFA01E000F0EFFAC9E90001C9F809
:1012F00008200AB0BDE8F087BC3E000010B50446E7
:10130000AFF300802046BDE81040FEF7ACBF000000
:1013100000487047D40F00204FF0013C50F8042BD8
:1013200051F8043B9A4221D1A2EB0C03934313EAF8
:10133000CC1317D150F8042B51F8043B9A4215D125
:10134000A2EB0C03934313EACC130BD150F8042BFC
:1013500051F8043B9A4209D1A2EB0C03934313EAE0
:10136000CC13DBD04FF00000704700BFD01A01BA99
:10137000B1FA81F101F0180122FA01F0CB40C1F17C
:101380002001DBB2C0B2C01A2CFA01F3D11A91438A
:1013900011EAC311E6D1704701491820ABBEFEE740
:1013A0002600020070475FEA400C08BF91F0000F72
:1013B0004FEA8C234FEAC12243EA51514FEA1C50B5
:1013C00018BF00F5F0404FEA300018BF41F000416F
:1013D0005FEA6C5C00F02980BCF1FF3F08BF40F081
:1013E00080407047130C06BF12044FF0100C4FF0F2
:1013F000000C130E04BF12020CF1080C130F04BFF3
:1014000012010CF1040C930F04BF92000CF1020CBA
:10141000D30F04BF52000CF1010C11464FF0000233
:10142000A0F11F00A0EB0C00704711F0004F08BFA7
:10143000704731F000413FF4D5AF0B0C06BF0904F3
:101440004FF0100C4FF0000C0B0E04BF09020CF112
:10145000080C0B0F04BF09010CF1040C8B0F04BF27
:1014600089000CF1020CCB0F04BF49000CF1010CF8
:10147000CCF12003A0EB0C0022FA03F302FA0CF2E9
:1014800041EA030100F10100704720F07F4C80EA3F
:10149000030023F07F47ACEB070303F57C5300F018
:1014A000004003F1FF032DE980494FEA154B09B4D1
:1014B0004FEA144325EA0B4E24EA03480FF20426B0
:1014C00006EB132749083E785FEA320203FB066702
:1014D000C7F5000707FB06F64FEA54374FEAD64632
:1014E00006F1020607FB066CCCF1005C4FEA1C47D4
:1014F0002CEA074C07FB06F40CFB06F504EB15463B
:101500004FEA961634BF00204FF000404FEAD13723
:1015100006FB07FC4FEA1C4C0CFB0BF7D21B03FB32
:101520000CF761EB07010CFB0EF7B0EB074072EB19
:1015300017420CFB08F734BFA2EB0742B2EB07429D
:1015400061EB17414FEA0C444FEA910706FB07FC99
:101550004FEA1C4C0CFB0BF7B0EBC74072EB573259
:1015600003FB0CF734BFA2EBC742B2EBC74261EBFF
:1015700057310CFB0EF7B0EBC70072EB57720CFB48
:1015800008F734BFA2EBC702B2EBC70261EB577199
:10159000039F4FEA816141EA921104EBCC044FEAC8
:1015A000D1374FEA826206FB07FC42EA90124FEA0B
:1015B00080604FEA1C4C0CFB0BF7D21B03FB0CF7B3
:1015C00061EB07010CFB0EF7B0EB074072EB174223
:1015D0000CFB08F734BFA2EB0742B2EB074261EB0A
:1015E00017414FEA8C554FEA910704EB9C2406FB08
:1015F00007FC4FEA1C4C0CFB0BF7B0EBC74072EB3F
:10160000573203FB0CF734BFA2EBC742B2EBC74221
:1016100061EB57310CFB0EF7B0EBC70072EB577262
:101620000CFB08F734BFA2EBC702B2EBC70261EBB9
:10163000577115EB4C254FEA816141EA92114FEA4F
:1016400082624FEAD13742EA901206FB07FC44F16E
:1016500000044FEA80604FEA1C4C0CFB0BF7D21BD6
:1016600003FB0CF761EB07010CFB0EF7B0EB074037
:1016700072EB17420CFB08F734BFA2EB0742B2EB48
:10168000074261EB174115EB1C154FEA813141EA26
:1016900092414FEA823242EA90424FEA80304FEA6A
:1016A0000C7644F1000448EA03434EEA0B484FF03D
:1016B000000EB2EB080C71EB030724BF62463946FB
:1016C0004EEB0E0E4FF0000B0018524149414BEB10
:1016D0000B0BB2EB080C71EB03077BF1000B24BF83
:1016E000624639464EEB0E0E4FF0000B0018524189
:1016F00049414BEB0B0BB2EB080C71EB03077BF191
:10170000000B24BF624639464EEB0E0E51EA02072B
:1017100018BF46F0010616EB0E7655F1000254F1A3
:10172000000103D5BDE88901BDE80088BDE8890155
:10173000BDE80048B619524141EB0101A3F1010394
:10174000704780807F7E7D7C7B7A7978777676752E
:101750007473727171706F6E6E6D6C6C6B6A6A69A6
:101760006868676666656464636362616160605F40
:101770005F5E5E5D5D5C5C5B5B5A5A5959585857B9
:101780005756565555555454535352525251515021
:1017900050504F4F4F4E4E4D4D4D4C4C4C4B4B4B74
:1017A0004A4A4A49494948484847474747464646BA
:1017B00045454544444444434343434242424241F5
:1017C0004141002B9C4630D477002BD01CB54FEA0A
:1017D000370703B44FF010004FF01001BAF1000FBB
:1017E00006D0BCF1000FDCBF40F0080040F008015B
:1017F0004FF000000FBCBDE810400BF1010BBBF136
:10180000010F08BF5FEA170722BF12F1010211F1B1
:1018100001014FF0004143F1000300F0004043EAB2
:1018200000007047F9D35708D0E746EA064613F19F
:10183000400F4FEA16461FDD13F1200FDFBF16439E
:101840000A46002120335B42BED0C3F1200746EA9E
:10185000064602FA07F74FEA164646EA0706C3F1BC
:10186000200722FA03F201FA07F721FA03F14FF0F9
:10187000000342EA0702A7E746EA020646EA0646EE
:101880004FEA164646EA0106BCBF46EA0646360C53
:101890004FF000034FF000024FF0000194E72DE9F4
:1018A000804C9A46934670B491E8380007C831EAF4
:1018B000400C48BF34EA430C03D5FFF7E6FDFFF7C1
:1018C00080FFF0BCBDE8008C2DE9804C9A46934621
:1018D00070B491E8380007C810F0804F08BF13F0CB
:1018E000804F03D100F005F8FFF76BFFF0BCBDE8B7
:1018F000008C20F07F4780EA030023F07F4C07EB49
:101900000C03A3F57C5300F00040A3F1FE0392F01A
:10191000000F00F0B38095F0000F00F077802DE904
:1019200001494FEA11404FEA144621EA004800FB02
:1019300006FC24EA064708FB06F607FB08F800FB4E
:1019400007F718EB06484CEB164C4FEA124B18EB16
:1019500007484FEA15464CEB174022EA0B4E0BFBAB
:1019600006FC25EA06470EFB06F607FB0EFE0BFB00
:1019700007F71EEB064E4CEB164C4FF000061EEB25
:10198000074E4CEB174B18EB0B0840F1000018EB1F
:101990000E0B58EB000840F100008F1A4FF00001C9
:1019A0003CBFC943661B14BFB5EB040C00213CBF10
:1019B000C943F61B4FEA17444EEA8E0E27EA044548
:1019C0004FEA1C4704FB07622CEA074C05FB07F7AC
:1019D0000CFB05F604FB0CFC16EB074642EB17422A
:1019E00016EB0C4642EB1C421BEB060658EB0202C0
:1019F000414146EA9E0601D5BDE80189B61952412A
:101A000041EB0101A3F10103BDE801894FEA14454F
:101A10004FEA114724EA054621EA074C05FB07F483
:101A200006FB07F70CFB06F105FB0CFC11EB07416D
:101A300044EB17444FEA124711EB0C4144EB1C44B2
:101A400022EA074C05FB07F206FB07F70CFB06F63C
:101A500005FB0CFC16EB074642EB174216EB0C4657
:101A600042EB1C456A1854F1000148BF7047B61993
:101A7000524141EB0101A3F10103704795F0000FC2
:101A800037D04FEA11424FEA144721EA024624EACE
:101A9000074C02FB07F106FB07F70CFB06F402FB01
:101AA0000CFC14EB074441EB17414FEA154714EBCC
:101AB0000C4441EB1C4125EA074C02FB07F506FBF1
:101AC00007F70CFB06F602FB0CFC16EB074645EB92
:101AD000174516EB0C4645EB1C42121951F100015B
:101AE00048BF7047B619524141EB0101A3F1010310
:101AF00070474FEA14454FEA114724EA054621EAA8
:101B0000074C05FB07F106FB07F70CFB06F24FF04D
:101B1000000605FB0CFC12EB074241EB174112EBF0
:101B20000C4251EB1C4148BF7047921841EB010138
:101B3000A3F101037047000010B54FF408710B4882
:101B400000F043F888B1094800F03BF80849094A19
:101B5000127821F8120007480078401C05490870E7
:101B60004FF40871014800F007F810BD002401404F
:101B7000740F00208807002000220A12D34303605C
:101B8000704721B1826842F00102826003E08268FE
:101B900022F001028260704721B1826842F48072B3
:101BA000826003E0826822F480728260704701469E
:101BB00000208A6802F004020AB1012000E000203F
:101BC00070470146C86C80B2704770B5024600206D
:101BD000002300240B125568CEB205EA06041568EE
:101BE0001D4015B10CB1012000E0002070BD014680
:101BF00000208A6802F008020AB1012000E00020FB
:101C00007047000030B502460020002350680F4C9A
:101C100020400D790C6844EA052420435060906808
:101C20000B4C2040D1E902542C434D7944EA450441
:101C300020439060D06A20F470000C7C641EE4B2F3
:101C4000234340EA0350D06230BD0000FFFEF0FFA6
:101C5000FDF7F1FFF0B504460D4600200021092DE7
:101C600011DDE068A5F10A0606EB4607072606FA2D
:101C700007F18843A5F10A0606EB460603FA06F1CA
:101C80000843E0600CE0206905EB4507072606FAEB
:101C900007F1884305EB450603FA06F10843206186
:101CA000072A0FDA606B561E06EB86071F2606FA18
:101CB00007F18843561E06EB860605FA06F108432F
:101CC000606322E00D2A0FDA206BD61F06EB860731
:101CD0001F2606FA07F18843D61F06EB860605FA8B
:101CE00006F10843206310E0E06AA2F10D0606EB5E
:101CF00086071F2606FA07F18843A2F10D0606EBB8
:101D0000860605FA06F10843E062F0BD816841F0FD
:101D100008018160704721B1826842F4A0028260AC
:101D200003E0826822F4A00282607047816841F07B
:101D3000040181607047000010B5022000F0CCF86B
:101D400038B104480078401C02490870022000F0B5
:101D500003F810BD8807002000F0805111B103493D
:101D6000086001E002494860704700000404024036
:101D70000000024021B1026842F00102026004E06A
:101D800002684FF6FE731A400260704701684FF612
:101D9000FE72114001600021016041608160C160FC
:101DA0004B49884208D14A490839496841F00F0136
:101DB000474A083A51608AE045491431884208D1BF
:101DC00043490839496841F0F001414A083A5160F5
:101DD0007DE03F492831884208D13D4908394968AA
:101DE00041F470613A4A083A516070E038493C3138
:101DF000884208D136490839496841F47041344A6B
:101E0000083A516063E032495031884208D1304984
:101E10000839496841F470212D4A083A516056E06A
:101E20002B496431884208D129490839496841F46D
:101E30007001274A083A516049E0254978318842C3
:101E400008D123490839496841F07061204A083AAD
:101E500051603CE01F49884206D1011F096841F0EA
:101E60000F01021F116032E01A491431884208D173
:101E70001849091F096841F0F001164A121F116044
:101E800025E014492831884208D11249091F096800
:101E900041F470610F4A121F116018E00D493C3186
:101EA000884208D10B49091F096841F47041094A69
:101EB000121F11600BE007495031884207D10549D4
:101EC000091F096841F47021024A121F116070470E
:101ED000080002400804024001460020002201F0F0
:101EE000805313B1054B1A6801E0054B1A6802EAEA
:101EF00001030BB1012000E0002070470004024004
:101F00000000024010B50022026847F6F0739A43C1
:101F10000C6A8B6823430C6923434C6923438C6907
:101F20002343CC6923434C6A23438C6A23431A43DB
:101F30000260CB6843600B6883604B68C36010BD70
:101F400010B54FF4805000F031F810B3114800780C
:101F500088B90420104908608002104908600120F7
:101F60000C49087000030D49091F086004200A4944
:101F7000091F086009E007480078012805D100031F
:101F8000064908600220034908704FF4805000F0B1
:101F900007F810BD31070020141401401408014057
:101FA0000149086070470000140401400146002008
:101FB0000022074B1B6803EA0102054B14331B6820
:101FC0000B4013B10AB1012000E00020704700006F
:101FD000000401402DE9F0410246002500260020C2
:101FE00000230024002791F803C00CF00F0591F89E
:101FF00003C00CF0100CBCF1000F03D091F802C02C
:102000004CEA050591F800C0BCF1000F31D014680E
:1020100000202BE04FF0010C0CFA00F3B1F800C0E7
:102020000CEA03069E4220D183004FF00F0C0CFAFD
:1020300003F7BC4305FA03FC4CEA040491F803C01F
:10204000BCF1280F06D14FF0010C0CFA00FCC2F8CD
:1020500014C00AE091F803C0BCF1480F05D14FF05D
:10206000010C0CFA00FCC2F810C0401C0828D1D3A7
:102070001460B1F800C0BCF1FF0F34DD54680020DB
:102080002EE000F1080C4FF0010808FA0CF3B1F84B
:1020900000C00CEA03069E4221D183004FF00F0CD2
:1020A0000CFA03F7BC4305FA03FC4CEA040491F86C
:1020B00003C0BCF1280F05D100F1080C08FA0CF898
:1020C000C2F8148091F803C0BCF1480F07D100F1A9
:1020D000080C4FF0010808FA0CF8C2F81080401CF8
:1020E0000828CED35460BDE8F0810000F0B50A4660
:1020F000002300240021002500F00046B6F1004F27
:1021000002D11D4EF16901E01B4E7168C0F3034519
:1021100083B200F44016B6F5401F08D121F070617B
:10212000154E766826F07066134F7E6012E000F45C
:102130008016B6F5801F06D1032606FA05F4A143E2
:1021400041F0706106E0460D360103FA06F6B14330
:1021500041F0706122B1460D360103FA06F63143B3
:1021600000F00046B6F1004F02D1034EF16101E0EC
:10217000014E7160F0BD00000000014041617047F8
:102180000161704770B5002100230F22C47804B3A9
:10219000154C246804F4E064C4F5E064210AC1F13C
:1021A0000403CA40447804FA03F1847814402143BC
:1021B00009010E4C0678A155047804F01F0501248E
:1021C000AC4005786D11AD0005F1E025C5F8004182
:1021D00009E0047804F01F050124AC40044D0678A2
:1021E000761145F8264070BD0CED00E000E400E0FB
:1021F00080E100E001460020034A506820F440409E
:1022000008435060704700000010024029B1064AA0
:1022100052690243044B5A6104E0034A5269824303
:10222000014B5A61704700000010024029B1064A74
:10223000D2690243044BDA6104E0034AD269824363
:10224000014BDA61704700000010024029B1064AD4
:1022500092690243044B9A6104E0034A9269824303
:10226000014B9A61704700000010024030B5002118
:102270000022002400232D4D6D6805F00C0121B1D2
:10228000042905D0082923D105E0294D056022E065
:10229000274D05601FE0254D6D6805F47012234D34
:1022A0006D6805F48034022505EB92421CB9214D7E
:1022B000554305600BE01D4D6D6805F400351DB1FB
:1022C0001C4D5543056002E0194D5543056002E081
:1022D000174D056000BF00BF144D6D6805F0F0019B
:1022E0000909154D6B5C0568DD4045600F4D6D6853
:1022F00005F4E061090A104D6B5C4568DD408560BE
:102300000A4D6D6805F46051C90A0B4D6B5C456858
:10231000DD40C560054D6D6805F44041890B074DF2
:102320006B5CC568B5FBF3F5056130BD001002407C
:1023300000127A0000093D0000000020100000207B
:1023400010B5024801F0AEF910BD00006400002095
:1023500021B1028842F40052028004E002884DF666
:10236000FF731A400280704721B1028842F0400298
:10237000028004E002884FF6BF731A400280704763
:1023800010B5002201F00F040123A3409AB2D343F9
:10239000038110BD0246002013890B400BB10120C0
:1023A00000E000207047F0B5024600200024002322
:1023B000002501F00F070126BE40B4B20B11012623
:1023C0009E40B3B2968806EA03051689264016B1E8
:1023D0000DB1012000E00020F0BD01468889704762
:1023E0008181704710B50022028802F441520B88A7
:1023F0004C8823438C882343CC8823430C89234374
:102400004C8923438C892343CC8923431A4302807C
:10241000838B4FF2FF74234083830B8A038210BDAA
:1024200021B1828842F00402828004E082884FF663
:10243000FB731A408280704710B500F001F810BDA0
:102440000CB50020019000903348006840F48030C3
:102450003149086000BF3048006800F40030009047
:102460000198401C0190009818B90198B0F5A06F30
:10247000F1D12948006800F4003010B1012000902B
:1024800001E0002000900098012843D12348006813
:1024900040F01000214908600846006820F0030061
:1024A00008600846006840F0020008601A4840686A
:1024B000194948600846406848600846406840F44A
:1024C000806048600846406820F47C1048600846F8
:1024D000406840F4E81048600846006840F08070AA
:1024E000086000BF0C48006800F000700028F9D0B8
:1024F0000948406820F003000749486008464068E2
:1025000040F00200486000BF0348406800F00C0043
:102510000828F9D10CBD0000001002400020024044
:1025200006480068401C0549086005480068401ED0
:102530000349086000200349087070472800002004
:102540002C0000203000002010B51348006840F037
:1025500001001149086008464068104908400E49CA
:102560004860084600680E4908400B490860084664
:10257000006820F4802008600846406820F4FE00CF
:1025800048604FF41F008860FFF756FF4FF000606F
:102590000449086010BD0000001002400000FFF870
:1025A000FFFFF6FE08ED00E021B1028842F0800254
:1025B000028004E002884FF67F731A400280704761
:1025C00021B1028842F00102028004E002884FF645
:1025D000FE731A400280704731B1B0F8442042F4D3
:1025E0000042A0F8442005E0B0F84420C2F30E02F7
:1025F000A0F844207047000070B50024002200239A
:10260000058C4FF6FE7635400584028C8388048B5A
:102610004FF68F752C40B51E2C400D882C43751E2F
:102620002A400D892A434D882A43144DA8420BD0D5
:10263000134DA84208D0134DA84205D0124DA84210
:1026400002D0124DA84213D14FF6F7752A404D899A
:102650002A434FF6FB752A408D882A434FF6FF65C3
:102660002B404FF6FF552B408D892B43CD892B43B3
:1026700083800483CD888586028470BD002C014050
:102680000034014000400140004401400048014046
:102690000A460021018B4FF6F7731940114301835D
:1026A0007047000070B5002400220023058C4FF60F
:1026B000EF7635400584028C8388048B48F6FF75DD
:1026C0002C404FF6FF452C400D884FF6FF7606EA6A
:1026D00005252C434FF6DF752A400D8906EA0515BE
:1026E0002A434D8806EA05152A43154DA84202D013
:1026F000144DA8421DD14FF67F752A404D894FF6E3
:10270000FF7606EA05152A434FF6BF752A408D88E5
:1027100006EA05152A434FF6FF352B404FF2FF75A9
:102720002B408D8906EA85052B43CD8906EA850570
:102730002B4383800483CD880587028470BD00000D
:10274000002C0140003401400A460021018B4FF269
:10275000FF7319404FF6FF7303EA02231943018305
:102760007047000070B5002400220023058C4FF64E
:10277000FF6635400584028C8388848B4FF68F7505
:102780002C404FF6FC752C400D882C434FF6FF551E
:102790002A400D894FF6FF7606EA05252A434D8823
:1027A00006EA05252A43154DA84202D0144DA84239
:1027B0001DD14FF2FF752A404D894FF6FF7606EA8C
:1027C00005252A434FF6FF352A408D8806EA052560
:1027D0002A434EF6FF752B404DF6FF752B408D8931
:1027E00006EA05152B43CD8906EA05152B438380A0
:1027F0008483CD888587028470BD0000002C014051
:10280000003401400A460021818B4FF6F7731940CE
:10281000114381837047000070B50022002300241B
:10282000058C4EF6FF7635400584038C8488828BB8
:1028300048F6FF752A404FF6FF452A400D884FF6AF
:10284000FF7606EA05252A434DF6FF752B400D89D4
:1028500006EA05352B434D8806EA05352B430B4D1B
:10286000A84202D00A4DA84208D14BF6FF752C4071
:102870008D894FF6FF7606EA85152C438480828386
:10288000CD88A0F84050038470BD0000002C0140AA
:10289000003401400A460021818B4FF2FF7319403A
:1028A0004FF6FF7303EA0223194381837047818443
:1028B00070470000002202881D4B98420ED01D4B2D
:1028C00098420BD0B0F1804F08D01B4B984205D0F6
:1028D0001A4B984202D01A4B984204D14FF68F738C
:1028E0001A404B881A43174B984207D0164B984210
:1028F00004D04FF6FF431A40CB881A4302808B88DE
:1029000083850B8803850A4B98420BD0094B98426C
:1029100008D00E4B984205D00D4B984202D00D4B7B
:10292000984201D10B7A038601238382704700000D
:10293000002C014000340140000400400008004029
:10294000000C004000100040001400400040014016
:10295000004401400048014010B5024801F0DEFC8F
:1029600010BD00003400002010B5024801F0D6FC74
:1029700010BD00004C00002010B50022002340F6DE
:102980006A14A14200D100BF0A1201249440A3B2EC
:10299000DC43048010BD21B1828942F4005282815F
:1029A00004E082894DF6FF731A4082817047024627
:1029B0000020B1F5007F00D100BF13880B400BB1A0
:1029C000012000E00020704770B50246002400237B
:1029D0000025002040F66A16B14200D100BFC1F3C5
:1029E000421501F01F03012606FA03F3012D02D15F
:1029F0009689334006E0022D02D1168A334001E069
:102A0000968A33400C12012606FA04F416883440E4
:102A100013B10CB1012000E0002070BD2DE9F0479A
:102A200086B005460E460024A24600BFA1460027F8
:102A3000B08900B100BF2F462C8A4CF6FF700440CD
:102A4000F08804432C82AC894EF6F3100440B08821
:102A500031890843718908430443AC81AC8A4FF63D
:102A6000FF400440B0890443AC8201A8FFF7FEFB9D
:102A70001F48874202D1DDF810A001E0DDF80CA06C
:102A8000A88900F4004040B10AEBCA0000EB0A102C
:102A900031684900B0FBF1F807E00AEBCA0000EB2F
:102AA0000A1031688900B0FBF1F86420B8FBF0F03F
:102AB00004012009642101FB1089A88900F4004069
:102AC00040B1322000EBC900B0FBF1F000F007008C
:102AD000044308E0322000EB09106421B0FBF1F060
:102AE00000F00F0004432C8106B0BDE8F087000021
:102AF0000038014001468888C0F308007047C1F3E0
:102B0000080282807047490050EAC12018BF0420A3
:102B10004A0D18BF40F0010040F2FF72B2EB515F66
:102B200008BF40F00200012808BF05207047303878
:102B30000A2801D20120704700207047F8B50446EA
:102B40000F48007820710E480078401C0C4908702E
:102B5000206878B10026256803208DF802008DF8E2
:102B60000360A888ADF8000069462868FFF732FACC
:102B700000BF00BF2079034941F82040F8BD0000A4
:102B800034070020940F002000B58BB0144800F0EB
:102B9000D3F813480830FFF7F9F8124800900020E6
:102BA0000290114800780390002004908020059046
:102BB00040000690800007902020089000020990B5
:102BC00000200A9009480190694605480830FFF73F
:102BD00099F9012102480830FFF7CCF80BB000BD8D
:102BE000000002404C24014034070020740F0020F4
:102BF00010B586B02A4800F05BF800200190012053
:102C00008DF808008DF809004FF460200390002033
:102C10000490244800788DF814004FF40040FFF72A
:102C2000E9FAFFF7B1FF00F041F800240FE01E4879
:102C300050F824000079401CC2B21B4850F8240010
:102C4000417907231648FFF705F8601CC4B2154800
:102C500000788442EBDB01A91148FEF7D3FF012184
:102C60000F48FEF799FF01210D48FEF78AFF0C4837
:102C7000FFF74CF800BF0A48FEF7B9FF0028FAD169
:102C80000748FFF753F800BF0548FEF790FF0028FC
:102C9000FAD101210248FFF73EF806B010BD00004E
:102CA0000024014034070020940F002070470000EA
:102CB00010B504460B48844204D101214015FFF7AA
:102CC000C5FA0EE00848844204D101210015FFF73F
:102CD000BDFA06E00548844203D10121C803FFF78D
:102CE000B5FA10BD0024014000280140003C01401D
:102CF00010B501210846FFF7A9FA10BD38B5102418
:102D000003208DF802008DF8034005488088ADF857
:102D10000000034908686946FFF75CF900BF38BD49
:102D2000E04900080349086000BF0249096800291A
:102D3000FBD170472C00002010B5044607488442A0
:102D400004D101210846FFF761FA06E004488442F5
:102D500003D101210220FFF759FA10BD0000024003
:102D60000004024001460879014A32F81000704719
:102D7000740F002001480068704700002800002000
:102D800038B504460D4603208DF802008DF8035037
:102D9000A088ADF8000069462068FFF71BF938BD30
:102DA00038B504460D4603208DF802008DF8035017
:102DB000A088ADF8000069462068FFF70BF938BD20
:102DC00038B504460D4603208DF802008DF80350F7
:102DD000A088ADF8000069462068FFF7FBF838BD11
:102DE00038B504460D4603208DF802008DF80350D7
:102DF000A088ADF8000069462068FFF7EBF838BD01
:102E000038B504460D4603208DF802008DF80350B6
:102E1000A088ADF8000069462068FFF7DBF838BDF0
:102E200010B50446A1882068FFF7A8F910BD10B5B9
:102E30000446A1882068FFF7A1F910BD10B504462B
:102E4000A1882068FFF79CF910BD10B50446A18841
:102E50002068FFF795F910BD10B5044600BFA188A2
:102E60002068FFF78DF900BF10BD00002DE9FC5F61
:102E700004460D464FF496694FF4967A4FF07E5013
:102E80000190002629490988294A1288891A05D5FE
:102E900027490988254A1288891A04E023490988A4
:102EA000234A1288891A084601F008FC80464FF030
:102EB0007E5101F04FFC07461E4901F017FC14D269
:102EC000281B01F0FBFB1B49009001F019FB834616
:102ED000194901F03FFC80464FF07E5101F03AFC69
:102EE000074601F0CFFB06B206E0A54201DD6420F3
:102EF00001E06FF063000646334610A20521002072
:102F000000F0D4FD32460DA10F4801F076FA0F48CB
:102F100000880F490988401A7043642190FBF1F042
:102F20000B4909880844BDE8FC9F00009407002075
:102F300092070020000061440000C8425455524EE0
:102F40003A2025640A200000340000209007002069
:102F50008E07002010B500241A4800881A490988F5
:102F6000401A05D51848008816490988401A04E017
:102F70001448008814490988401A40B11248018851
:102F800010480088FFF772FF1049088019E01048C8
:102F9000008810490988401A05D50E4800880C4958
:102FA0000988401A04E00A4800880A490988401A3A
:102FB00038B10848018806480088FFF757FF0349E1
:102FC000088010BD92070020940700209A07002077
:102FD000960700209807002010B50A48FFF7C2FEA8
:102FE000094908800948FFF7BDFE094908800948DA
:102FF000FFF7B8FE084908800848FFF7B3FE084904
:10300000088010BD380700209207002040070020EC
:103010009407002048070020960700205007002052
:10302000980700201FB500F0A5F900F085FF00F01B
:10303000BDF83948FFF782FD3848FFF77FFD384873
:10304000FFF77CFD3748FFF779FDFFF7D1FDFFF76C
:1030500055FE3548038841F2883240F21F1133484B
:1030600000F0BCF94FF6E0704FF4784300224FF6C1
:10307000FF710090104600F0A7FC4FF4E1312C489E
:1030800001F046F846E000BFFFF774FE29490968E1
:103090008842F9D0FFF76EFE2649086008460068AE
:1030A00025490968401A192834D322480068224962
:1030B00008602248FFF7D0FE00F0B6FBFFF78CFF58
:1030C000FFF748FF1E480188184800F07FF91C48A8
:1030D00000881C4909881C4A12881C4B1B88CDE9B2
:1030E0000032CDE902101A4803881AA200210846CE
:1030F00000F0DCFC00F03EFE12480088124909880E
:10310000CDE90010114803881148028818A1084829
:1031100001F073F9B7E700003807002040070020EE
:1031200048070020500700208E070020684900084B
:10313000340000209C070020A0070020F84F000862
:103140009A07002098070020960700209407002087
:1031500092070020464C25642046522564200A42EE
:103160004C256420425225640A4F433A20256400CE
:10317000464C3A2564202046523A25640A20424CA7
:103180003A25642042523A25640A000010B5002214
:103190008021104600F03CF94FF4806403E00020E9
:1031A00001F060F9641E002CF9D110BD08B50020B3
:1031B0004FF482734FF44042014600902E4800F0D5
:1031C0003FF910212D48FFF71BFE10212C48FFF777
:1031D00017FE00F0E7F8AE2001F02EF9D52001F03F
:1031E0002BF9802001F028F9A82001F025F93F20D3
:1031F00001F022F9D32001F01FF9002001F01CF9A1
:10320000402001F019F98D2001F016F9142001F089
:1032100013F9A12001F010F9C82001F00DF9DA200E
:1032200001F00AF9122001F007F9812001F004F9F8
:10323000CF2001F001F9D92001F0FEF8F12001F0D2
:10324000FBF8DB2001F0F8F8402001F0F5F8202031
:1032500001F0F2F8002001F0EFF8A42001F0ECF802
:10326000A62001F0E9F8AF2001F0E6F86420FFF7AE
:1032700059FDFFF78BFF08BD64000020E84A0008F5
:10328000F04A00088268118070472DE9F04188B04B
:1032900007460C4615461E46DDF83880384600F0D5
:1032A0008DFE0020ADF81600ADF81A008DF81C0058
:1032B000ADF81450ADF8186005A93846FFF7FAFAD2
:1032C0000020ADF80C00ADF80E006020ADF8040051
:1032D0000020ADF81000ADF812000120ADF8060096
:1032E0000420ADF80800ADF80A80207830B101283C
:1032F0000DD0022814D0032824D11AE001A93846A1
:10330000FFF77AF901213846FFF7C2F91AE001A95F
:103310003846FFF7C7F901213846FFF715FA11E0E3
:1033200001A93846FFF71EFA01213846FFF76AFA6D
:1033300008E001A93846FFF76FFA01213846FFF788
:10334000A9FA00BF00BF18216068FFF719FD01212D
:103350003846FFF729F901213846FFF731F90021F6
:103360003846FFF7A4FA01213846FFF735F908B0CF
:10337000BDE8F08110B5FFF7BBFC01210420FEF78A
:1033800065FF01210820FEF761FF01211020FEF7F3
:103390005DFF01212020FEF759FF01214020FEF7AB
:1033A00055FF10BD10B50848FFF74FFD6420FFF72B
:1033B000B9FC0548FFF73BFD6420FFF7B3FC02486A
:1033C000FFF743FD10BD0000E84A000870B5044651
:1033D0000D4629462046FFF755FF70BDF8B5044657
:1033E0000D4616461F4633462A4621464FF080407A
:1033F0000097FFF74AFF01210348FEF777FE0121FE
:103400000248FEF773FEF8BD00023000000318000A
:1034100070B506460C461546212001F00DF83046E1
:1034200001F00AF8611EC8B201F006F8222001F08E
:1034300003F8284601F000F8072000F0FDFF70BDFA
:103440002DE9F04186B004460F4615461E46DDF8CC
:103450003080206800F04AF918216068FFF7B0FC5E
:1034600005F4004048B1B6F5827F01D1A16800E0C3
:10347000E16808461821FFF7A3FC05F4404048B175
:10348000B6F5827F01D1E16800E0A1680846182105
:10349000FFF796FC206901287ED020690228FBD026
:1034A00020690428F8D020690828F5D06A492069E5
:1034B0008842F1D06849203120698842ECD06749C0
:1034C00020698842E8D0654980312069884263D00C
:1034D0006349206988425FD06249206988425BD095
:1034E00061492069884257D060492069884253D099
:1034F0005F49206988424FD02069B0F5805F4BD08A
:103500002069B0F5EA1F7CD02069B0F5EB1F78D0B8
:103510002069B0F5004F74D056492069884270D0B8
:10352000491C206988426CD0891C2069884268D077
:10353000091D2069884264D04E490F3120698842B4
:103540005FD02069B0F1201F5BD04FEAF1312069D4
:10355000884256D048492069884252D0474920695C
:1035600088424ED04649206988424AD04549206960
:10357000884246D044492069884242D02069B0F54B
:10358000011F3ED04149206988423AD0491C206938
:10359000884236D0891C00E033E02069884230D070
:1035A000091D206988422CD038490F312069884292
:1035B00027D036491F312069884222D033493F3114
:1035C000206988421DD031497F312069884218D056
:1035D0002E49FF312069884213D02D492069884245
:1035E0000FD02C49206988420BD02B492069884292
:1035F00007D02A492069884203D029492069884296
:1036000003D101212069FEF771FDADF80450ADF83A
:103610000660ADF808800220ADF80A000120ADF880
:103620000C004002ADF80E00ADF810700020ADF8AF
:10363000120001A92068FEF7D5FE01212068FEF7DF
:1036400093FE00212068FEF783FE00212068FEF72C
:10365000E7FE06B0BDE8F08110001400400016003F
:1036600000011800000218000003180000081A00EA
:10367000000C1A00010020000001300000023000A0
:103680000004300000112000002020000100008014
:10369000000200800004008000080080001000800C
:1036A0000020008070B5044660212068FEF77BFE94
:1036B00068B12068FEF791FE0546606910B1E8B276
:1036C0006169884760212068FEF75AFE0DE071218C
:1036D0002068FEF768FE40B1A06910B1A1692068BA
:1036E000884771212068FEF74BFE70BD10B5044677
:1036F0000B48844204D101218014FEF7A7FD0EE09F
:103700000848844204D101210014FEF78FFD06E031
:103710000548844203D10121C013FEF787FD10BD87
:103720000030014000380040003C004070B50446C5
:103730000D4600BF02212068FEF72CFE0028F9D0BC
:1037400029462068FEF74CFE70BD000010B5024609
:103750003048007800EBC00303EB00102E4B03EB66
:10376000C00002EB820300EB4300405C2B4B1B7854
:1037700003EBC30404EB0313274C04EBC30302EB7A
:10378000820403EB44035B5C98423FD121480078FC
:1037900000EBC00303EB0010214B03EB001002EB26
:1037A000820300EB830030F811001C4B1B7803EB05
:1037B000C30404EB03131A4C04EB031302EB82045F
:1037C00003EB840333F8113098421FD1114800787D
:1037D00000EBC00303EB0010124B03EB001002EBF5
:1037E000820300EB830030F811000C4B1B7803EBD5
:1037F000C30404EB03130B4C04EB031302EB82042E
:1038000003EB840333F81130984201D0012010BD3E
:103810000020FCE792060020A40700209306002069
:1038200034090020540C002010B5002006490880FF
:10383000002404E0204600F00BF8601CC4B20348EA
:1038400000788442F6DB10BD8C0600209106002033
:1038500010B50146002032E020221B4B1B7803EB01
:10386000C30404EB0313194C04EBC30300EB800403
:1038700003EB44035A54164A1288134B1B7803EB8C
:10388000C30404EB0313134C04EB031300EB800499
:1038900003EB840323F811200F4A12880A4B1B788C
:1038A00003EBC30404EB03130C4C04EB031300EB16
:1038B000800403EB840323F81120421CD0B2084A91
:1038C00012789042C8DB10BD92060020A4070020A9
:1038D000840600203409002080060020540C0020BB
:1038E0009006002010B5002423E01549085D00F083
:1038F00007FB1348005D362805D11249124A127899
:10390000885C00F00BFB0EE00D48005DFF2806D13F
:10391000611C0C460A4A505CFFF704FA03E00849B0
:10392000085D00F0FBFA601C04460549085C43286A
:10393000EAD1601C04460249085C4228D5D110BD7A
:10394000304A0008A14A00088A06002001200149E7
:10395000087070478B06002070B505460F4908783F
:1039600000EBD0714910A0EB410131B18023A022BE
:103970000021084600F08AF905E0A02380220021FA
:10398000084600F083F9002403E0284600F0AEFA70
:10399000641CB4F5A04FF8D370BD00008A06002067
:1039A00007480088401C06490880084600880549E9
:1039B0000978884202DB0020014908807047000036
:1039C0008C060020910600202DE9F04104460D46AA
:1039D00016461F46DDF8188000202C4908802C4927
:1039E000087001202B4908702B48047001460878A4
:1039F00000EBD0714910A0EB410109B1012100E0B9
:103A00000221264A11702449087800EBD071491030
:103A1000A0EB410109B1022100E00121204A11700F
:103A200000F08EF900F068F8FFF75CFF284600F020
:103A300073F8304600F07EF9384600F075F94046DC
:103A400000F01EF92846FFF787FF204604EBD071EF
:103A50004910A4EB410109B1142100E01021114AE1
:103A60001170204604EBD0714910A4EB410109B15B
:103A7000082100E00A210C4A1170FFF767FFFFF7E9
:103A8000D3FE00F077F9BDE8F08100008C0600203D
:103A900092060020930600208A0600208806002057
:103AA0008906002090060020910600200FB430B552
:103AB000C1B004460D460E480078844203DA0D4832
:103AC0000078854203DB41B030BC5DF814FB47A8A9
:103AD000009001A8009A4699FCF7ECFB00200090AA
:103AE00001AA2946204600F01DF800BFEBE70000C0
:103AF000900600209106002010B50648FFF790F9C7
:103B00006420FFF70FF90348FFF798F96420FFF7E7
:103B100009F910BD204A00080149088070470000DB
:103B2000800600202DE9F05F0746884614463D4692
:103B300046464FF0000AD346D1467CE020785D2807
:103B400016D006DC0A280CD00D2809D05B2828D115
:103B50000DE07B2814D07C281BD07D2821D110E0DB
:103B600000BF701CC6B20025FFF71AFF61E000BF5E
:103B700020785B2801D1012000E00020824658E037
:103B800000BF20787B2801D1012000E0002083467F
:103B90004FE0B9F1000F01D1012000E00020814683
:103BA00047E02078B9F1000F01D0802100E000212A
:103BB00008432849097801EBC10202EB0111264AAA
:103BC00002EBC10105EB850201EB42018855BAF118
:103BD000000F02D02148008801E0214800881D49DB
:103BE000097801EBC10202EB01111E4A02EB01113F
:103BF00005EB850201EB820121F81600BBF1000FF5
:103C000002D01948028801E018480288114800785B
:103C100000EBC00101EB0010154901EB0013284631
:103C2000691CCDB200EB800003EB800020F8162069
:103C300000BF00BF641C207840B10E480078854268
:103C400004DA0D4800788642FFF678AF0B4805800D
:103C5000BDE8F09F92060020A40700208606002001
:103C600084060020340900208206002080060020FF
:103C7000540C002090060020910600208E060020A3
:103C80000149088070470000820600202DE9F05F9E
:103C900004460D4692469B4626462F4604EB0A00F4
:103CA0001FFA80F805EB0B001FFA80F91C4800781A
:103CB000304486B21B480078384487B218480078F0
:103CC00040441FFA80F81748007848441FFA80F9EA
:103CD0002A2000F015F9300A00F020F9F0B200F0C7
:103CE0001DF94FEA182000F019F908F0FF0000F064
:103CF00015F92B2000F004F9380A00F00FF9F8B29A
:103D000000F00CF94FEA192000F008F909F0FF0063
:103D100000F004F92C2000F0F3F8BDE8F09F00005B
:103D200088060020890600200149088070470000AD
:103D300086060020014908807047000084060020A4
:103D400008B500204FF482734FF4404201460090C2
:103D50000548FFF775FB10210448FFF741F81021D3
:103D60000348FFF73DF808BD64000020204A000822
:103D7000284A00082DE9F05F00250027A846524890
:103D8000007808B9BDE8F09F002686E000247DE0B9
:103D900031462046FFF7DAFC002875D0012501E006
:103DA000681C05B2601949490978884206DA611928
:103DB000C8B23146FFF7CAFC0028F1D10123C3EB9A
:103DC000C5039AB23101E0000F23FFF75FFF4FF008
:103DD000000853E03E48007800EBC00101EB001002
:103DE0003C4901EBC000E11901EB810100EB41000E
:103DF000805D2038384901EB001A4FF0080930E0A7
:103E00001AF80800A9F10101084100F0010080B191
:103E10002F48007800EBC00101EB00102F4901EBA7
:103E20000010E11901EB810100EB810030F8160070
:103E30000FE02748007800EBC00101EB0010284993
:103E400001EB0010E11901EB810100EB810030F87A
:103E500016008346584600F049F8A9F1010000F029
:103E6000FF09B9F1000FCBDC781CC0B20746A842AD
:103E700004D1002708F1010000F0FF08B8F1100F8D
:103E8000A8DB681E2044C4B2601CC4B20F4800788E
:103E90008442FFF67DAF701CC6B21248007886429D
:103EA000FFF674AF0A48007808B9012000E000204E
:103EB000074908700C48007808B9012000E000208C
:103EC0000949087000BF5DE78B06002090060020BE
:103ED00092060020A4070020800000203409002062
:103EE000540C0020910600209306002010B50446D3
:103EF000201200F013F8E0B200F010F810BD00003E
:103F000010B504460348FEF78BFF21460248FFF731
:103F10000DFC10BD284A00086400002010B50446BE
:103F20000348FEF78BFF21460248FFF7FFFB10BD59
:103F3000284A00086400002038B500208DF80100F0
:103F40008DF8020001208DF80300FF208DF800009D
:103F50006846FEF717F9154800684FF47A72B0FB0F
:103F6000F2F1481EB0F1807F00D31BE0481E4FF0F5
:103F7000E022506150170F22002804DB13071C0EAB
:103F80000B4B1C5406E013071D0E0A4B00F00F04E8
:103F9000241F1D5500BF00204FF0E0229061072034
:103FA000106100BF00200449086038BD14000020E3
:103FB00000E400E018ED00E02800002010B5044601
:103FC0004348844204D10121C014FEF73FF97EE04A
:103FD0004048844204D101214014FEF737F976E0CD
:103FE0003D48844204D101210804FEF72FF96EE018
:103FF0003A48844204D101214804FEF727F966E0DB
:104000003748844204D101218804FEF71FF95EE09D
:104010003448844204D10121C804FEF717F956E060
:104020003148844204D101210805FEF70FF94EE022
:104030002E48844204D101214805FEF707F946E0E5
:10404000B4F1804F04D101210846FEF7EFF83EE0BD
:104050002748844204D101210220FEF7E7F836E028
:104060002448844204D101210420FEF7DFF82EE029
:104070002148844204D101210820FEF7D7F826E028
:104080001E48844204D101211020FEF7CFF81EE023
:104090001B48844204D101212020FEF7C7F816E016
:1040A0001848844204D101214020FEF7BFF80EE0F9
:1040B0001548844204D101218020FEF7B7F806E0BC
:1040C0001248844203D101218015FEF7AFF810BDDC
:1040D000002C0140003401400040014000440140F8
:1040E00000480140004C0140005001400054014094
:1040F0000004004000080040000C00400010004098
:104100000014004000180040001C00400020004047
:104110007FB504460D46206800F028F91821606834
:10412000FEF73EFE0421A068FEF73AFE6069012812
:104130007ED060690228FBD060690428F8D06069ED
:104140000828F5D0624960698842F1D06049203181
:1041500060698842ECD05F4960698842E8D05D4977
:10416000803160698842E3D05B49606988425FD0F2
:104170005A49606988425BD059496069884257D082
:1041800058496069884253D05749606988424FD086
:104190006069B0F5805F4BD06069B0F5EA1F7CD0F4
:1041A0006069B0F5EB1F78D06069B0F5004F74D04E
:1041B0004E496069884270D0491C606988426CD061
:1041C000891C6069884268D0091D6069884264D092
:1041D00046490F31606988425FD06069B0F1201FA5
:1041E0005BD04FEAF1316069884256D0404960693E
:1041F000884252D03F49606988424ED03E4960694A
:1042000088424AD03D496069884246D03C4960694D
:10421000884242D06069B0F5011F3ED039496069DB
:1042200088423AD0491C6069884236D0891C00E037
:1042300033E06069884230D0091D606988422CD023
:1042400030490F316069884227D02E491F3160699B
:10425000884222D02B493F31606988421DD02949CC
:104260007F316069884218D02649FF3160698842F1
:1042700013D02549606988420FD02449606988427B
:104280000BD023496069884207D02249606988427F
:1042900003D021496069884203D101216069FDF79B
:1042A00025FF00950020ADF80400ADF80600ADF83C
:1042B0000800ADF80C000C20ADF80A006946206833
:1042C000FEF7ACFB01212068FEF765FB7FBD000017
:1042D0001000140040001600000118000002180031
:1042E0000003180000081A00000C1A00010020004A
:1042F00000013000000230000004300000112000F6
:1043000000202000010000800002008000040080E6
:1043100000080080001000800020008070B5044676
:1043200040F225512068FEF74FFB70B12068FEF780
:10433000E1FB0546E06810B1E8B2E168884740F269
:1043400025512068FEF718FB0EE040F22771206827
:10435000FEF73AFB40B1206908B12069804740F27E
:1043600027712068FEF708FB70BD000010B50446F9
:104370001348844204D101218803FDF767FF1EE042
:104380001048844204D101214804FDF74FFF16E094
:104390000D48844204D101218804FDF747FF0EE057
:1043A0000A48844204D10121C804FDF73FFF06E01A
:1043B0000748844203D101210805FDF737FF10BDEE
:1043C000003801400044004000480040004C0040DC
:1043D0000050004070B504460D46206900B170BD24
:1043E00000BF40212068FEF7E2FA0028F9D02946F4
:1043F0002068FEF784FB00BFF1E70FB430B5C1B011
:104400000546286918B141B030BC5DF814FB46A8D8
:1044100040906846409A4599FBF74CFF0020409039
:104420006C4604E014F8011B2846FFF7D3FF207800
:104430000028F7D100BFE6E710B504460748FEF7AD
:10444000F6FC00BF06480068008900F00200002862
:10445000F8D003480068848110BD0000F04A0008CD
:104460006400002010B504460748FEF7EEFC00BFCC
:1044700006480068008900F002000028F8D00348D0
:104480000068848110BD0000F04A0008640000202C
:1044900010B500290AD00878002807D005487844CC
:1044A000FCF73AFF002801D0002010BD02487844F4
:1044B00010BD00007E0C0000760C000010B5002935
:1044C0000AD00878002807D005487844FCF724FF74
:1044D000002801D0002010BD0248784410BD000023
:1044E0006E0C0000660C0000401058BFC0F1404048
:1044F000491058BFC1F140418142EFF3008070473D
:104500004FF47F0C1CEAD0121EBF1CEAD11392EAB2
:104510000C0F93EA0C0F00F0858090EA010F48BF62
:1045200042F4807240F4000C41F400002CF07F4112
:1045300020F07F4000B58142A2EB03020FF2081C7D
:10454000ACEB504EC0F100009EF800E04FEA4E0E7A
:1045500000FB0EFC38BF49004FEA2C1C02F5FA02A2
:104560000CFB0EF34FEACE1E4FEA112C4FEAC1218D
:104570000EEB635E42EB22420EFB0CFC4FEA1C5337
:1045800000FB03114FEA112C4FEA01310EFB0CFC2A
:104590004FEADC4C00FB0C11C14228BF09184CEB60
:1045A00003335DF804EB10EB410143EBC250B2F56D
:1045B0007C0F38BF704729D512F0F00F1CBF00F1F7
:1045C000C04000F000407047008182838485868768
:1045D00088898B8C8D8E8F919293959697999A9CC2
:1045E0009D9FA0A2A3A5A7A8AAACAEB0B2B3B5B731
:1045F000B9BCBEC0C2C5C7C9CCCED1D4D7D9DCDF07
:10460000E2E6E9ECF0F3F7FAFE0000004FEA400CB6
:104610000CF1807CBCF17E4F28BF7047B0F1C040E8
:1046200000F05FB990EA010F0CEAD11348BF42F4E1
:104630008072624538BF634507D213F47F0F16D0EE
:1046400080EA010000F00040704710B500F003F967
:10465000097EFC3E00F005B880EA010000F0004051
:10466000704780EA010000F0004000F03AB912F40F
:104670007F0F04BF0248704780EA010000F031B9A3
:104680000000C07F41000B0ED3F19E0208D950F408
:1046900000034FEA032323FA02F048BF4042704769
:1046A00010B500F0D8F800BF499224800020704770
:1046B0006FF0004282EA20007047000010F00041D5
:1046C00048BF4042B0FA80F310FA03F2C3F19D03F1
:1046D0000BD051EAC35101EB1220530638BF70478B
:1046E00000F1010008BF20F00100704750EA010C02
:1046F00000F113801CF5000F58BFBCF5000F01D46A
:104700008842704707D710F5000F58BF11F5000F0A
:1047100015D488427047894270471CF5000F04D5B4
:10472000BCF5000FF7D5814270474FF0807C1CEB41
:10473000400F38BF1CEB410F01D28142704710B5CA
:1047400000F089F8922449004FF000504FF080515A
:10475000FFF7CABE4FF47F0C1CEAD0121EBF1CEA42
:10476000D11392EA0C0F93EA0C0F00F0478090EA05
:10477000010F48BF42F480724FF0004C4CEA002019
:104780004CEA012102EB0302A0FB0113A2F5000297
:10479000002918BF43F001035B0028BF4FEA330331
:1047A00042EB22425FEA132C4CEBC2502EBFBCEB13
:1047B000436FB2F57C0F70474FEA036CBCF1004FBA
:1047C00008BF20F00100B2F57C0F38BF70470BD551
:1047D00082F0FF0212F5803FC8BF704700F1C04071
:1047E000D8BF00F00040704700F5000C5FEA4C0CA9
:1047F00048BF7047B0F1C04000F073B890EA010FB5
:104800000CEAD11348BF42F48072624538BF634559
:1048100004D280EA010000F00040704710B500F0BB
:104820001AF800BF8900013E00F007B800F009B88F
:104830005FEA410C5FEA1C6C08D080EA010000F0DE
:1048400050B85FEA400C5FEA1C6CF6D14FF00040B4
:10485000A0F5800070470EF1020E2EF0030E5EF8F8
:10486000044B244204D44FEA4102B2F17F4F11D8E5
:104870004FEA4003B3F17F4F0CD80ED14FEAD07C02
:10488000B2F17F4F0CEB4C0C0CF1020C08BF4CEB5F
:10489000D17C04E04FF0080C01E04FEAD17C0CEB36
:1048A0004C0324FA03F404F00704B4F1040C06D218
:1048B0000EEB840CBDE810404CF0010C6047DFE8C3
:1048C0000CF0070802024FF00040A0F5800010BD78
:1048D0000846420018BFD2F1807288BF00F0004045
:1048E00010BDFF2141EAD050C0057047FCF721B947
:1048F000FCF756BA00080140010000000008014022
:10490000020000000008014004000000000801400F
:1049100008000000000801400001000000080140FC
:1049200000800000000C014000040000000C014069
:1049300000080000001001400800000000100140C5
:104940004000000000100140800000000010014005
:104950000001000000100140000200000000000003
:104960001C49000834000040030000002C490008E6
:104970004000004002000000244900083C000040C4
:10498000000000003C49000834040040344900089D
:1049900001000000444900083804004014490008A0
:1049A000020000004C4900083C0400405449000843
:1049B00000000000F4480008340C00400100000032
:1049C000FC480008380C00400200000004490008C0
:1049D0003C0C0040030000000C490008400C004063
:1049E000001001400100000000080140000200002A
:1049F0000008014000040000001001400004000015
:104A00000010014000080000000C014000200000E0
:104A1000000C014000400000000C0140008000003C
:104A2000000C014000100000000C0140004000009C
:104A30000011FF0A43B1012C2D43B2012C2D43B3C9
:104A4000012C2D012C2D43B40743C0A2028443C185
:104A5000C543C20A0043C38A2A43C48AEE43C50E33
:104A6000433643E00F1A0F182F2820221F1B23372D
:104A70000007021043E10F1B0F17332C292E303093
:104A8000393F00070310432A0000007F432B00003A
:104A9000009F43F00143F600433A054329432C436A
:104AA00042C0A000600000000008014001000000BA
:104AB000000801400200000000080140040000005E
:104AC000000801400800000000080140100000003C
:104AD00000080140200000000008014040000000E4
:104AE0000008014080000000000C014000100000A0
:104AF000000C01400040000000000000003E5B4F41
:104B00005B3E3E6B4F6B3E1C3E7C3E1C183C7E3C2D
:104B1000181C577D571C1C5E7F5E1C00183C18003B
:104B2000FFE7C3E7FF0018241800FFE7DBE7FF30CB
:104B3000483A060E2629792926407F050507407F39
:104B400005253F5A3CE73C5A7F3E1C1C08081C1CAC
:104B50003E7F14227F22145F5F005F5F06097F01A2
:104B60007F006689956A606060606094A2FFA2948D
:104B700008047E040810207E201008082A1C08085B
:104B80001C2A08081E101010100C1E0C1E0C3038A9
:104B90003E3830060E3E0E06000000000000005FAA
:104BA00000000007000700147F147F14242A7F2AC6
:104BB0001223130864623649562050000807030088
:104BC000001C2241000041221C002A1C7F1C2A08D4
:104BD000083E080800807030000808080808000037
:104BE00060600020100804023E5149453E00427FAB
:104BF000400072494949462141494D331814127FFA
:104C00001027454545393C4A494931412111090799
:104C10003649494936464949291E0000140000001A
:104C200040340000000814224114141414140041EC
:104C300022140802015909063E415D594E7C1211A9
:104C4000127C7F494949363E414141227F414141E1
:104C50003E7F494949417F090909013E414151735C
:104C60007F0808087F00417F41002040413F017FCD
:104C7000081422417F404040407F021C027F7F0495
:104C800008107F3E4141413E7F090909063E4151DE
:104C9000215E7F09192946264949493203017F01CE
:104CA000033F4040403F1F2040201F3F4038403FCF
:104CB000631408146303047804036159494D4300E5
:104CC0007F4141410204081020004141417F04021C
:104CD00001020440404040400003070800205454B3
:104CE00078407F2844443838444444283844442891
:104CF0007F385454541800087E090218A4A49C78E4
:104D00007F0804047800447D40002040403D007F3F
:104D10001028440000417F40007C047804787C081F
:104D20000404783844444438FC18242418182424F3
:104D300018FC7C08040408485454542404043F44D8
:104D4000243C4040207C1C2040201C3C4030403C07
:104D500044281028444C9090907C4464544C440067
:104D600008364100000077000000413608000201CB
:104D70000204023C2623263C1EA1A161123A4040B7
:104D8000207A385454555921555579412254547834
:104D900042215554784020545579400C1E527212CD
:104DA0003955555559395454545939555454580056
:104DB00000457C410002457D420001457C407D125A
:104DC00011127DF0282528F07C54554500205454BC
:104DD0007C547C0A097F4932494949323A44444467
:104DE0003A324A4848303A4141217A3A42402078A2
:104DF000009DA0A07D3D4242423D3D4040403D3CA3
:104E000024FF2424487E4943662B2FFC2F2BFF09C7
:104E100029F620C0887E09032054547941000044BB
:104E20007D413048484A32384040227A007A0A0AA6
:104E3000727D0D19317D2629292F28262929292619
:104E400030484D4020380808080808080808382F5E
:104E500010C8ACBA2F102834FA00007B00000814E8
:104E60002A142222142A14085500550055AA55AABE
:104E700055AAFF55FF55FF000000FF00101010FF5E
:104E800000141414FF001010FF00FF1010F010F0B9
:104E9000141414FC001414F700FF0000FF00FF14AA
:104EA00014F404FC141417101F10101F101F1414F6
:104EB000141F00101010F0000000001F1010101040
:104EC0001F10101010F010000000FF101010101034
:104ED00010101010FF10000000FF140000FF00FF72
:104EE00000001F10170000FC04F41414171017140E
:104EF00014F404F40000FF00F71414141414141430
:104F0000F700F7141414171410101F101F141414A2
:104F1000F4141010F010F000001F101F0000001F0C
:104F200014000000FC140000F010F01010FF10FF3F
:104F3000141414FF141010101F00000000F010FFD4
:104F4000FFFFFFFFF0F0F0F0F0FFFFFF00000000B8
:104F500000FFFF0F0F0F0F0F3844443844FC4A4A3C
:104F60004A347E02020606027E027E0263554941F1
:104F7000633844443C04407E201E2006027E020228
:104F800099A5E7A5991C2A492A1C4C7201724C303C
:104F90004A4D4D303048784830BC625A463D3E4913
:104FA0004949007E0101017E2A2A2A2A2A44445FB7
:104FB000444440514A444040444A51400000FF01AB
:104FC00003E080FF000008086B6B083612362436B9
:104FD000060F090F0600001818000000101000301E
:104FE00040FF0101001F01011E00191D1712003CA6
:104FF0003C3C3C00000000000010014002000000AA
:105000000000000000000000303132333435363704
:1050100038394142434445464030580030313233FC
:1050200034353637383961626364656640307800FC
:105030000400000800000000000000020001000061
:105040001030313233343536373839616263646554
:105050006678700030313233343536373839414272
:10506000434445465850000002400000000000A0A4
:105070000000000005400000000000C80000000023
:105080000C4000000000409C00000000194000009F
:105090000020BCBE0000000034400000BFC91B8ED1
:1050A00000000004B5400000504BCFD06607E2CFAF
:1050B000010000006C4100003E8251AADFEEA734DF
:1050C00001000000D9420000DCB5A0E23A301F9791
:1050D000FFFFFFFFB4450000FD25A0C8E9A3C14FB5
:1050E000FFFFFFFFFF3F0000000000800000000006
:1050F000FF3F000000000080000000004852000850
:1051000000000020A4070000280100081456000831
:10511000A4070020940E0000840100081C00000079
:1051200043000000F8FFFFFF0C0000000E0000002D
:105130000F0000002E0000001001000043000000DE
:10514000F8FFFFFF004040404040404040404141A8
:10515000414141404040404040404040404040404C
:1051600040404040400502020202020202020202E6
:1051700002020202022020202020202020202002E3
:105180000202020202029090909090901010101073
:10519000101010101010101010101010101010100F
:1051A00002020202020288888888888808080808A3
:1051B000080808080808080808080808080808086F
:1051C0000202020240000000000000000000000097
:1051D00000000000000000000000000000000000CF
:1051E00000000000000000000000000000000000BF
:1051F00000000000000000000000000000000000AF
:10520000000000000000000000000000000000009E
:10521000000000000000000000000000000000008E
:10522000000000000000000000000000000000007E
:10523000000000000000000000000000000000006E
:105240000000000000000000412D010203040410D2
:1052500009060708090204060884A24A046918D14D
:1052600016380140E8491B08F004D112482B40F8D9
:10527000148A4A1812101A1430111B4008141A10FC
:10528000049A181C01161008183C3C3C18181819F0
:105290000341E5666666243D6C6CFE6C04392E584D
:1052A0000B187CC6C2C07C0686C67C31215809C258
:1052B000C60C183060C686AD500A6C6C3876DCCCF3
:1052C000CCCC76D530303060192C390163180C19EC
:1052D000093901931830AE663CFF3C66A37B187E0B
:1052E0006D89149931110A11FED879322B0206A06A
:1052F00063C080580B7CC6C6CED6D6E6C6C67C2810
:105300001B38784C19016A7E20492F5AC65419104F
:105310006E063C060606301F0C1C3C6CCCFEB15AD7
:105320001E7B8EC0C0C0FC0E201B3860101AC60148
:1053300059101AFE4049F479802AC6046920290CC4
:105340001A7E60BB0C78BA99F1591069EF399FA5A4
:1053500030180C0619AB59AE31391C292479601A62
:105360000CDE895119115EDEDEDEDCC0802F1038C4
:105370006CC6C6FE91611EFC6666667C046366FCB4
:105380001C3C66C2E265C0C2663C2BF86C1D5D66C3
:10539000666CF87C58096662687868606266825953
:1053A000109C6060F04066DEC6C6663A296A396FB6
:1053B00059701A3C9D390159602B1E0C0165CCCCEB
:1053C000CC781FE6666C6C78787562E61AF05B192B
:1053D0000179709EC6EEFEFED6508FC6E6F6FEDE62
:1053E000CE1029DF29019B6C38E0294259A04A7C64
:1053F0001F7ED6DE7C0C0E2029E45970192060082F
:1054000060380C06C6C67CBC7E7E5AB0493F190186
:105410005920590E9C6C3810106ED6D6FE6C6C104C
:105420001E6C6C38386C9661196A9B663C50580A41
:10543000FEC6860C183060C2C6E05B3C30015920C5
:1054400011580A80C0E070381C0E0602205A0C0168
:1054500039201A10EF011922FF04123030186008A9
:10546000780C7CCCCCCC762EE06060786C9592DCAD
:105470006E7CC6C0C0C0E01A1C6A1A6C2F69303935
:10548000208AFE201F386C6460F0600192F02A765A
:105490002F4ECC7C0CCC78602B6C766062E61318B7
:1054A000181A38FE5B1818E01306063B0E06012B8F
:1054B00066661319301C666C78935930492D893013
:1054C000312CECFED601912ADC5F9B6666A0290197
:1054D00059A079207A7CA369A05B0C1E20BB766260
:1054E000C06E7CC660380C401E103030FC3001931A
:1054F000361C393F93CC76395F933C18197D8DD695
:10550000D6FE6C10AF6C3838386CC6201901657E39
:10551000060CF86008FECC183060C6FE1A0EEB2AA6
:1055200070F0620E290B39055960291C29245B187B
:1055300070CDC2DCCAFF0101161211101E124617EF
:10554000201814192F1A1E320429142C1E2A044262
:105550007F4D0963E064FF6520661267101413F045
:105560000D810FC5142122FF23012434253C26A1DF
:105570002B101E6BAA13FF695D900A910192019393
:1055800001945F95539611971A983D995A9A1E9BCC
:1055900010329C25A765A8659E81A6067E0C7F1605
:1055A000802A814E8261836F847B8586868E879771
:1055B00088A489AF8AC58BD78CE88D20A980AA8062
:1055C000ACFF3316229923034A100E491347084BA8
:1055D000144C1746050CD00E824D13A84A33080F01
:1055E0002AB00822012AB80822022AC00822032A67
:1055F000C80822042AD00822052AD80822062AE050
:105600000872077A10F05112A01C1D019A4C617AA1
:045610001D0A00006F
:04000005080000ED02
:00000001FF
