:020000040800F2
:1000000030160020750200087D0200087F020008FB
:100010008102000883020008850200080000000039
:10002000000000000000000000000000870200083F
:1000300089020008000000008B020008C1210008AE
:100040008F0200088F0200088F0200088F0200084C
:100050008F0200088F0200088F0200088F0200083C
:100060008F0200088F0200088F020008B11B0008F1
:100070008F0200088F0200088F0200088F0200081C
:100080008F0200088F020008391B00088F02000849
:100090008F0200088F0200088F0200088F020008FC
:1000A0008F0200088F0200088F0200088F020008EC
:1000B0008F0200088F0200088F0200088F020008DC
:1000C0008F0200088F0200088F0200088F020008CC
:1000D000E11F0008A52600088F020008B5260008C9
:1000E000191C00088F0200088F02000800F002F8B7
:1000F00000F0B0F80AA090E8000C82448344AAF112
:100100000107DA4501D100F0A5F8AFF2090EBAE80F
:100110000F0013F0010F18BFFB1A43F0010318473B
:10012000E8480000084900000A444FF0000C10F8AD
:10013000013B13F0070408BF10F8014B1D1108BF65
:1001400010F8015B641E05D010F8016B641E01F805
:10015000016BF9D113F0080F1EBF10F8014BAD1C55
:100160000C1B09D16D1E58BF01F801CBFAD505E073
:1001700014F8016B01F8016B6D1EF9D59142D6D3CD
:10018000704700000023002400250026103A28BFF5
:1001900078C1FBD8520728BF30C148BF0B607047F9
:1001A0006E2900F03B81702900F07D82662904F001
:1001B0000F80652904F00C80672904F0098061290B
:1001C00004F0088003681B0A28BF41F080016929F8
:1001D00000F0E880642900F0E580752900F0E280F5
:1001E0006F2900F00A82782900F04982E92900F09D
:1001F000A581E42900F0A281F52900F09F81EF2973
:1002000000F00782F82900F048820368DB0928BF64
:1002100041F08001632900F04B87732900F050877B
:10022000E32900F05B87F32900F060870020704726
:100230001FB500F0ADFF04000020002103F0B2FF65
:10024000401C60600020002103F096FFE0601FBDAD
:1002500010B510BD00F06EFF1146FFF7E9FF02F088
:10026000F1FB01F04BF803B4FFF7F2FF03BC01F020
:1002700093F800000948804709480047FEE7FEE779
:10028000FEE7FEE7FEE7FEE7FEE7FEE7FEE7FEE746
:1002900004480549054A064B70470000E92100085B
:1002A000ED00000830100020301600203012002031
:1002B000301200201CB50C46064B7B44694600906A
:1002C000204600F0C4F804460020694600F0D2F849
:1002D00020461CBDB701000070477047704770B5DD
:1002E000044685690068C10601D5302600E0202655
:1002F000C00707D070BDD4E9012130469047206A7D
:10030000401C20626D1EF6D570BD70B5044685692F
:100310000078C00707D170BDD4E9012120209047A3
:10032000206A401C20626D1EF6D570BD09684A0522
:1003300001D540B27047C905FCD500B270470968C5
:100340004A0501D5C0B27047C905FCD580B27047D7
:1003500070B50C460546012A05D02878800600D5E0
:10036000EA69002302E0012305E05B1C934202D20C
:10037000E05C0028F9D1A869E618C01AA861286ACB
:10038000184428622846FFF7AAFF04E0D5E90121B6
:1003900014F8010B9047B442F8D32846FFF7B5FF95
:1003A00070BD00002DE9F041064600241068752953
:1003B000314616A510D0FFF7B9FF002802DA4042F7
:1003C00013A507E031688A0701D512A502E04907A5
:1003D00004D511A5012401E0FFF7B1FF00210A2295
:1003E00006F1240709E0B0FBF2FCB0FBF2F302FBDC
:1003F0001C00303078541846491C0028F3D123469D
:100400002A463046BDE8F04100F061BA0000000025
:100410002D0000002B000000200000001168026881
:10042000006A530501D508700AE0D30501D508809C
:1004300006E0130603D5C217C1E9000200E0086018
:100440000120704701694A1C02610878704700B5B5
:100450008FB0CDE901310021059105497944CDE9FD
:1004600003101146684600F029F90FB000BD0000E6
:10047000E5FFFFFF0A6802F8010B0A607047000001
:100480002DE9FF5F15468A460446DFF8AC80F84444
:100490000027D8E900103E46CDE9001010E03AF8F8
:1004A00016106A4602A800F025FE411C07D02178EC
:1004B000890603D5E269391891420DD80744761CA4
:1004C0002078800602D5E069B84205DDAE42E6DB61
:1004D0003AF816000028E2D1A069C01BA0612046AE
:1004E000FFF7FDFED8E90010CDE90010002017E06D
:1004F0003AF818106A4602A800F0FCFDB0F1FF3F80
:1005000081460BD000250DF1080B05E0D4E901214F
:100510001BF8050090476D1C4D45F7D308F101000D
:10052000B0428046E4DB206A384420622046FFF770
:10053000ECFEBDE8FF9F00007A4400002DE9F04189
:100540008046D21D22F007020025D2E90002F529DB
:1005500015A614D0011E72F1000106DA0023D0EBBB
:10056000030063EB020211A608E0D8F800108B0725
:1005700001D50FA602E0490701D50EA601251146B7
:10058000002408F1240704E000F05CF930323A5509
:10059000641C50EA0102F7D12B4632462146404600
:1005A000BDE8F04100F093B9000000002D0000000C
:1005B0002B0000002000000030B4002100F12404D2
:1005C00008E002F00705D208303542EA4372DB0842
:1005D0006554491C52EA0305F3D10468002310A2B4
:1005E000250707D5A40600D421B1C46901230DA2B3
:1005F000641EC46130BC00F06AB910B504462146DF
:100600001068FFF79CFE02462046BDE8104000231C
:10061000D2E7D21D22F00701D1E90023CCE7000088
:100620000000000030000000F0B40D46018809050C
:1006300002D5214C7C4402E01F4C7C440E34002146
:1006400000F1240608E002F00F071209E75D42EA14
:1006500003721B097754491C52EA0307F3D102784D
:100660000023120704D5702D06D009B102231134DE
:100670002246F0BC00F02BB901231034F8E770B526
:1006800004460D4621461068FFF759FE02462946EA
:100690002046BDE870400023C6E7D21D22F00703C4
:1006A000D3E90023C0E70368126843F02003036026
:1006B0000823C3610023B7E7DC4200002DE9F05FA7
:1006C000894604464FF0000ADFF874B1FB44C0F8D5
:1006D00020A02046E1688847002874D0252806D04D
:1006E000D4E901219047206A401C2062F1E70026EE
:1006F0005F462046E16888472028054607DB312D04
:1007000005D2781910F8200C08B10643F1E7B007BC
:1007100001D526F00406C4F81CA00027C4F818A0D0
:100720002A2D09D0284602F0CEF838B304EB87080A
:10073000303DC8F8185019E059F8041B204604EB66
:1007400087029161E1688847012F054618D1E06969
:10075000002820DA26F020061DE0D8F8180000EB6B
:10076000800005EB40003038C8F818002046E168EA
:100770008847054602F0A7F80028EED1012F0AD0DD
:100780002E2D08D12046E16888477F1C0546022FA0
:1007900046F02006C4DBA069002803DA404246F098
:1007A0000106A061F00701D026F010066C2D0BD0D9
:1007B000682D09D04C2D39D06A2D35D0742D35D007
:1007C0007A2D33D016E038E0E1682F46204688477E
:1007D000B842054609D16C2F26D04FF48060E168FD
:1007E000064320468847054604E06C2F1AD04FF494
:1007F000807006430DB3A5F14100192802D82035B9
:1008000046F400664A462946204626604E46FFF7D3
:10081000C7FC80B101280BD0F61D26F0070000F1BF
:10082000080956E74020E4E78020D8E70020D6E713
:1008300006F104094DE7284652E7206ABDE8F09F1B
:100840006C42000030B5B0F10A024FEA900E71F12F
:1008500000034EEA817EB0EB0E0061EB91014FEA9E
:10086000101E4EEA017E10EB0E0041EB11114FEA13
:10087000102E4EEA016E10EB0E0041EB11214FEAF3
:10088000104E4EEA014E10EB0E0041EB11414018A4
:1008900041F100014FEAD00040EA41704FEAD10136
:1008A00010EB80054FEA810444EA907444EB0104A4
:1008B0006D1944EB0404521BA3414FF0000348BFE1
:1008C0000A3200D530BD401C41F1000130BD2DE998
:1008D000F0470D4699469246044600F12408016807
:1008E000880604D5E06921F01001216000E00120B4
:1008F000A84201DD471B00E00027A1697A1902EB3D
:100900000900081AA0612078C00602D42046FFF72B
:10091000E6FC002608E0D4E901211AF80600904719
:10092000206A401C761C20624E45F4DB2078C0060D
:100930000AD52046FFF7D3FC06E0D4E90121302098
:100940009047206A401C2062381EA7F10107F4DCA2
:1009500007E0D4E9012118F805009047206A401CFF
:100960002062281EA5F10105F3DC2046FFF7CDFC2F
:100970002078000602D50220BDE8F0870120FBE7C1
:1009800070472DE9FF4F0C461E464FF0FF378BB0E6
:10099000D2E90001DDF860800A908A46C1F30A5569
:1009A00005B93D46002108464FF00000BAF1000F9E
:1009B00000F4400005DA00EB80004FF4400101EA4A
:1009C00050004FEA9059B9F1010F00DDB9460A987D
:1009D00050EA4A000ED044F61050A5F2FF354543C8
:1009E0002F14B8F1000F1ED07542291E1EDDC9F16B
:1009F00000021CE0B8F1010F4FF0000001D03021DF
:100A000003E0F24305E02154401CB042FBDB3046DA
:100A10000022002121540B99C1F80880C1E900206F
:100A20000FB0BDE8F08FBD1B6D1CDEE74A4600DA53
:100A3000694206A800F0F0FB06AB93E8070003ABA1
:100A400083E8070050460A9900F0ADFC8DE80700E6
:100A5000A0F500501F3800900398002D0ADD42F2E7
:100A60001F014A460844002303A90390684600F08A
:100A700016FF09E0A0F500504A461F38002303A9DD
:100A80000390684600F020FF8DE807000004000C8A
:100A900003D04FF0FF30410800E01046B8F1000FDE
:100AA00003D00022009215461EE0751E05D4FFF704
:100AB000C9FE303262556D1EF9D5B3460122084396
:100AC00002D000227F1C04E02078302801D10022CF
:100AD0007F1E002A099784D01DE0112D07DAFFF749
:100AE000B1FE303262556D1C50EA0102F5D1084367
:100AF00002D00098C8B10EE00021681E05E0235C1A
:100B0000625C63542254401E491C8142F7DBAB46B1
:100B1000A81B401E0990002004F80B000B98099AAE
:100B2000C0F80880C0E9002B7AE711264FF00008D2
:100B300057E72DE9F04F88460446D21D22F0070101
:100B400091B0D1E90001CDE90A0101F0A8FE024609
:100B50000B98C00F01D02D2007E02068810701D538
:100B60002B2002E0202101EAC000032A099001D0D5
:100B7000072A05DB03464146204600F00DFB0BE14A
:100B80002078800601D5E06900E00620B8F1650F05
:100B9000814606D0B8F1660F18D0B8F1670F70D152
:100BA00031E00020B9F1110F009001DB112301E0C9
:100BB00009F101030AAA01A90CA8FFF7E2FEDDE989
:100BC0000C70002609F10105834647E001204B46E1
:100BD00000904FF000470AAA01A90CA8FFF7D1FE28
:100BE000DDE90DB00C995D46002610B909F1010050
:100BF0000D18B9EB050003D4C0F1FF3609F101056A
:100C0000A5EB09002BE0B9F1010F01DA4FF0010962
:100C10000020B9F1110F0090484601DD112300E0DA
:100C200003460AAA01A90CA8FFF7ABFEDDE90C7088
:100C30004D4600268346207800070AD4AB4500DAEB
:100C40005D4601A8012D04DD411911F8011C302970
:100C500007D04F4502DA17F1040F04DA012082466B
:100C60000FE06D1EEEE7002F02DCED1B3E4403E0BB
:100C7000781CA84200DD7D1CB81B00F1010A4FF072
:100C800000472078000703D4AA4501DB4FF0FF3A64
:100C90000021B7F1004F0DF143088DF8431024D027
:100CA00002202B23002F01DA7F422D230A21021E6E
:100CB000A0F1010000DC5FB197FBF1FC97FBF1F2C2
:100CC00001FB1C7C17460CF1300C08F801CDEEE757
:100CD000A8F1010003702188090501D5452100E034
:100CE0006521A0F1010800F8011C09980FA9A1EBEA
:100CF0000807FF1D00B10120411901EBEA70A1694D
:100D00003844081A401EA0612078C00602D420464C
:100D1000FFF7E5FA099828B1D4E901219047206A44
:100D2000401C20622078C00622D52046FFF7D7FA63
:100D30001EE0002E04DBB34502DD01A8805D00E06B
:100D40003020D4E901219047206A401C2062761CA3
:100D5000AAF101005FEA000A0AD100F019FAC0689E
:100D60000168405CD4E901219047206A401C206260
:100D7000281EA5F10105DCDC07E0D4E9012118F803
:100D8000010B9047206A401C2062381EA7F1010722
:100D9000F3DC2046FFF7B9FA032011B041E600006A
:100DA0002DE9F04F04460D46D21D22F0070089B010
:100DB000D0E900974846394601F071FD0246F80F28
:100DC00001D02D2307E02068810701D52B2302E005
:100DD000202101EAC0038DF820300BB1012000E092
:100DE0000020032A824601D0072A04DB2946204638
:100DF00000F0D2F93FE12078800601D40D2500E013
:100E0000E569C7F30A560D2D49DA00214FEA175B51
:100E100008464FF00000002F00F4400007DA00EB16
:100E200080004FF4400100EBD07001EA60008115B2
:100E3000012901DD4FF0FF3100224FEA850CBCF1A2
:100E4000180F06D31346ACF118004FF08052C24081
:100E500003E04FF4801323FA0CF30CF10C0CBCF1FB
:100E6000200F04D3ACF1200C09FA0CF001E007FAD2
:100E70000CF000294FF0004801DD18B90FE00ED149
:100E800040450CD319EB02095F4121B9404502D11D
:100E90009F4329EA0209BBEB175F00D0761C20882C
:100EA000000502D57B48784402E07A487844193836
:100EB00008AA302302F80A30037C0AF10101002E4F
:100EC0000AF1020A53546A4602DC4FF0300101E095
:100ED0004FF031014FF001088DF8001002D0A6F25A
:100EE000FF3603E059EA470100D06B4E002D02DCCB
:100EF0002178090704D54FF002082E218DF8011042
:100F0000C44600210BE0C7F303433F01C35C491C07
:100F10006D1E02F80830052908F1010801DA002DDC
:100F2000F1DC00210CE000EB1973491C1B786D1EED
:100F3000082902F808304FEA091908F1010801DA16
:100F4000002DF0DC21688B0602D516E0A8F101081F
:100F5000E04505DD02EB080313F8013C302BF5D02A
:100F6000B8F1000F09DD02EB080313F8013C2E2B4A
:100F700003D1090701D4A8F10108002D05DD3E21A8
:100F800002F808106D1E08F10108407C002E02F8DE
:100F9000080008F1010804DA2D20764202F8080062
:100FA00002E02B2002F808000A214FF47A708642F2
:100FB00008F101080BDB96FBF0F3303302F8083040
:100FC00096FBF0F308F1010800FB136601E0642EC4
:100FD0000CDB642096FBF0F3303302F8083096FB0C
:100FE000F0F308F1010800FB136601E00A2E06DBAE
:100FF00096FBF1F0303002F8080008F1010896FB8A
:10100000F1F001FB1060303002F80800A16908F12E
:10101000010808EB050202EB0A00081AA06120781B
:10102000C00602D42046FFF75AF9216A08AE01EB48
:101030000A00206204E0D4E9012116F8010B904770
:10104000BAF1010AF7D22078C00602D52046FFF790
:1010500046F96E4609E016F8010B3E280FD0D4E998
:1010600001219047206A401C2062B8F10108F2D2A9
:101070002046FFF74AF909B00320BDE8F08F206A47
:101080002844206203E0D4E90121302090476D1EFE
:10109000EBD3F8E7B63A000002FCFFFF10B5436956
:1010A00013B1AFF3008001E0FFF752F9012010BD4A
:1010B000127800F124010A7000224A700122EDE743
:1010C00011684FF0FF32E9E710B5436913B1AFF390
:1010D000008001E0FFF7D4F9012010BD128800F173
:1010E000240182840022C2840122EDE711684FF0BE
:1010F000FF32E9E770B516460C46054600F040F8A9
:10110000036893F80101012806D0FF2C0FD8185D61
:1011100068B101202C7070BDD3F80701324621461A
:1011200003F2071303442846BDE8704018474FF008
:10113000FF3070BD754600F0EBF8AE46050069461D
:10114000534620F00700854618B020B5FFF7A0F8F9
:10115000BDE820404FF000064FF000074FF00008B8
:101160004FF0000B21F00701AC46ACE8C009ACE839
:10117000C009ACE8C009ACE8C0098D467047000062
:1011800010B500F005F8001D10BD00BF19300000BB
:1011900000487047F00F00202DE9F0411F4604463B
:1011A00003260168072A01F4006004DB08B116A5D4
:1011B00005E016A503E008B115A500E015A521F08E
:1011C00010002060A069C01EA0610FB1401EA06188
:1011D0002046FFF784F84FB1D4E901213846904703
:1011E000206A401C2062C01C206206E0206AFAE7E8
:1011F000D4E9012115F8010B9047761EF8D220465C
:10120000FFF783F8BDE8F0814E414E006E616E003D
:10121000494E4600696E66002DE9F0478146164644
:101220008AB0354878440DC88DE80D0032487844BE
:10123000801C03AC0DC884E80D0041F69B300844C7
:10124000372190FBF1F290FBF1F5A5F1800501FB50
:1012500012041B3C02D56442012000E00020DFF8AC
:1012600098A080460027FA44AAF1BE0A0EE0E007E3
:101270000AD03246684607EB470101230AEB810199
:1012800000F022FB8DE8070064107F1C002CEED1DB
:10129000194F7F44AE3F19E0E80715D007EB041063
:1012A0000DF1180A90E80E008AE80E00C068F042BE
:1012B00001D1981908903246012306A903A800F02D
:1012C00003FB03AB83E807006D10641C002DE3D122
:1012D0004FF0010332466946B8F1000F03A802D06F
:1012E00000F0DDFA01E000F0EFFAC9E90001C9F809
:1012F00008200AB0BDE8F087C837000010B50446E2
:10130000AFF300802046BDE81040FEF7ACBF000000
:1013100000487047D00F00204FF0013C50F8042BDC
:1013200051F8043B9A4221D1A2EB0C03934313EAF8
:10133000CC1317D150F8042B51F8043B9A4215D125
:10134000A2EB0C03934313EACC130BD150F8042BFC
:1013500051F8043B9A4209D1A2EB0C03934313EAE0
:10136000CC13DBD04FF00000704700BFD01A01BA99
:10137000B1FA81F101F0180122FA01F0CB40C1F17C
:101380002001DBB2C0B2C01A2CFA01F3D11A91438A
:1013900011EAC311E6D1704701491820ABBEFEE740
:1013A0002600020070475FEA400C08BF91F0000F72
:1013B0004FEA8C234FEAC12243EA51514FEA1C50B5
:1013C00018BF00F5F0404FEA300018BF41F000416F
:1013D0005FEA6C5C00F02980BCF1FF3F08BF40F081
:1013E00080407047130C06BF12044FF0100C4FF0F2
:1013F000000C130E04BF12020CF1080C130F04BFF3
:1014000012010CF1040C930F04BF92000CF1020CBA
:10141000D30F04BF52000CF1010C11464FF0000233
:10142000A0F11F00A0EB0C00704711F0004F08BFA7
:10143000704731F000413FF4D5AF0B0C06BF0904F3
:101440004FF0100C4FF0000C0B0E04BF09020CF112
:10145000080C0B0F04BF09010CF1040C8B0F04BF27
:1014600089000CF1020CCB0F04BF49000CF1010CF8
:10147000CCF12003A0EB0C0022FA03F302FA0CF2E9
:1014800041EA030100F10100704720F07F4C80EA3F
:10149000030023F07F47ACEB070303F57C5300F018
:1014A000004003F1FF032DE980494FEA154B09B4D1
:1014B0004FEA144325EA0B4E24EA03480FF20426B0
:1014C00006EB132749083E785FEA320203FB066702
:1014D000C7F5000707FB06F64FEA54374FEAD64632
:1014E00006F1020607FB066CCCF1005C4FEA1C47D4
:1014F0002CEA074C07FB06F40CFB06F504EB15463B
:101500004FEA961634BF00204FF000404FEAD13723
:1015100006FB07FC4FEA1C4C0CFB0BF7D21B03FB32
:101520000CF761EB07010CFB0EF7B0EB074072EB19
:1015300017420CFB08F734BFA2EB0742B2EB07429D
:1015400061EB17414FEA0C444FEA910706FB07FC99
:101550004FEA1C4C0CFB0BF7B0EBC74072EB573259
:1015600003FB0CF734BFA2EBC742B2EBC74261EBFF
:1015700057310CFB0EF7B0EBC70072EB57720CFB48
:1015800008F734BFA2EBC702B2EBC70261EB577199
:10159000039F4FEA816141EA921104EBCC044FEAC8
:1015A000D1374FEA826206FB07FC42EA90124FEA0B
:1015B00080604FEA1C4C0CFB0BF7D21B03FB0CF7B3
:1015C00061EB07010CFB0EF7B0EB074072EB174223
:1015D0000CFB08F734BFA2EB0742B2EB074261EB0A
:1015E00017414FEA8C554FEA910704EB9C2406FB08
:1015F00007FC4FEA1C4C0CFB0BF7B0EBC74072EB3F
:10160000573203FB0CF734BFA2EBC742B2EBC74221
:1016100061EB57310CFB0EF7B0EBC70072EB577262
:101620000CFB08F734BFA2EBC702B2EBC70261EBB9
:10163000577115EB4C254FEA816141EA92114FEA4F
:1016400082624FEAD13742EA901206FB07FC44F16E
:1016500000044FEA80604FEA1C4C0CFB0BF7D21BD6
:1016600003FB0CF761EB07010CFB0EF7B0EB074037
:1016700072EB17420CFB08F734BFA2EB0742B2EB48
:10168000074261EB174115EB1C154FEA813141EA26
:1016900092414FEA823242EA90424FEA80304FEA6A
:1016A0000C7644F1000448EA03434EEA0B484FF03D
:1016B000000EB2EB080C71EB030724BF62463946FB
:1016C0004EEB0E0E4FF0000B0018524149414BEB10
:1016D0000B0BB2EB080C71EB03077BF1000B24BF83
:1016E000624639464EEB0E0E4FF0000B0018524189
:1016F00049414BEB0B0BB2EB080C71EB03077BF191
:10170000000B24BF624639464EEB0E0E51EA02072B
:1017100018BF46F0010616EB0E7655F1000254F1A3
:10172000000103D5BDE88901BDE80088BDE8890155
:10173000BDE80048B619524141EB0101A3F1010394
:10174000704780807F7E7D7C7B7A7978777676752E
:101750007473727171706F6E6E6D6C6C6B6A6A69A6
:101760006868676666656464636362616160605F40
:101770005F5E5E5D5D5C5C5B5B5A5A5959585857B9
:101780005756565555555454535352525251515021
:1017900050504F4F4F4E4E4D4D4D4C4C4C4B4B4B74
:1017A0004A4A4A49494948484847474747464646BA
:1017B00045454544444444434343434242424241F5
:1017C0004141002B9C4630D477002BD01CB54FEA0A
:1017D000370703B44FF010004FF01001BAF1000FBB
:1017E00006D0BCF1000FDCBF40F0080040F008015B
:1017F0004FF000000FBCBDE810400BF1010BBBF136
:10180000010F08BF5FEA170722BF12F1010211F1B1
:1018100001014FF0004143F1000300F0004043EAB2
:1018200000007047F9D35708D0E746EA064613F19F
:10183000400F4FEA16461FDD13F1200FDFBF16439E
:101840000A46002120335B42BED0C3F1200746EA9E
:10185000064602FA07F74FEA164646EA0706C3F1BC
:10186000200722FA03F201FA07F721FA03F14FF0F9
:10187000000342EA0702A7E746EA020646EA0646EE
:101880004FEA164646EA0106BCBF46EA0646360C53
:101890004FF000034FF000024FF0000194E72DE9F4
:1018A000804C9A46934670B491E8380007C831EAF4
:1018B000400C48BF34EA430C03D5FFF7E6FDFFF7C1
:1018C00080FFF0BCBDE8008C2DE9804C9A46934621
:1018D00070B491E8380007C810F0804F08BF13F0CB
:1018E000804F03D100F005F8FFF76BFFF0BCBDE8B7
:1018F000008C20F07F4780EA030023F07F4C07EB49
:101900000C03A3F57C5300F00040A3F1FE0392F01A
:10191000000F00F0B38095F0000F00F077802DE904
:1019200001494FEA11404FEA144621EA004800FB02
:1019300006FC24EA064708FB06F607FB08F800FB4E
:1019400007F718EB06484CEB164C4FEA124B18EB16
:1019500007484FEA15464CEB174022EA0B4E0BFBAB
:1019600006FC25EA06470EFB06F607FB0EFE0BFB00
:1019700007F71EEB064E4CEB164C4FF000061EEB25
:10198000074E4CEB174B18EB0B0840F1000018EB1F
:101990000E0B58EB000840F100008F1A4FF00001C9
:1019A0003CBFC943661B14BFB5EB040C00213CBF10
:1019B000C943F61B4FEA17444EEA8E0E27EA044548
:1019C0004FEA1C4704FB07622CEA074C05FB07F7AC
:1019D0000CFB05F604FB0CFC16EB074642EB17422A
:1019E00016EB0C4642EB1C421BEB060658EB0202C0
:1019F000414146EA9E0601D5BDE80189B61952412A
:101A000041EB0101A3F10103BDE801894FEA14454F
:101A10004FEA114724EA054621EA074C05FB07F483
:101A200006FB07F70CFB06F105FB0CFC11EB07416D
:101A300044EB17444FEA124711EB0C4144EB1C44B2
:101A400022EA074C05FB07F206FB07F70CFB06F63C
:101A500005FB0CFC16EB074642EB174216EB0C4657
:101A600042EB1C456A1854F1000148BF7047B61993
:101A7000524141EB0101A3F10103704795F0000FC2
:101A800037D04FEA11424FEA144721EA024624EACE
:101A9000074C02FB07F106FB07F70CFB06F402FB01
:101AA0000CFC14EB074441EB17414FEA154714EBCC
:101AB0000C4441EB1C4125EA074C02FB07F506FBF1
:101AC00007F70CFB06F602FB0CFC16EB074645EB92
:101AD000174516EB0C4645EB1C42121951F100015B
:101AE00048BF7047B619524141EB0101A3F1010310
:101AF00070474FEA14454FEA114724EA054621EAA8
:101B0000074C05FB07F106FB07F70CFB06F24FF04D
:101B1000000605FB0CFC12EB074241EB174112EBF0
:101B20000C4251EB1C4148BF7047921841EB010138
:101B3000A3F101037047000010B54FF408710B4882
:101B400000F023F888B1094800F01BF80849094A59
:101B5000127821F8120007480078401C05490870E7
:101B60004FF40871014800F007F810BD002401404F
:101B7000700F00208807002000220A12D343036060
:101B800070470146C86C80B2704770B502460020AD
:101B9000002300240B125568CEB205EA060415682E
:101BA0001D4015B10CB1012000E0002070BD000007
:101BB00010B5022000F01AF838B104480078401C33
:101BC00002490870022000F003F810BD88070020C9
:101BD00000F0805111B10349086001E002494860FA
:101BE000704700000404024000000240014600204B
:101BF000002201F0805313B1054B1A6801E0054B38
:101C00001A6802EA01030BB1012000E000207047CE
:101C1000000402400000024010B54FF4805000F074
:101C200031F810B31148007888B9042010490860D1
:101C300080021049086001200C49087000030D491A
:101C4000091F086004200A49091F086009E00748C5
:101C50000078012805D100030649086002200349E5
:101C600008704FF4805000F007F810BD31070020D5
:101C70001414014014080140014908607047000035
:101C800014040140014600200022074B1B6803EAB0
:101C90000102054B14331B680B4013B10AB101203C
:101CA00000E0002070470000000401402DE9F041F1
:101CB000024600250026002000230024002791F87A
:101CC00003C00CF00F0591F803C00CF0100CBCF130
:101CD000000F03D091F802C04CEA050591F800C04E
:101CE000BCF1000F31D0146800202BE04FF0010C44
:101CF0000CFA00F3B1F800C00CEA03069E4220D1B2
:101D000083004FF00F0C0CFA03F7BC4305FA03FCF9
:101D10004CEA040491F803C0BCF1280F06D14FF03F
:101D2000010C0CFA00FCC2F814C00AE091F803C0E0
:101D3000BCF1480F05D14FF0010C0CFA00FCC2F8C1
:101D400010C0401C0828D1D31460B1F800C0BCF109
:101D5000FF0F34DD546800202EE000F1080C4FF036
:101D6000010808FA0CF3B1F800C00CEA03069E4221
:101D700021D183004FF00F0C0CFA03F7BC4305FA96
:101D800003FC4CEA040491F803C0BCF1280F05D110
:101D900000F1080C08FA0CF8C2F8148091F803C09E
:101DA000BCF1480F07D100F1080C4FF0010808FA08
:101DB0000CF8C2F81080401C0828CED35460BDE84F
:101DC000F0810000F0B50A46002300240021002520
:101DD00000F00046B6F1004F02D11D4EF16901E05E
:101DE0001B4E7168C0F3034583B200F44016B6F58C
:101DF000401F08D121F07061154E766826F070669C
:101E0000134F7E6012E000F48016B6F5801F06D1F5
:101E1000032606FA05F4A14341F0706106E0460D81
:101E2000360103FA06F6B14341F0706122B1460D66
:101E3000360103FA06F6314300F00046B6F1004FD2
:101E400002D1034EF16101E0014E7160F0BD00006E
:101E500000000140416170470161704770B5002189
:101E600000230F22C47804B3154C246804F4E06402
:101E7000C4F5E064210AC1F10403CA40447804FABD
:101E800003F184781440214309010E4C0678A155D2
:101E9000047804F01F050124AC4005786D11AD00F5
:101EA00005F1E025C5F8004109E0047804F01F05BC
:101EB0000124AC40044D0678761145F8264070BDEB
:101EC0000CED00E000E400E080E100E029B1064A0A
:101ED000D2690243044BDA6104E0034AD2698243C7
:101EE000014BDA61704700000010024029B1064A38
:101EF00092690243044B9A6104E0034A9269824367
:101F0000014B9A61704700000010024030B500217B
:101F10000022002400232D4D6D6805F00C0121B135
:101F2000042905D0082923D105E0294D056022E0C8
:101F3000274D05601FE0254D6D6805F47012234D97
:101F40006D6805F48034022505EB92421CB9214DE1
:101F5000554305600BE01D4D6D6805F400351DB15E
:101F60001C4D5543056002E0194D5543056002E0E4
:101F7000174D056000BF00BF144D6D6805F0F001FE
:101F80000909154D6B5C0568DD4045600F4D6D68B6
:101F900005F4E061090A104D6B5C4568DD40856021
:101FA0000A4D6D6805F46051C90A0B4D6B5C4568BC
:101FB000DD40C560054D6D6805F44041890B074D56
:101FC0006B5CC568B5FBF3F5056130BD00100240E0
:101FD00000127A0000093D000000002010000020DF
:101FE00010B5024801F08EF910BD00006400002019
:101FF00021B1028842F40052028004E002884DF6CA
:10200000FF731A400280704721B1028842F04002FB
:10201000028004E002884FF6BF731A4002807047C6
:1020200010B5002201F00F040123A3409AB2D3435C
:10203000038110BD0246002013890B400BB1012023
:1020400000E000207047F0B5024600200024002385
:10205000002501F00F070126BE40B4B20B11012686
:102060009E40B3B2968806EA03051689264016B14B
:102070000DB1012000E00020F0BD014688897047C5
:102080008181704710B50022028802F441520B880A
:102090004C8823438C882343CC8823430C892343D7
:1020A0004C8923438C892343CC8923431A430280E0
:1020B000838B4FF2FF74234083830B8A038210BD0E
:1020C00021B1828842F00402828004E082884FF6C7
:1020D000FB731A408280704710B500F001F810BD04
:1020E0000CB50020019000903348006840F4803027
:1020F0003149086000BF3048006800F400300090AB
:102100000198401C0190009818B90198B0F5A06F93
:10211000F1D12948006800F4003010B1012000908E
:1021200001E0002000900098012843D12348006876
:1021300040F01000214908600846006820F00300C4
:1021400008600846006840F0020008601A484068CD
:10215000194948600846406848600846406840F4AD
:10216000806048600846406820F47C10486008465B
:10217000406840F4E81048600846006840F080700D
:10218000086000BF0C48006800F000700028F9D01B
:102190000948406820F00300074948600846406845
:1021A00040F00200486000BF0348406800F00C00A7
:1021B0000828F9D10CBD00000010024000200240A8
:1021C00006480068401C0549086005480068401E34
:1021D0000349086000200349087070472800002068
:1021E0002C0000203000002010B51348006840F09B
:1021F00001001149086008464068104908400E492E
:102200004860084600680E4908400B4908600846C7
:10221000006820F4802008600846406820F4FE0032
:1022200048604FF41F008860FFF756FF4FF00060D2
:102230000449086010BD0000001002400000FFF8D3
:10224000FFFFF6FE08ED00E021B1028842F08002B7
:10225000028004E002884FF67F731A4002807047C4
:1022600021B1028842F00102028004E002884FF6A8
:10227000FE731A400280704731B1B0F8442042F436
:102280000042A0F8442005E0B0F84420C2F30E025A
:10229000A0F844207047000070B5002400220023FD
:1022A000058C4FF6FE7635400584028C8388048BBE
:1022B0004FF68F752C40B51E2C400D882C43751E93
:1022C0002A400D892A434D882A43144DA8420BD039
:1022D000134DA84208D0134DA84205D0124DA84274
:1022E00002D0124DA84213D14FF6F7752A404D89FE
:1022F0002A434FF6FB752A408D882A434FF6FF6527
:102300002B404FF6FF552B408D892B43CD892B4316
:1023100083800483CD888586028470BD002C0140B3
:1023200000340140004001400044014000480140A9
:102330000A460021018B4FF6F773194011430183C0
:102340007047000070B5002400220023058C4FF672
:10235000EF7635400584028C8388048B48F6FF7540
:102360002C404FF6FF452C400D884FF6FF7606EACD
:1023700005252C434FF6DF752A400D8906EA051521
:102380002A434D8806EA05152A43154DA84202D076
:10239000144DA8421DD14FF67F752A404D894FF646
:1023A000FF7606EA05152A434FF6BF752A408D8849
:1023B00006EA05152A434FF6FF352B404FF2FF750D
:1023C0002B408D8906EA85052B43CD8906EA8505D4
:1023D0002B4383800483CD880587028470BD000071
:1023E000002C0140003401400A460021018B4FF2CD
:1023F000FF7319404FF6FF7303EA02231943018369
:102400007047000070B5002400220023058C4FF6B1
:10241000FF6635400584028C8388848B4FF68F7568
:102420002C404FF6FC752C400D882C434FF6FF5581
:102430002A400D894FF6FF7606EA05252A434D8886
:1024400006EA05252A43154DA84202D0144DA8429C
:102450001DD14FF2FF752A404D894FF6FF7606EAEF
:1024600005252A434FF6FF352A408D8806EA0525C3
:102470002A434EF6FF752B404DF6FF752B408D8994
:1024800006EA05152B43CD8906EA05152B43838003
:102490008483CD888587028470BD0000002C0140B4
:1024A000003401400A460021818B4FF6F773194032
:1024B000114381837047000070B50022002300247F
:1024C000058C4EF6FF7635400584038C8488828B1C
:1024D00048F6FF752A404FF6FF452A400D884FF613
:1024E000FF7606EA05252A434DF6FF752B400D8938
:1024F00006EA05352B434D8806EA05352B430B4D7F
:10250000A84202D00A4DA84208D14BF6FF752C40D4
:102510008D894FF6FF7606EA85152C4384808283E9
:10252000CD88A0F84050038470BD0000002C01400D
:10253000003401400A460021818B4FF2FF7319409D
:102540004FF6FF7303EA02231943818370478184A6
:1025500070470000002202881D4B98420ED01D4B90
:1025600098420BD0B0F1804F08D01B4B984205D059
:102570001A4B984202D01A4B984204D14FF68F73EF
:102580001A404B881A43174B984207D0164B984273
:1025900004D04FF6FF431A40CB881A4302808B8841
:1025A00083850B8803850A4B98420BD0094B9842D0
:1025B00008D00E4B984205D00D4B984202D00D4BDF
:1025C000984201D10B7A0386012383827047000071
:1025D000002C01400034014000040040000800408D
:1025E000000C00400010004000140040004001407A
:1025F000004401400048014010B50446264800F060
:1026000009FA062025490870572C22D00EDC502CE0
:102610003DD006DC312C18D0412C23D0442C38D1AD
:102620002DE0532C24D0542C33D12EE0732C20D009
:1026300006DC612C17D0642C22D0702C29D127E025
:10264000742C23D0772C24D104E0154800F0E2F953
:102650001FE000BF6421084600F0BCFB104800F0FA
:10266000D9F916E000BF0021084600F0B3FB10E0E6
:1026700000BF6FF06301084600F0ACFB09E000BF4B
:102680000021084600F0A6FB03E000BF01E000BF08
:1026900000BF00BF10BD0000EC4800088C07002000
:1026A000E448000810B5024801F08EFC10BD00009F
:1026B0003400002010B5024801F086FC10BD000077
:1026C0004C00002010B50022002340F66A14A142FD
:1026D00000D100BF0A1201249440A3B2DC4304805D
:1026E00010BD21B1828942F40052828104E08289C6
:1026F0004DF6FF731A408281704702460020B1F503
:10270000007F00D100BF13880B400BB1012000E017
:102710000020704770B502460024002300250020E9
:1027200040F66A16B14200D100BFC1F3421501F074
:102730001F03012606FA03F3012D02D196893340C7
:1027400006E0022D02D1168A334001E0968A33401A
:102750000C12012606FA04F41688344013B10CB1A9
:10276000012000E0002070BDF0B5034600240026E3
:102770000025002040F66A17B94200D100BF184674
:10278000C1F3421401F01F06012707FA06F5012CD8
:1027900001D10C3004E0022C01D1103000E01430E3
:1027A0001AB107682F43076002E00768AF4307606C
:1027B000F0BD00002DE9F04786B005460E46002426
:1027C000A24600BFA1460027B08900B100BF2F4636
:1027D0002C8A4CF6FF700440F08804432C82AC89AC
:1027E0004EF6F3100440B0883189084371890843DC
:1027F0000443AC81AC8A4FF6FF400440B0890443E7
:10280000AC8201A8FFF782FB1F48874202D1DDF8A6
:1028100010A001E0DDF80CA0A88900F4004040B150
:102820000AEBCA0000EB0A1031684900B0FBF1F86E
:1028300007E00AEBCA0000EB0A1031688900B0FB20
:10284000F1F86420B8FBF0F004012009642101FBD9
:102850001089A88900F4004040B1322000EBC90083
:10286000B0FBF1F000F00700044308E0322000EB79
:1028700009106421B0FBF1F000F00F0004432C813B
:1028800006B0BDE8F08700000038014001468888A6
:10289000C0F308007047C1F3080282807047490006
:1028A00050EAC12018BF04204A0D18BF40F00100B3
:1028B00040F2FF72B2EB515F08BF40F00200012806
:1028C00008BF0520704730380A2801D20120704720
:1028D0000020704710B501210846FFF707FB10BD27
:1028E0000349086000BF024909680029FBD170470D
:1028F0002C000020014800687047000028000020DC
:1029000038B504460D4603208DF802008DF80350BB
:10291000A088ADF8000069462068FFF7C7F938BD08
:1029200038B504460D4603208DF802008DF803509B
:10293000A088ADF8000069462068FFF7B7F938BDF8
:1029400038B504460D4603208DF802008DF803507B
:10295000A088ADF8000069462068FFF7A7F938BDE8
:1029600038B504460D4603208DF802008DF803505B
:10297000A088ADF8000069462068FFF797F938BDD8
:1029800038B504460D4603208DF802008DF803503B
:10299000A088ADF8000069462068FFF787F938BDC8
:1029A00038B504460D4603208DF802008DF803501B
:1029B000A088ADF8000069462068FFF777F938BDB8
:1029C00010B50446A1882068FFF744FA10BD10B581
:1029D0000446A1882068FFF73DFA10BD10B50446F3
:1029E000A1882068FFF738FA10BD10B50446A18809
:1029F0002068FFF731FA10BD70B504460D4625B1C9
:102A0000A1882068FFF728FA03E0A1882068FFF773
:102A100021FA70BD10B5044600BFA1882068FFF7F9
:102A20001BFA00BF10BD000010B510210348FFF7CE
:102A300077FF10210248FFF773FF10BDC442000862
:102A4000CC42000808B500F0E7FA01F0A9F800F060
:102A5000FFF9FFF7E9FF012064231A469021009057
:102A6000284800F095F9012064231A46902100902F
:102A7000254800F08DF94FF6E0704FF478430022BE
:102A80004FF6FF710090104600F0CEFD4FF4E1319B
:102A90001E4801F093F91E491C4801F0F1FA2FE09D
:102AA00000BFFFF727FF1B4909688842F9D0FFF7ED
:102AB00021FF184908600846006817490968401A4C
:102AC00019281DD3134800681349086000F0DCFC86
:102AD0001048006800F034F8104800780090104862
:102AE000037810A20021084600F010FE00F076FFE7
:102AF0000A4803780A4802780AA1044801F0F0FA6B
:102B0000CEE7000064420008744200083400002050
:102B1000F9250008980700209C0700208D07002059
:102B20008C0700206D6F76656D656E743A202564A4
:102B30000A70726F67726573733A20256400000033
:102B400010B50446874800780C2877D2DFE800F0FB
:102B5000060F1923303A47515E6C77850120814971
:102B600008708149087005208049087084E07E481B
:102B7000007828B902207B49087005207A4908703E
:102B80007AE07948007828B9032076490870042053
:102B90007549087070E07448007840B904207149A4
:102BA000087001207049087005207049087063E0C2
:102BB0006D48007828B905206A49087002206A49E2
:102BC000087059E06848007840B9062065490870E7
:102BD0000120654908700520644908704CE062488E
:102BE000007828B907205F49087003205E49087003
:102BF00042E05D48007840B908205A490870012039
:102C00005949087005205949087035E05648007840
:102C100048B9092053490870042053490870A4F1A9
:102C200014005349086027E04F48007828B90A206B
:102C30004C49087005204C4908701DE01BE04A48CB
:102C4000007848B90B2047490870032046490870AE
:102C5000A4F15000464908600EE04348007848B9A6
:102C60000F204049087004203F490870A4F1140067
:102C70003F49086000E000BF00BF3B4800780628DD
:102C80006DD2DFE800F00304182E445A68E037489C
:102C9000007800280BDD6421084600F09BF83348DB
:102CA0000078401E314908703148046002E000207D
:102CB0002D49087054E02E48006810B92C48046073
:102CC0000EE02B480068201A642804D8002108462A
:102CD00000F080F804E000202549086022490870CF
:102CE0003EE02348006810B9214804600EE0204807
:102CF0000068201A642804D80021084600F06AF809
:102D000004E000201A4908601749087028E01848B4
:102D1000006810B9164804600EE015480068201AD3
:102D2000C82804D80021084600F054F804E0002028
:102D30000F4908600C49087012E00A480078022820
:102D400002D00A2808D103E000200749087004E0F7
:102D500000200549087000E000BF00BF00BF00BFB1
:102D600000BF10BD8D0700208C07002094070020B5
:102D70009007002070B504460E4615462946E068C7
:102D8000FFF73AFE3146204600F0CEF870BD000055
:102D90002DE9F84304460D4616461F46DDF820800F
:102DA00033462A4621460948009700F0C0F8102112
:102DB000E068FFF7A5FD4146E068FFF71DFE012131
:102DC0000348FEF7FFFFBDE8F88300000004004061
:102DD000000C1A002DE9F04104460D46002C01DDDF
:102DE000012000E000200646002D01DD012000E06A
:102DF00000200746002C01DA604200E02046C0F1C6
:102E0000640081B232460848FFF7B4FF002D01DAB2
:102E1000684200E02846C0F1640081B23A460348A7
:102E2000FFF7A8FFBDE8F081644200087442000883
:102E300010B500228021104600F01AF94FF480648A
:102E400003E0002001F082F9641E002CF9D110BDCE
:102E500008B500204FF482734FF4404201460090C1
:102E60002E4800F01DF910212D48FFF799FD102183
:102E70002C48FFF795FD00F0E7F8AE2001F050F97F
:102E8000D52001F04DF9802001F04AF9A82001F089
:102E900047F93F2001F044F9D32001F041F9002027
:102EA00001F03EF9402001F03BF98D2001F038F9A6
:102EB000142001F035F9A12001F032F9C82001F009
:102EC0002FF9DA2001F02CF9122001F029F98120E4
:102ED00001F026F9CF2001F023F9D92001F020F9E3
:102EE000F12001F01DF9DB2001F01AF9402001F07A
:102EF00017F9202001F014F9002001F011F9A420A5
:102F000001F00EF9A62001F00BF9AF2001F008F94D
:102F10006420FFF7E5FCFFF78BFF08BD640000208D
:102F2000D4430008DC4300088268118070472DE913
:102F3000F04188B007460C4615461E46DDF838803D
:102F4000384600F06FFE0020ADF81600ADF81A000C
:102F50008DF81C00ADF81450ADF8186005A938467E
:102F6000FFF7F8FA0020ADF80C00ADF80E00602075
:102F7000ADF804000020ADF81000ADF812000120FB
:102F8000ADF806000420ADF80800ADF80A802078FE
:102F900030B101280DD0022814D0032824D11AE022
:102FA00001A93846FFF778F901213846FFF7C0F943
:102FB0001AE001A93846FFF7C5F901213846FFF7A5
:102FC00013FA11E001A93846FFF71CFA012138462F
:102FD000FFF768FA08E001A93846FFF76DFA01210A
:102FE0003846FFF7A7FA00BF00BF18216068FFF757
:102FF00087FC01213846FFF727F901213846FFF702
:103000002FF900213846FFF7A2FA01213846FFF7D1
:1030100033F908B0BDE8F08110B5FFF75BFC012182
:103020000420FEF763FF01210820FEF75FFF012166
:103030001020FEF75BFF01212020FEF757FF012142
:103040004020FEF753FF10BD10B50848FFF7CDFC38
:103050006420FFF745FC0548FFF7B9FC6420FFF743
:103060003FFC0248FFF7C1FC10BD0000D44300083C
:1030700070B506460C461546212001F051F8304641
:1030800001F04EF8611EC8B201F04AF8222001F0AA
:1030900047F8284601F044F8072001F041F870BDD8
:1030A0002DE9F04186B004460F4615461E46DDF870
:1030B0003080206800F04AF918216068FFF750FC62
:1030C00005F4004048B1B6F5827F01D1A16800E067
:1030D000E16808461821FFF743FC05F4404048B179
:1030E000B6F5827F01D1E16800E0A16808461821A9
:1030F000FFF736FC206901287ED020690228FBD02A
:1031000020690428F8D020690828F5D06A49206988
:103110008842F1D06849203120698842ECD0674963
:1031200020698842E8D0654980312069884263D0AF
:103130006349206988425FD06249206988425BD038
:1031400061492069884257D060492069884253D03C
:103150005F49206988424FD02069B0F5805F4BD02D
:103160002069B0F5EA1F7CD02069B0F5EB1F78D05C
:103170002069B0F5004F74D056492069884270D05C
:10318000491C206988426CD0891C2069884268D01B
:10319000091D2069884264D04E490F312069884258
:1031A0005FD02069B0F1201F5BD04FEAF131206978
:1031B000884256D048492069884252D04749206900
:1031C00088424ED04649206988424AD04549206904
:1031D000884246D044492069884242D02069B0F5EF
:1031E000011F3ED04149206988423AD0491C2069DC
:1031F000884236D0891C00E033E02069884230D014
:10320000091D206988422CD038490F312069884235
:1032100027D036491F312069884222D033493F31B7
:10322000206988421DD031497F312069884218D0F9
:103230002E49FF312069884213D02D4920698842E8
:103240000FD02C49206988420BD02B492069884235
:1032500007D02A492069884203D029492069884239
:1032600003D101212069FEF7ADFDADF80450ADF8A2
:103270000660ADF808800220ADF80A000120ADF824
:103280000C004002ADF80E00ADF810700020ADF853
:10329000120001A92068FEF7F5FE01212068FEF763
:1032A000B3FE00212068FEF7A3FE00212068FEF790
:1032B00007FF06B0BDE8F0811000140040001600C2
:1032C00000011800000218000003180000081A008E
:1032D000000C1A0001002000000130000002300044
:1032E00000043000001120000020200001000080B8
:1032F00000020080000400800008008000100080B0
:103300000020008070B5044660212068FEF79BFE17
:1033100068B12068FEF7B1FE0546606910B1E8B2F9
:103320006169884760212068FEF77AFE0DE071210F
:103330002068FEF788FE40B1A06910B1A16920683D
:10334000884771212068FEF76BFE70BD10B50446FA
:103350000B48844204D101218014FEF7C7FD0EE022
:103360000848844204D101210014FEF7AFFD06E0B5
:103370000548844203D10121C013FEF7A7FD10BD0B
:103380000030014000380040003C004070B5044669
:103390000D4600BF02212068FEF74CFE0028F9D040
:1033A00029462068FEF76CFE70BD000010B502468D
:1033B0003048007800EBC00303EB00102E4B03EB0A
:1033C000C00002EB820300EB4300405C2B4B1B78F8
:1033D00003EBC30404EB0313274C04EBC30302EB1E
:1033E000820403EB44035B5C98423FD121480078A0
:1033F00000EBC00303EB0010214B03EB001002EBCA
:10340000820300EB830030F811001C4B1B7803EBA8
:10341000C30404EB03131A4C04EB031302EB820402
:1034200003EB840333F8113098421FD11148007820
:1034300000EBC00303EB0010124B03EB001002EB98
:10344000820300EB830030F811000C4B1B7803EB78
:10345000C30404EB03130B4C04EB031302EB8204D1
:1034600003EB840333F81130984201D0012010BDE2
:103470000020FCE792060020A00700209306002011
:1034800030090020500C002010B5002006490880AB
:10349000002404E0204600F00BF8601CC4B203488E
:1034A00000788442F6DB10BD8C06002091060020D7
:1034B00010B50146002032E020221B4B1B7803EBA5
:1034C000C30404EB0313194C04EBC30300EB8004A7
:1034D00003EB44035A54164A1288134B1B7803EB30
:1034E000C30404EB0313134C04EB031300EB80043D
:1034F00003EB840323F811200F4A12880A4B1B7830
:1035000003EBC30404EB03130C4C04EB031300EBB9
:10351000800403EB840323F81120421CD0B2084A34
:1035200012789042C8DB10BD92060020A007002050
:10353000840600203009002080060020500C002066
:103540009006002010B5002423E01549085D00F026
:103550000BFB1348005D362805D11249124A127838
:10356000885C00F00FFB0EE00D48005DFF2806D1DF
:10357000611C0C460A4A505CFFF7B2F903E00849A7
:10358000085D00F0FFFA601C04460549085C43280A
:10359000EAD1601C04460249085C4228D5D110BD1E
:1035A0001C4300088D4300088A06002001200149C1
:1035B000087070478B06002070B505460F490878E3
:1035C00000EBD0714910A0EB410131B18023A02262
:1035D0000021084600F08AF905E0A023802200219E
:1035E000084600F083F9002403E0284600F0B2FA10
:1035F000641CB4F5A04FF8D370BD00008A0600200B
:1036000007480088401C064908800846008805498C
:103610000978884202DB00200149088070470000D9
:103620008C060020910600202DE9F04104460D464D
:1036300016461F46DDF8188000202C4908802C49CA
:10364000087001202B4908702B4804700146087847
:1036500000EBD0714910A0EB410109B1012100E05C
:103660000221264A11702449087800EBD0714910D4
:10367000A0EB410109B1022100E00121204A1170B3
:1036800000F092F900F068F8FFF75CFF284600F0C0
:1036900073F8304600F082F9384600F079F9404678
:1036A00000F01EF92846FFF787FF204604EBD07193
:1036B0004910A4EB410109B1142100E01021114A85
:1036C0001170204604EBD0714910A4EB410109B1FF
:1036D000082100E00A210C4A1170FFF767FFFFF78D
:1036E000D3FE00F07BF9BDE8F08100008C060020DD
:1036F00092060020930600208A06002088060020FB
:103700008906002090060020910600200FB430B5F5
:10371000C1B004460D460E480078844203DA0D48D5
:103720000078854203DB41B030BC5DF814FB47A84C
:10373000009001A8009A4699FCF7BCFD002000907B
:1037400001AA2946204600F01DF800BFEBE7000063
:10375000900600209106002010B50648FFF730F9CA
:103760006420FFF7BDF80348FFF738F96420FFF73E
:10377000B7F810BD0C4300080149088070470000ED
:10378000800600202DE9F05F0746884614463D4636
:1037900046464FF0000AD346D1467CE020785D28AB
:1037A00016D006DC0A280CD00D2809D05B2828D1B9
:1037B0000DE07B2814D07C281BD07D2821D110E07F
:1037C00000BF701CC6B20025FFF71AFF61E000BF02
:1037D00020785B2801D1012000E00020824658E0DB
:1037E00000BF20787B2801D1012000E00020834623
:1037F0004FE0B9F1000F01D1012000E00020814627
:1038000047E02078B9F1000F01D0802100E00021CD
:1038100008432849097801EBC10202EB0111264A4D
:1038200002EBC10105EB850201EB42018855BAF1BB
:10383000000F02D02148008801E0214800881D497E
:10384000097801EBC10202EB01111E4A02EB0111E2
:1038500005EB850201EB820121F81600BBF1000F98
:1038600002D01948028801E01848028811480078FF
:1038700000EBC00101EB0010154901EB00132846D5
:10388000691CCDB200EB800003EB800020F816200D
:1038900000BF00BF641C207840B10E48007885420C
:1038A00004DA0D4800788642FFF678AF0B480580B1
:1038B000BDE8F09F92060020A007002086060020A9
:1038C00084060020300900208206002080060020A7
:1038D000500C002090060020910600208E0600204B
:1038E0000149088070470000820600202DE9F05F42
:1038F00004460D4692469B4626462F4604EB0A0098
:103900001FFA80F805EB0B001FFA80F91D480078BC
:10391000304486B21C480078384487B21948007891
:1039200040441FFA80F81848007848441FFA80F98C
:103930002A2000F019F9300A00F024F9F0B200F062
:1039400021F94FEA182000F01DF908F0FF0000F0FF
:1039500019F92B2000F008F9380A00F013F9F8B231
:1039600000F010F94FEA192000F00CF909F0FF00FF
:1039700000F008F92C2000F0F7F80448FFF72EF8C3
:10398000BDE8F09F88060020890600201443000847
:103990000149088070470000860600200149088020
:1039A000704700008406002008B500204FF48273A1
:1039B0004FF44042014600900548FFF771FB10218B
:1039C0000448FEF7DDFF10210348FEF7D9FF08BDCC
:1039D000640000200C430008144300082DE9F05F48
:1039E00000250027A8465248007808B9BDE8F09F96
:1039F000002686E000247DE031462046FFF7D6FC15
:103A0000002875D0012501E0681C05B260194949FC
:103A10000978884206DA6119C8B23146FFF7C6FC58
:103A20000028F1D10123C3EBC5039AB23101E000B4
:103A30000F23FFF75BFF4FF0000853E03E4800788C
:103A400000EBC00101EB00103C4901EBC000E119A3
:103A500001EB810100EB4100805D2038384901EB2A
:103A6000001A4FF0080930E01AF80800A9F1010126
:103A7000084100F0010080B12F48007800EBC00140
:103A800001EB00102F4901EB0010E11901EB81015E
:103A900000EB810030F816000FE02748007800EBBB
:103AA000C00101EB0010284901EB0010E11901EB06
:103AB000810100EB810030F816008346584600F083
:103AC00049F8A9F1010000F0FF09B9F1000FCBDCC2
:103AD000781CC0B20746A84204D1002708F10100B3
:103AE00000F0FF08B8F1100FA8DB681E2044C4B234
:103AF000601CC4B20F4800788442FFF67DAF701C92
:103B0000C6B2124800788642FFF674AF0A480078C1
:103B100008B9012000E00020074908700C4800782F
:103B200008B9012000E000200949087000BF5DE7E6
:103B30008B0600209006002092060020A00700209F
:103B40008000002030090020500C00209106002049
:103B50009306002010B50446201200F013F8E0B2DE
:103B600000F010F810BD000010B504460348FEF741
:103B700027FF21460248FFF709FC10BD1443000847
:103B80006400002010B504460348FEF727FF2146D5
:103B90000248FFF7FBFB10BD14430008640000203F
:103BA00038B500208DF801008DF8020001208DF855
:103BB0000300FF208DF800006846FEF74FF9154816
:103BC00000684FF47A72B0FBF2F1481EB0F1807FCA
:103BD00000D31BE0481E4FF0E022506150170F2227
:103BE000002804DB13071C0E0B4B1C5406E01307C4
:103BF0001D0E0A4B00F00F04241F1D5500BF0020AE
:103C00004FF0E02290610720106100BF00200449BE
:103C1000086038BD1400002000E400E018ED00E06A
:103C20002800002010B504464348844204D10121F5
:103C3000C014FEF75BF97EE04048844204D10121C4
:103C40004014FEF753F976E03D48844204D1012147
:103C50000804FEF74BF96EE03A48844204D1012192
:103C60004804FEF743F966E03748844204D1012155
:103C70008804FEF73BF95EE03448844204D1012118
:103C8000C804FEF733F956E03148844204D10121DB
:103C90000805FEF72BF94EE02E48844204D101219D
:103CA0004805FEF723F946E0B4F1804F04D1012125
:103CB0000846FEF70BF93EE02748844204D1012173
:103CC0000220FEF703F936E02448844204D10121A2
:103CD0000420FEF7FBF82EE02148844204D10121A4
:103CE0000820FEF7F3F826E01E48844204D10121A3
:103CF0001020FEF7EBF81EE01B48844204D101219E
:103D00002020FEF7E3F816E01848844204D1012190
:103D10004020FEF7DBF80EE01548844204D1012173
:103D20008020FEF7D3F806E01248844203D1012137
:103D30008015FEF7CBF810BD002C01400034014087
:103D4000004001400044014000480140004C014057
:103D500000500140005401400004004000080040B1
:103D6000000C00400010004000140040001800400B
:103D7000001C00400020004001460E4A881A914273
:103D800014D006DC0C48084460B1B0F5806F06D151
:103D90000AE0B0F5806F0BD0B0F56C4F00D000BFDB
:103DA000252070472620FCE72720FAE73420F8E793
:103DB0003520F6E7004C004000BCFFBF7FB504464D
:103DC0000D46206800F028F918216068FEF7B8FD5C
:103DD0000421A068FEF7B4FD606901287ED0606907
:103DE0000228FBD060690428F8D060690828F5D063
:103DF000624960698842F1D0604920316069884237
:103E0000ECD05F4960698842E8D05D4980316069E3
:103E10008842E3D05B49606988425FD05A49606953
:103E200088425BD059496069884257D058496069D7
:103E3000884253D05749606988424FD06069B0F5D5
:103E4000805F4BD06069B0F5EA1F7CD06069B0F547
:103E5000EB1F78D06069B0F5004F74D04E496069AF
:103E6000884270D0491C606988426CD0891C6069A6
:103E7000884268D0091D6069884264D046490F3184
:103E8000606988425FD06069B0F1201F5BD04FEA63
:103E9000F1316069884256D040496069884252D009
:103EA0003F49606988424ED03E49606988424AD0A5
:103EB0003D496069884246D03C496069884242D0A9
:103EC0006069B0F5011F3ED03949606988423AD037
:103ED000491C6069884236D0891C00E033E0606983
:103EE000884230D0091D606988422CD030490F319A
:103EF0006069884227D02E491F316069884222D0EC
:103F00002B493F31606988421DD029497F31606962
:103F1000884218D02649FF316069884213D025496C
:103F2000606988420FD02449606988420BD02349D8
:103F30006069884207D022496069884203D02149DC
:103F40006069884203D101216069FDF73BFF00955C
:103F50000020ADF80400ADF80600ADF80800ADF89B
:103F60000C000C20ADF80A0069462068FEF722FC20
:103F700001212068FEF7B5FB7FBD00001000140092
:103F8000400016000001180000021800000318008D
:103F900000081A00000C1A00010020000001300087
:103FA000000230000004300000112000002020003A
:103FB00001000080000200800004008000080080F2
:103FC000001000800020008070B5044640F22551AA
:103FD0002068FEF79FFB70B12068FEF757FC05468E
:103FE000E06810B1E8B2E168884740F225512068E6
:103FF000FEF768FB0EE040F227712068FEF78AFBAF
:1040000040B1206908B12069804740F227712068DB
:10401000FEF758FB70BD000010B5044613488442FB
:1040200004D101218803FDF761FF1EE0104884429E
:1040300004D101214804FDF749FF16E00D488442F0
:1040400004D101218804FDF741FF0EE00A488442B3
:1040500004D10121C804FDF739FF06E00748844276
:1040600003D101210805FDF731FF10BD00380140E3
:104070000044004000480040004C00400050004018
:1040800038B504460D462068FFF776FEC0B28DF8BD
:10409000000001208DF801008DF802008DF803006A
:1040A0006846FDF7DBFE012240F225512068FEF74D
:1040B0005BFB00BFE56000BF38BD70B504460D4630
:1040C000206900B170BD00BF40212068FEF715FBDC
:1040D0000028F9D029462068FEF7DDFB00BFF1E794
:1040E0000FB430B5C1B00546286918B141B030BC35
:1040F0005DF814FB46A840906846409A4599FCF745
:10410000D9F8002040906C4604E014F8011B2846C2
:10411000FFF7D3FF20780028F7D100BFE6E70000C3
:1041200010B504460748FEF752FC00BF0648006879
:10413000008900F002000028F8D00348006884815C
:1041400010BD0000DC4300086400002010B50446E8
:104150000748FEF74AFC00BF06480068008900F0E7
:1041600002000028F8D003480068848110BD0000D8
:10417000DC4300086400002010B500290AD008784C
:10418000002807D005487844FDF7C6F8002801D07C
:10419000002010BD0248784410BD0000A2080000B5
:1041A0009A08000010B500290AD00878002807D026
:1041B00005487844FDF7B0F8002801D0002010BD74
:1041C0000248784410BD0000920800008A080000F0
:1041D000FCF7AFBCFCF7E4BD0008014001000000A3
:1041E0000008014002000000000801400400000037
:1041F0000008014008000000000801400001000024
:104200000008014000800000000C01400004000094
:10421000000C0140000800000010014008000000F0
:10422000001001404000000000100140800000002C
:1042300000100140000100000010014000020000D9
:1042400000000000004200083400004003000000AD
:104250001042000840000040020000000842000830
:104260003C000040000000002042000834040040F0
:1042700018420008010000002842000838040040ED
:10428000F841000802000000304200083C040040F1
:104290003842000800000000D8410008340C0040FB
:1042A00001000000E0410008380C0040020000005E
:1042B000E84100083C0C004003000000F041000809
:1042C000400C0040001001400200000000100140BE
:1042D0000400000000080140000200000008014046
:1042E0000004000000100140000400000010014024
:1042F00000080000000C014000200000000C0140FC
:1043000000400000000C014000800000000C014053
:1043100000100000000C0140004000000011FF0AE6
:1043200043B1012C2D43B2012C2D43B3012C2D019F
:104330002C2D43B40743C0A2028443C1C543C20A23
:104340000043C38A2A43C48AEE43C50E433643E082
:104350000F1A0F182F2820221F1B233700070210C7
:1043600043E10F1B0F17332C292E3030393F000744
:104370000310432A0000007F432B0000009F43F0FE
:104380000143F600433A054329432C4342C0A000B1
:10439000600000000008014001000000000801402A
:1043A0000200000000080140040000000008014075
:1043B0000800000000080140100000000008014053
:1043C00020000000000801404000000000080140FB
:1043D00080000000000C014000100000000C0140B3
:1043E0000040000000000000003E5B4F5B3E3E6B63
:1043F0004F6B3E1C3E7C3E1C183C7E3C181C577D7F
:10440000571C1C5E7F5E1C00183C1800FFE7C3E7CA
:10441000FF0018241800FFE7DBE7FF30483A060EDC
:104420002629792926407F050507407F05253F5A23
:104430003CE73C5A7F3E1C1C08081C1C3E7F142293
:104440007F22145F5F005F5F06097F017F0066893E
:10445000956A606060606094A2FFA29408047E0484
:104460000810207E201008082A1C08081C2A0808AA
:104470001E101010100C1E0C1E0C30383E3830066A
:104480000E3E0E06000000000000005F0000000766
:10449000000700147F147F14242A7F2A1223130894
:1044A000646236495620500008070300001C224170
:1044B000000041221C002A1C7F1C2A08083E080814
:1044C00000807030000808080808000060600020C4
:1044D000100804023E5149453E00427F40007249A7
:1044E0004949462141494D331814127F102745454B
:1044F00045393C4A49493141211109073649494961
:1045000036464949291E00001400000040340000CE
:104510000008142241141414141400412214080237
:10452000015909063E415D594E7C1211127C7F49AA
:104530004949363E414141227F4141413E7F4949FF
:1045400049417F090909013E414151737F0808082B
:104550007F00417F41002040413F017F08142241FC
:104560007F404040407F021C027F7F0408107F3E56
:104570004141413E7F090909063E4151215E7F09C3
:10458000192946264949493203017F01033F40402A
:10459000403F1F2040201F3F4038403F6314081415
:1045A0006303047804036159494D43007F4141414D
:1045B0000204081020004141417F0402010204402E
:1045C00040404040000307080020545478407F28B2
:1045D0004444383844444428384444287F385454A8
:1045E000541800087E090218A4A49C787F080404CB
:1045F0007800447D40002040403D007F102844006A
:1046000000417F40007C047804787C0804047838FA
:1046100044444438FC1824241818242418FC7C082A
:10462000040408485454542404043F44243C4040A7
:10463000207C1C2040201C3C4030403C442810285A
:10464000444C9090907C4464544C440008364100A3
:104650000000770000004136080002010204023C1D
:104660002623263C1EA1A161123A4040207A3854EC
:104670005455592155557941225454784221555465
:10468000784020545579400C1E52721239555555B8
:1046900059395454545939555454580000457C41A3
:1046A0000002457D420001457C407D1211127DF0E3
:1046B000282528F07C545545002054547C547C0A0D
:1046C000097F4932494949323A4444443A324A48D6
:1046D00048303A4141217A3A42402078009DA0A0DA
:1046E0007D3D4242423D3D4040403D3C24FF24242C
:1046F000487E4943662B2FFC2F2BFF0929F620C04B
:10470000887E090320545479410000447D4130489B
:10471000484A32384040227A007A0A0A727D0D19DE
:10472000317D2629292F28262929292630484D4040
:1047300020380808080808080808382F10C8ACBA3C
:104740002F102834FA00007B000008142A142222BB
:10475000142A14085500550055AA55AA55AAFF5504
:10476000FF55FF000000FF00101010FF001414148C
:10477000FF001010FF00FF1010F010F0141414FCD4
:10478000001414F700FF0000FF00FF1414F404FCF1
:10479000141417101F10101F101F1414141F0010D2
:1047A0001010F0000000001F101010101F1010104B
:1047B00010F010000000FF1010101010101010105A
:1047C000FF10000000FF140000FF00FF00001F109A
:1047D000170000FC04F414141710171414F404F454
:1047E0000000FF00F714141414141414F700F71445
:1047F0001414171410101F101F141414F414101094
:10480000F010F000001F101F0000001F1400000037
:10481000FC140000F010F01010FF10FF141414FF2F
:10482000141010101F00000000F010FFFFFFFFFF2A
:10483000F0F0F0F0F0FFFFFF0000000000FFFF0FBE
:104840000F0F0F0F3844443844FC4A4A4A347E0262
:10485000020606027E027E026355494163384444E3
:104860003C04407E201E2006027E020299A5E7A598
:10487000991C2A492A1C4C7201724C304A4D4D3009
:104880003048784830BC625A463D3E494949007E2E
:104890000101017E2A2A2A2A2A44445F44444051C5
:1048A0004A444040444A51400000FF0103E080FF79
:1048B000000008086B6B083612362436060F090F05
:1048C00006000018180000001010003040FF010121
:1048D000001F01011E00191D1712003C3C3C3C004A
:1048E0000000000000100140020000000010014024
:1048F00004000000640064000000000000000000EC
:1049000064000000C8000000140000000000000067
:104910000000000030313233343536373839414207
:104920004344454640305800303132333435363711
:1049300038396162636465664030780004000008BD
:1049400000000000000000020001000010303132C1
:1049500033343536373839616263646566787000A0
:1049600030313233343536373839414243444546A5
:104970005850000002400000000000A000000000AD
:1049800005400000000000C8000000000C400000CE
:104990000000409C00000000194000000020BCBE48
:1049A0000000000034400000BFC91B8E000000045E
:1049B000B5400000504BCFD06607E2CF01000000A9
:1049C0006C4100003E8251AADFEEA73401000000D6
:1049D000D9420000DCB5A0E23A301F97FFFFFFFF8D
:1049E000B4450000FD25A0C8E9A3C14FFFFFFFFFAC
:1049F000FF3F00000000008000000000FF3F0000BB
:104A00000000008000000000544B0008000000205F
:104A1000A007000028010008184F0008A007002088
:104A2000900E0000840100081C00000043000000FC
:104A3000F8FFFFFF0C0000000E0000000F00000058
:104A40002E0000001001000043000000F8FFFFFFEF
:104A50000040404040404040404041414141414091
:104A60004040404040404040404040404040404046
:104A700040050202020202020202020202020202D5
:104A800002202020202020202020200202020202DA
:104A90000202909090909090101010101010101032
:104AA000101010101010101010101010020202023E
:104AB0000202888888888888080808080808080882
:104AC000080808080808080808080808020202027E
:104AD0004000000000000000000000000000000096
:104AE00000000000000000000000000000000000C6
:104AF00000000000000000000000000000000000B6
:104B000000000000000000000000000000000000A5
:104B10000000000000000000000000000000000095
:104B20000000000000000000000000000000000085
:104B30000000000000000000000000000000000075
:104B40000000000000000000000000000000000065
:104B500000000000412D01020304041009060708AB
:104B6000090204060884A24A046918D116380140D3
:104B7000D4421B08DC04D112481B40E4149AEC1800
:104B800012101A1430111B40F4141AFC04DB0443F5
:104B90003401111008183C3C3C181818190341E561
:104BA000666666243D6C6CFE6C04392E580B187CCE
:104BB000C6C2C07C0686C67C31215809C2C60C1804
:104BC0003060C686AD500A6C6C3876DCCCCCCC76C6
:104BD000D530303060192C390163180C19093901AE
:104BE000931830AE663CFF3C66A37B187E6D89143B
:104BF0009931110A11FED879322B0206A063C080C8
:104C0000580B7CC6C6CED6D6E6C6C67C281B3878DE
:104C10004C19016A7E20492F5AC65419106E063C61
:104C2000060606301F0C1C3C6CCCFEB15A1E7B8E57
:104C3000C0C0C0FC0E201B3860101AC60159101AE3
:104C4000FE4049F479802AC6046920290C1A7E6046
:104C5000BB0C78BA99F1591069EF399FA530180C3F
:104C60000619AB59AE31391C292479601A0CDE893A
:104C70005119115EDEDEDEDCC0802F10386CC6C636
:104C8000FE91611EFC6666667C046366FC1C3C66E5
:104C9000C2E265C0C2663C2BF86C1D5D66666CF8AE
:104CA0007C580966626878686062668259109C6008
:104CB00060F04066DEC6C6663A296A396F59701AD6
:104CC0003C9D390159602B1E0C0165CCCCCC781F62
:104CD000E6666C6C78787562E61AF05B190179709B
:104CE0009EC6EEFEFED6508FC6E6F6FEDECE10293C
:104CF000DF29019B6C38E0294259A04A7C1F7ED6EF
:104D0000DE7C0C0E2029E459701920600860380CF4
:104D100006C6C67CBC7E7E5AB0493F19015920594F
:104D20000E9C6C3810106ED6D6FE6C6C101E6C6C1F
:104D300038386C9661196A9B663C50580AFEC686E4
:104D40000C183060C2C6E05B3C3001592011580A93
:104D500080C0E070381C0E0602205A0C0139201A5F
:104D600010EF011922FF04123030186008780C7C13
:104D7000CCCCCC762EE06060786C9592DC6E7CC6F4
:104D8000C0C0C0E01A1C6A1A6C2F693039208AFE34
:104D9000201F386C6460F0600192F02A762F4ECCB0
:104DA0007C0CCC78602B6C766062E61318181A388D
:104DB000FE5B1818E01306063B0E06012B66661311
:104DC00019301C666C78935930492D8930312CECA0
:104DD000FED601912ADC5F9B6666A0290159A07965
:104DE000207A7CA369A05B0C1E20BB7662C06E7C1F
:104DF000C660380C401E103030FC300193361C3930
:104E00003F93CC76395F933C18197D8DD6D6FE6CD6
:104E100010AF6C3838386CC6201901657E060CF866
:104E20006008FECC183060C6FE1A0EEB2A70F062E5
:104E30000E290B39055960291C29245B1870CDC235
:104E4000DCCAFF0101161211101E12461720181499
:104E5000192F1A1E320429142C1E2A04427F4D09D0
:104E600063E064FF6520661267101413F00D810F74
:104E7000C5142122FF23012434253C26A12B101E1A
:104E80006BAA13FF695D900A910192019301945FEF
:104E900095539611971A983D995A9A1E9B10329CD9
:104EA00025A765A8659E81A6067E0C7F16802A81AF
:104EB0004E8261836F847B8586868E879788A489DE
:104EC000AF8AC58BD78CE88D20A980AA80ACFF3330
:104ED00016229923034A100E491347084B144C1706
:104EE00046050CD00E824D13944333080F2A9C08BC
:104EF00022012AA40822022AAC0822032AB408228A
:104F0000042ABC0822052AC40822062ACC087207F3
:084F10007A10F0011900000005
:04000005080000ED02
:00000001FF
