:020000040800F2
:1000000038080020C9010008D1010008D301000808
:10001000D5010008D7010008D90100080000000040
:10002000000000000000000000000000DB010008EC
:10003000DD01000800000000DF010008850B00085A
:10004000E3010008E3010008E3010008E301000800
:10005000E3010008E3010008E3010008E3010008F0
:10006000E3010008E3010008E3010008850400083B
:10007000E3010008E3010008E3010008E3010008D0
:10008000E3010008E301000885020008E30100081D
:10009000E3010008E3010008E3010008E3010008B0
:1000A000E3010008E3010008E3010008E3010008A0
:1000B000E3010008E3010008E3010008E301000890
:1000C000E3010008E3010008E3010008E301000880
:1000D000B9090008BD0F0008E3010008CD0F0008B2
:1000E0008D060008E3010008E301000800F002F8B3
:1000F00000F05AF80AA090E8000C82448344AAF168
:100100000107DA4501D100F04FF8AFF2090EBAE865
:100110000F0013F0010F18BFFB1A43F0010318473B
:10012000942E0000B42E00000A444FF0000C10F88A
:10013000013B13F0070408BF10F8014B1D1108BF65
:1001400010F8015B641E05D010F8016B641E01F805
:10015000016BF9D113F0080F1EBF10F8014BAD1C55
:100160000C1B09D16D1E58BF01F801CBFAD505E073
:1001700014F8016B01F8016B6D1EF9D59142D6D3CD
:10018000704700000023002400250026103A28BFF5
:1001900078C1FBD8520728BF30C148BF0B607047F9
:1001A0001FB51FBD10B510BD00F031F81146FFF7A7
:1001B000F7FF01F077F900F04FF803B4FFF7F2FF13
:1001C00003BC00F057F80000094880470948004781
:1001D000FEE7FEE7FEE7FEE7FEE7FEE7FEE7FEE7F7
:1001E000FEE7FEE704480549054A064B7047000054
:1001F000AD0B0008ED000008380200203808002090
:100200003804002038040020704770477047754656
:1002100000F02CF8AE4605006946534620F0070072
:10022000854618B020B5FFF7DDFFBDE820404FF050
:1002300000064FF000074FF000084FF0000B21F0D0
:100240000701AC46ACE8C009ACE8C009ACE8C0099D
:10025000ACE8C0098D46704710B50446AFF3008086
:100260002046BDE81040FFF7A8BF000000487047D7
:10027000D801002001491820ABBEFEE7260002008D
:100280007047000010B54FF408710B4800F043F8B8
:1002900088B1094800F03BF80849094A127821F86A
:1002A000120007480078401C054908704FF4087197
:1002B000014800F007F810BD00240140780100203B
:1002C0006001002000220A12D3430360704721B16D
:1002D000826842F00102826003E0826822F001023B
:1002E0008260704721B1826842F48072826003E0CC
:1002F000826822F4807282607047014600208A681A
:1003000002F004020AB1012000E00020704701461B
:10031000C86C80B2704770B50246002000230024EC
:100320000B125568CEB205EA060415681D4015B1DA
:100330000CB1012000E0002070BD014600208A6859
:1003400002F008020AB1012000E00020704700001E
:1003500030B502460020002350680F4C20400D7934
:100360000C6844EA05242043506090680B4C204000
:10037000D1E902542C434D7944EA4504204390606E
:10038000D06A20F470000C7C641EE4B2234340EA7F
:100390000350D06230BD0000FFFEF0FFFDF7F1FF1B
:1003A000F0B504460D4600200021092D11DDE0685E
:1003B000A5F10A0606EB4607072606FA07F1884369
:1003C000A5F10A0606EB460603FA06F10843E060CB
:1003D0000CE0206905EB4507072606FA07F188437C
:1003E00005EB450603FA06F108432061072A0FDAF8
:1003F000606B561E06EB86071F2606FA07F1884338
:10040000561E06EB860605FA06F10843606322E0F5
:100410000D2A0FDA206BD61F06EB86071F2606FA79
:1004200007F18843D61F06EB860605FA06F1084356
:10043000206310E0E06AA2F10D0606EB86071F2696
:1004400006FA07F18843A2F10D0606EB860605FAC7
:1004500006F10843E062F0BD816841F00801816067
:10046000704721B1826842F4A002826003E0826892
:1004700022F4A00282607047816841F0040181602B
:100480007047000010B5022000F0CCF838B10448E5
:100490000078401C02490870022000F003F810BDEB
:1004A0006001002000F0805111B10349086001E0B3
:1004B0000249486070470000040402400000024006
:1004C00021B1026842F00102026004E002684FF6C6
:1004D000FE731A400260704701684FF6FE721140C9
:1004E00001600021016041608160C1604B49884228
:1004F00008D14A490839496841F00F01474A083A8A
:1005000051608AE045491431884208D1434908398D
:10051000496841F0F001414A083A51607DE03F49A5
:100520002831884208D13D490839496841F4706151
:100530003A4A083A516070E038493C31884208D163
:1005400036490839496841F47041344A083A5160E3
:1005500063E032495031884208D13049083949684E
:1005600041F470212D4A083A516056E02B4964311C
:10057000884208D129490839496841F47001274A5D
:10058000083A516049E025497831884208D1234929
:100590000839496841F07061204A083A51603CE0EE
:1005A0001F49884206D1011F096841F00F01021F4F
:1005B000116032E01A491431884208D11849091FE4
:1005C000096841F0F001164A121F116025E0144934
:1005D0002831884208D11249091F096841F4706125
:1005E0000F4A121F116018E00D493C31884208D1B2
:1005F0000B49091F096841F47041094A121F116033
:100600000BE007495031884207D10549091F0968A5
:1006100041F47021024A121F116070470800024025
:100620000804024001460020002201F0805313B16B
:10063000054B1A6801E0054B1A6802EA01030BB189
:10064000012000E00020704700040240000002404A
:1006500010B50022026847F6F0739A430C6A8B6863
:1006600023430C6923434C6923438C692343CC699E
:1006700023434C6A23438C6A23431A430260CB68AA
:1006800043600B6883604B68C36010BD10B54FF4C6
:10069000805000F031F810B31148007888B9042078
:1006A0001049086080021049086001200C49087058
:1006B00000030D49091F086004200A49091F08604A
:1006C00009E007480078012805D1000306490860C1
:1006D0000220034908704FF4805000F007F810BD65
:1006E0000801002014140140140801400149086069
:1006F0007047000014040140014600200022074B0F
:100700001B6803EA0102054B14331B680B4013B14D
:100710000AB1012000E00020704700000004014001
:100720002DE9F04102460025002600200023002488
:10073000002791F803C00CF00F0591F803C00CF0EE
:10074000100CBCF1000F03D091F802C04CEA050573
:1007500091F800C0BCF1000F31D0146800202BE0EC
:100760004FF0010C0CFA00F3B1F800C00CEA0306DC
:100770009E4220D183004FF00F0C0CFA03F7BC43CC
:1007800005FA03FC4CEA040491F803C0BCF1280FFD
:1007900006D14FF0010C0CFA00FCC2F814C00AE0BC
:1007A00091F803C0BCF1480F05D14FF0010C0CFAD1
:1007B00000FCC2F810C0401C0828D1D31460B1F866
:1007C00000C0BCF1FF0F34DD546800202EE000F1C2
:1007D000080C4FF0010808FA0CF3B1F800C00CEA5D
:1007E00003069E4221D183004FF00F0C0CFA03F751
:1007F000BC4305FA03FC4CEA040491F803C0BCF1C5
:10080000280F05D100F1080C08FA0CF8C2F8148082
:1008100091F803C0BCF1480F07D100F1080C4FF06C
:10082000010808FA0CF8C2F81080401C0828CED342
:100830005460BDE8F0810000F0B50A4600230024B2
:100840000021002500F00046B6F1004F02D11D4EF8
:10085000F16901E01B4E7168C0F3034583B200F4F7
:100860004016B6F5401F08D121F07061154E76682C
:1008700026F07066134F7E6012E000F48016B6F525
:10088000801F06D1032606FA05F4A14341F07061EA
:1008900006E0460D360103FA06F6B14341F07061F9
:1008A00022B1460D360103FA06F6314300F0004648
:1008B000B6F1004F02D1034EF16101E0014E7160CB
:1008C000F0BD0000000001404161704701617047C8
:1008D00070B5002100230F22C47804B3154C24689E
:1008E00004F4E064C4F5E064210AC1F10403CA40E1
:1008F000447804FA03F184781440214309010E4C32
:100900000678A155047804F01F050124AC40057851
:100910006D11AD0005F1E025C5F8004109E004784E
:1009200004F01F050124AC40044D0678761145F80B
:10093000264070BD0CED00E000E400E080E100E046
:1009400001460020034A506820F4404008435060AC
:10095000704700000010024029B1064A5269024364
:10096000044B5A6104E0034A52698243014B5A61C5
:10097000704700000010024029B1064AD2690243C4
:10098000044BDA6104E0034AD2698243014BDA6125
:10099000704700000010024029B1064A92690243E4
:1009A000044B9A6104E0034A92698243014B9A61C5
:1009B000704700000010024010B5024801F04CF8EA
:1009C00010BD00005000002021B1028842F4005206
:1009D000028004E002884DF6FF731A4002807047DF
:1009E00021B1028842F04002028004E002884FF602
:1009F000BF731A400280704710B5002201F00F0447
:100A00000123A3409AB2D343038110BDF0B502463F
:100A1000002000240023002501F00F070126BE401E
:100A2000B4B20B1101269E40B3B2968806EA0305C4
:100A30001689264016B10DB1012000E00020F0BD5E
:100A400001468889704710B50022028802F441529D
:100A50000B884C8823438C882343CC8823430C8900
:100A600023434C8923438C892343CC8923431A4352
:100A70000280838B4FF2FF74234083830B8A0382AF
:100A800010BD21B1828842F00402828004E0828895
:100A90004FF6FB731A408280704710B500F002F8E1
:100AA00010BD00000CB50020019000903348006894
:100AB00040F480303149086000BF3048006800F4DD
:100AC000003000900198401C0190009818B90198DE
:100AD000B0F5A06FF1D12948006800F4003010B1E2
:100AE0000120009001E0002000900098012843D1EF
:100AF0002348006840F0100021490860084600685B
:100B000020F0030008600846006840F0020008601A
:100B10001A484068194948600846406848600846D5
:100B2000406840F4806048600846406820F47C10CB
:100B300048600846406840F4E8104860084600688D
:100B400040F08070086000BF0C48006800F0007042
:100B50000028F9D00948406820F0030007494860A0
:100B60000846406840F00200486000BF0348406803
:100B700000F00C000828F9D10CBD00000010024064
:100B80000020024006480068401C054908600548EE
:100B90000068401E03490860002003490870704740
:100BA00014000020180000201C00002010B513487D
:100BB000006840F00100114908600846406810498B
:100BC00008400E494860084600680E4908400B4935
:100BD00008600846006820F48020086008464068E5
:100BE00020F4FE0048604FF41F008860FFF755FFB7
:100BF0004FF000600449086010BD00000010024082
:100C00000000FFF8FFFFF6FE08ED00E021B10288CA
:100C100042F08002028004E002884FF67F731A409F
:100C20000280704721B1028842F00102028004E094
:100C300002884FF6FE731A400280704731B1B0F857
:100C4000442042F40042A0F8442005E0B0F84420DB
:100C5000C2F30E02A0F844207047000070B50024D3
:100C600000220023058C4FF6FE7635400584028C69
:100C70008388048B4FF68F752C40B51E2C400D8851
:100C80002C43751E2A400D892A434D882A43144D52
:100C9000A8420BD0134DA84208D0134DA84205D04E
:100CA000124DA84202D0124DA84213D14FF6F7754B
:100CB0002A404D892A434FF6FB752A408D882A43E6
:100CC0004FF6FF652B404FF6FF552B408D892B4388
:100CD000CD892B4383800483CD888586028470BDB3
:100CE000002C01400034014000400140004401401C
:100CF000004801400A460021018B4FF6F773194066
:100D0000114301837047000070B5002400220023C6
:100D1000058C4FF6EF7635400584028C8388048B72
:100D200048F6FF752C404FF6FF452C400D884FF6D6
:100D3000FF7606EA05252C434FF6DF752A400D891C
:100D400006EA05152A434D8806EA05152A43154D7E
:100D5000A84202D0144DA8421DD14FF67F752A40FB
:100D60004D894FF6FF7606EA05152A434FF6BF7503
:100D70002A408D8806EA05152A434FF6FF352B4099
:100D80004FF2FF752B408D8906EA85052B43CD89EF
:100D900006EA85052B4383800483CD88058702847A
:100DA00070BD0000002C0140003401400A460021C3
:100DB000018B4FF2FF7319404FF6FF7303EA0223D2
:100DC000194301837047000070B5002400220023FE
:100DD000058C4FF6FF6635400584028C8388848B32
:100DE0004FF68F752C404FF6FC752C400D882C4328
:100DF0004FF6FF552A400D894FF6FF7606EA052586
:100E00002A434D8806EA05252A43154DA84202D0FB
:100E1000144DA8421DD14FF2FF752A404D894FF65F
:100E2000FF7606EA05252A434FF6FF352A408D88CE
:100E300006EA05252A434EF6FF752B404DF6FF7551
:100E40002B408D8906EA05152B43CD8906EA051549
:100E50002B4383808483CD888587028470BD000006
:100E6000002C0140003401400A460021818B4FF6DE
:100E7000F7731940114381837047000070B5002259
:100E800000230024058C4EF6FF7635400584038C44
:100E90008488828B48F6FF752A404FF6FF452A402A
:100EA0000D884FF6FF7606EA05252A434DF6FF75B5
:100EB0002B400D8906EA05352B434D8806EA05359A
:100EC0002B430B4DA84202D00A4DA84208D14BF645
:100ED000FF752C408D894FF6FF7606EA85152C4369
:100EE00084808283CD88A0F84050038470BD0000C8
:100EF000002C0140003401400A460021818B4FF252
:100F0000FF7319404FF6FF7303EA022319438183ED
:100F10007047818470470000002202881D4B984270
:100F20000ED01D4B98420BD0B0F1804F08D01B4B18
:100F3000984205D01A4B984202D01A4B984204D1DD
:100F40004FF68F731A404B881A43174B984207D0BD
:100F5000164B984204D04FF6FF431A40CB881A43F1
:100F600002808B8883850B8803850A4B98420BD0BF
:100F7000094B984208D00E4B984205D00D4B984231
:100F800002D00D4B984201D10B7A03860123838254
:100F900070470000002C0140003401400004004074
:100FA00000080040000C0040001000400014004009
:100FB00000400140004401400048014010B5024893
:100FC00000F07AFE10BD00002000002010B502489D
:100FD00000F072FE10BD00003800002010B50022A5
:100FE000002340F66A14A14200D100BF0A12012476
:100FF0009440A3B2DC43048010BD70B502460024C7
:1010000000230025002040F66A16B14200D100BF3F
:10101000C1F3421501F01F03012606FA03F3012D67
:1010200002D19689334006E0022D02D1168A334060
:1010300001E0968A33400C12012606FA04F4168861
:10104000344013B10CB1012000E0002070BD014616
:101050008888C0F308007047F8B504460F48007848
:1010600020710E480078401C0C490870206878B147
:101070000026256803208DF802008DF80360A888FB
:10108000ADF8000069462868FFF74AFB00BF00BFC3
:101090002079034941F82040F8BD00000C010020F0
:1010A0009801002000B58BB0144800F0BFF8134839
:1010B0000830FFF711FA1248009000200290114802
:1010C0000078039000200490802005904000069056
:1010D00080000790202008900002099000200A90CC
:1010E00009480190694605480830FFF7B1FA012127
:1010F00002480830FFF7E4F90BB000BD00000240E1
:101100004C2401400C0100207801002010B586B06D
:101110002A4800F05BF80020019001208DF80800BB
:101120008DF809004FF460200390002004902448BB
:1011300000788DF814004FF40040FFF701FCFFF732
:10114000B1FF00F041F800240FE01E4850F82400E1
:101150000079401CC2B21B4850F824004179072393
:101160001648FFF71DF9601CC4B215480078844288
:10117000EBDB01A91148FFF7EBF801210F48FFF75E
:10118000B1F801210D48FFF7A2F80C48FFF764F908
:1011900000BF0A48FFF7D1F80028FAD10748FFF747
:1011A0006BF900BF0548FFF7A8F80028FAD1012124
:1011B0000248FFF756F906B010BD000000240140B8
:1011C0000C010020980100207047000010B5044673
:1011D0000B48844204D101214015FFF7DDFB0EE0EE
:1011E0000848844204D101210015FFF7D5FB06E031
:1011F0000548844203D10121C803FFF7CDFB10BD90
:101200000024014000280140003C014010B50121AC
:101210000846FFF7C1FB10BD0349086000BF024943
:1012200009680029FBD170471800002010B504465A
:101230000748844204D101210846FFF78DFB06E0F0
:101240000448844203D101210220FFF785FB10BD31
:10125000000002400004024001460879014A32F8C9
:1012600010007047780100200148006870470000B6
:101270001400002038B504460D4603208DF8020006
:101280008DF80350A088ADF8000069462068FFF78C
:1012900047FA38BD38B504460D4603208DF80200E4
:1012A0008DF80350A088ADF8000069462068FFF76C
:1012B00037FA38BD38B504460D4603208DF80200D4
:1012C0008DF80350A088ADF8000069462068FFF74C
:1012D00027FA38BD10B50446A1882068FFF7F4FA54
:1012E00010BD10B50446A1882068FFF7EFFA10BDC5
:1012F0002DE9F04F89B082468B464FF496600790F7
:10130000801006904FF07E500590002004902848F1
:10131000008828490988401A05D5264800882449AC
:101320000988401A04E02248008822490988401AA6
:10133000B0F5617F16D2ABEB0A0001F01DFA07464B
:101340001D4901F03BF906461C4901F02DFA0546FE
:101350004FF07E5101F028FA044601F0F1F900B295
:10136000049006E0D34501DD642001E06FF06300E6
:101370000490049800F023FF0646114A114B00F038
:1013800035FF0022104BCDE9000100F0E9FC0022FE
:101390000E4BCDE9020100F029FF044600220C4B60
:1013A00000F086FD804600F0DBFE09B0BDE8F08F5E
:1013B0006601002064010020000061440000C84272
:1013C000FA7E6ABC7493783F0000F83F0088B3400F
:1013D0000000344010B500241A4800881A490988D2
:1013E000401A05D51848008816490988401A04E0B3
:1013F0001448008814490988401A40B112480188ED
:1014000010480088FFF774FF1049088019E0104861
:10141000008810490988401A05D50E4800880C49F3
:101420000988401A04E00A4800880A490988401AD5
:1014300038B10848018806480088FFF759FF03497A
:10144000088010BD64010020660100206C010020AE
:10145000680100206A01002010B50A48FFF7FCFE71
:10146000094908800948FFF7F7FE0949088009483B
:10147000FFF7F2FE084908800848FFF7EDFE08492B
:10148000088010BD10010020640100201801002018
:1014900066010020200100206801002028010020B2
:1014A0006A01002000F040F900F01AFB00F058F843
:1014B0001B48FFF7D1FD1B48FFF7CEFD1A48FFF789
:1014C000CBFD1A48FFF7C8FDFFF720FE40F2771367
:1014D00041F2883240F21F11154800F059F91EE020
:1014E00000BFFFF7C1FE134909688842F9D0FFF732
:1014F000BBFE10490860084600680F490968401A99
:1015000019280CD30B4800680B490860FFF7A4FFAB
:10151000FFF760FF09480188054800F031F9DFE76F
:1015200010010020180100202001002028010020C7
:10153000A829000870010020740100206C0100201F
:1015400010B500228021104600F03CF94FF4806471
:1015500003E0002000F0EEFB641E002CF9D110BD6A
:1015600008B500204FF482734FF4404201460090CA
:101570002E4800F03FF910212D48FFF79BFE102167
:101580002C48FFF797FE00F0E7F8AE2000F0BCFB18
:10159000D52000F0B9FB802000F0B6FBA82000F0B9
:1015A000B3FB3F2000F0B0FBD32000F0ADFB0020E8
:1015B00000F0AAFB402000F0A7FB8D2000F0A4FB68
:1015C000142000F0A1FBA12000F09EFBC82000F039
:1015D0009BFBDA2000F098FB122000F095FB8120A5
:1015E00000F092FBCF2000F08FFBD92000F08CFBA5
:1015F000F12000F089FBDB2000F086FB402000F0AA
:1016000083FB202000F080FB002000F07DFBA42065
:1016100000F07AFBA62000F077FBAF2000F074FB0F
:101620006420FFF7F9FDFFF78BFF08BD5000002095
:10163000A42A0008AC2A00088268118070472DE9AE
:10164000F04188B007460C4615461E46DDF8388046
:10165000384600F087FA0020ADF81600ADF81A0001
:101660008DF81C00ADF81450ADF8186005A9384687
:10167000FFF752FC0020ADF80C00ADF80E00602022
:10168000ADF804000020ADF81000ADF81200012004
:10169000ADF806000420ADF80800ADF80A80207807
:1016A00030B101280DD0022814D0032824D11AE02B
:1016B00001A93846FFF7D2FA01213846FFF71AFB95
:1016C0001AE001A93846FFF71FFB01213846FFF752
:1016D0006DFB11E001A93846FFF776FB0121384682
:1016E000FFF7C2FB08E001A93846FFF7C7FB01215D
:1016F0003846FFF701FC00BF00BF18216068FFF704
:10170000B9FD01213846FFF781FA01213846FFF77C
:1017100089FA00213846FFF7FCFB01213846FFF724
:101720008DFA08B0BDE8F08110B5FFF76FFD01211B
:101730000420FFF731F901210820FFF72DF90121DD
:101740001020FFF729F901212020FFF725F90121B9
:101750004020FFF721F910BD10B50848FFF7C1FD83
:101760006420FFF759FD0548FFF7B4FD6420FFF73B
:1017700053FD0248FFF7B5FD10BD0000A42A000884
:1017800070B504460D4629462046FFF755FF70BD4B
:10179000F8B504460D4616461F4633462A462146EE
:1017A0004FF080400097FFF74AFF01210348FFF701
:1017B00043F801210248FFF73FF8F8BD000230006E
:1017C0000003180070B506460C461546212000F0AF
:1017D0009BFA304600F098FA611EC8B200F094FA05
:1017E000222000F091FA284600F08EFA072000F03F
:1017F0008BFA70BD2DE9F04186B004460F461546C0
:101800001E46DDF83080206800F04AF91821606833
:10181000FFF740FD05F4004048B1B6F5827F01D1E5
:10182000A16800E0E16808461821FFF733FD05F4E0
:10183000404048B1B6F5827F01D1E16800E0A1687F
:1018400008461821FFF726FD206901287ED020696F
:101850000228FBD020690428F8D020690828F5D098
:101860006A4920698842F1D068492031206988425C
:10187000ECD0674920698842E8D065498031206909
:10188000884263D06349206988425FD062492069F9
:1018900088425BD061492069884257D060492069FD
:1018A000884253D05F49206988424FD02069B0F503
:1018B000805F4BD02069B0F5EA1F7CD02069B0F57D
:1018C000EB1F78D02069B0F5004F74D056492069DD
:1018D000884270D0491C206988426CD0891C2069DC
:1018E000884268D0091D2069884264D04E490F3172
:1018F000206988425FD02069B0F1201F5BD04FEA99
:10190000F1312069884256D048492069884252D036
:101910004749206988424ED04649206988424AD0CA
:1019200045492069884246D044492069884242D0CE
:101930002069B0F5011F3ED04149206988423AD064
:10194000491C2069884236D0891C00E033E02069B8
:10195000884230D0091D206988422CD038490F3187
:101960002069884227D036491F312069884222D019
:1019700033493F31206988421DD031497F31206988
:10198000884218D02E49FF312069884213D02D4952
:10199000206988420FD02C49206988420BD02B49FE
:1019A0002069884207D02A492069884203D0294902
:1019B0002069884203D101212069FEF73DFFADF87F
:1019C0000450ADF80660ADF808800220ADF80A00BA
:1019D0000120ADF80C004002ADF80E00ADF810701B
:1019E0000020ADF8120001A92068FFF72CF80121B2
:1019F0002068FEF7F5FF00212068FEF7E5FF0021D3
:101A00002068FFF73EF806B0BDE8F0811000140032
:101A10004000160000011800000218000003180022
:101A200000081A00000C1A0001002000000130001C
:101A300000023000000430000011200000202000CF
:101A40000100008000020080000400800008008087
:101A5000001000800020008070B5044660212068DE
:101A6000FEF7D4FF68B12068FEF7EAFF054660691B
:101A700010B1E8B26169884760212068FEF7BCFFB9
:101A80000DE071212068FEF7C1FF40B1A06910B1DF
:101A9000A1692068884771212068FEF7ADFF70BDFD
:101AA00010B504460B48844204D101218014FEF78E
:101AB00073FF0EE00848844204D101210014FEF7B0
:101AC0005BFF06E00548844203D10121C013FEF705
:101AD00053FF10BD0030014000380040003C004082
:101AE00038B500208DF801008DF8020001208DF836
:101AF0000300FF208DF800006846FEF7E9FE154858
:101B000000684FF47A72B0FBF2F1481EB0F1807FAA
:101B100000D31BE0481E4FF0E022506150170F2207
:101B2000002804DB13071C0E0B4B1C5406E01307A4
:101B30001D0E0A4B00F00F04241F1D5500BF00208E
:101B40004FF0E02290610720106100BF002004499F
:101B5000086038BD0000002000E400E018ED00E05F
:101B60001400002010B504464348844204D10121EA
:101B7000C014FEF711FF7EE04048844204D10121E9
:101B80004014FEF709FF76E03D48844204D101216C
:101B90000804FEF701FF6EE03A48844204D10121B7
:101BA0004804FEF7F9FE66E03748844204D101217B
:101BB0008804FEF7F1FE5EE03448844204D101213E
:101BC000C804FEF7E9FE56E03148844204D1012101
:101BD0000805FEF7E1FE4EE02E48844204D10121C3
:101BE0004805FEF7D9FE46E0B4F1804F04D101214B
:101BF0000846FEF7C1FE3EE02748844204D1012199
:101C00000220FEF7B9FE36E02448844204D10121C7
:101C10000420FEF7B1FE2EE02148844204D10121C8
:101C20000820FEF7A9FE26E01E48844204D10121C7
:101C30001020FEF7A1FE1EE01B48844204D10121C2
:101C40002020FEF799FE16E01848844204D10121B5
:101C50004020FEF791FE0EE01548844204D1012198
:101C60008020FEF789FE06E01248844203D101215C
:101C70008015FEF781FE10BD002C014000340140AC
:101C8000004001400044014000480140004C014038
:101C90000050014000540140000400400008004092
:101CA000000C0040001000400014004000180040EC
:101CB000001C00400020004070B5044640F2255151
:101CC0002068FFF79AF970B12068FFF7C0F9054660
:101CD000E06810B1E8B2E168884740F22551206819
:101CE000FFF77CF90EE040F227712068FFF785F9D5
:101CF00040B1206908B12069804740F2277120680F
:101D0000FFF76CF970BD000010B504460748FFF7F7
:101D1000E1FA00BF06480068008900F002000028D0
:101D2000F8D003480068848110BD0000AC2A000888
:101D30005000002010B504460748FFF7D2FA00BF54
:101D400006480068008900F002000028F8D0034827
:101D50000068848110BD0000AC2A000850000020FB
:101D600010B591EA030F48BF83F0004300F14483AC
:101D7000841A71EB030C05D2121943EB0C03001B00
:101D800061EB0C01DFF824E14FEA1154A4EB135C82
:101D90001EEA430F18BF9EEA445F73D023EA0E0386
:101DA000DCF1200E21EA045143F4801332D322FAED
:101DB0000CFE10EB0E0023FA0CFE41EB0E01CCF1F1
:101DC000200E03FA0EFE10EB0E0051F10001B1F5EA
:101DD000801FCCF1200E32D201EB045112FA0EF228
:101DE000BDE8104058BF7047401C38BF5FEA420250
:101DF00018BF7047002814BF20F0010041F1000116
:101E00004FEA410313F5001F38BF7047A1F1C041ED
:101E100000F0E4BA012A43EB0302ACF1200CDCF140
:101E20001F0E32BF4FF0000E23FA0CF310EB03002D
:101E300041EB0451B4EB115FD0D0A1EB045101F59B
:101E4000801149085FEA300001EB04510ED350F1D4
:101E5000000038BF12FA0EFE08D1BDE81040C9E7F5
:101E6000401C38BF5FEA4202CAD1C3E7BDE8104058
:101E70004FEA410313F5001F38BF7047A1F1C0417D
:101E800000F0ACBA9EEA445F08D011EA5E0FBDE8EC
:101E9000104004BF01F0004100207047BDE8104031
:101EA00070B500F04DFA00BF64FBBE3E0000E0FFDD
:101EB0002DE9C04130B4DFF8A0C23CEA111418BFCC
:101EC0003CEA131400F0EC8081EA03051CEA1114CB
:101ED00044EAD57418BF1CEA131500F0C780A4EBC0
:101EE00005044FF0004545EAC12145EAC32341EA14
:101EF000505143EA525304F17F74994204F500347F
:101F00004FEAC0204FEAC22208BF904200F09C80F6
:101F10004FEA13650FF24016765D4FEA134506FB54
:101F200005F7C7F1807706FB07F74FEAD737A7FB1E
:101F300003687642C8F58038A7FB06CE38BFA8F103
:101F4000010807FB08E64FF0000EA6FB028CE6FB3B
:101F500003CEDCF1000CCEF1004E38BFAEF1010E25
:101F6000A6FB0C584FF000074FF00005E6FB0E876C
:101F7000A1FB08C6A0FB07CE16EB0E0645F1000537
:101F8000E1FB076515F1E04E7EBFA4F580345FEA02
:101F900046066D4116F1800745F100054FEA172707
:101FA0004FEA066647EA0567A6F1DE46B6F1805FAE
:101FB0004FEA15251FD9384624F0010C05EBC471F2
:101FC000BCF1FE6F01EB0C1102D8F0BCBDE8008142
:101FD00024425CBF01F5801E9EEAC47F02D4F0BC9F
:101FE000BDE80081244238D4F0BCA1F1C041BDE875
:101FF000004100F0F3B94FEAD22242EA43524FEADD
:10200000D323A7FB02864FEAD02040EA415007FBCA
:1020100003661EEA0E0F4FEAD12105FB026658BF88
:10202000A6EB0056B6EB00564FEA520E4EEAC37EC0
:1020300018EB0E0E56EB530EBDD518EB02085E41A1
:102040007F1C55F10005B6E74FF480154FF00007EF
:102050004FF000064FF00008ADE7F0BC4FF0000075
:1020600001F1C04101F00041BDE8008111EA0C1FFF
:102070000CEA131500D00CE013EA0C1F00F02580C9
:102080004FF00000F0BC81EA030101F00041BDE81F
:102090000081F0BCBDE8004181EA030100F09EB977
:1020A000F0BCBDE8004170B500F04AF9097EFC3E85
:1020B00000F007B881EA03014FF0000001F0004191
:1020C000704781EA030100F089B9F0BCBDE8004126
:1020D0004FF0000021497047FFFDFBF9F7F5F4F2DE
:1020E000F0EEEDEBE9E8E6E4E3E1E0DEDDDBDAD8B3
:1020F000D7D5D4D3D1D0CFCDCCCBCAC8C7C6C5C411
:10210000C2C1C0BFBEBDBCBBBAB9B8B7B6B5B4B327
:10211000B2B1B0AFAEADACABAAA9A8A8A7A6A5A412
:10212000A3A3A2A1A09F9F9E9D9C9C9B9A999998D6
:102130009797969595949393929191908F8F8E8E79
:102140008D8C8C8B8B8A8989888887878685858406
:1021500084838382828181800000FF070000F87FF2
:102160004FEA41034FEA5353A3F58063D3F11E03B3
:10217000C8BFD3F1210C0CDD4FF0004242EAC1226E
:1021800042EA505232FA03FC8CEAE17CACEBE1709B
:102190007047102BC4BF0020704703F5787CBCF15A
:1021A000FF3F04D06FF0004282EA2100704770B513
:1021B00000F0C6F84992248000207047F2E710F042
:1021C000004248BF4042B0FA80F310FA03F10AD04F
:1021D000C3F11D0303F580634FEA415002EB035244
:1021E00002EBD12170474FF000007047DFF848C183
:1021F00070B51CEA111E1EBF1CEA13159EEA0C0FD7
:1022000095EA0C0F00F06F8081EA030423EA4C1377
:102210004EEAD47E21EA4C1141F4801143F480133C
:10222000AE44A1FB024CA0FB0365AEF17F7E3619E4
:1022300055EB0C05A1FB034C4CF10003A0FB021C69
:1022400016EB0C06654153F10003094218BF46F036
:10225000010613F4007F0BD14FEA03314FEA05303A
:10226000340341EA155140EA16506FF003020AE0C8
:102270004FEAC3214FEAC520F40241EA555140EA32
:1022800056506FF0020202EB2E4201EB025585EA36
:10229000CE710AD05FEA440C18BF24F0004450F11C
:1022A000000041F1000120EAD47040F2FE7C62455A
:1022B00000D270BDA84214BF4FF080444FF040449C
:1022C000002E08BF0024BEF1806FA8BFA1F1C0415D
:1022D000BDE8704080F282804FF0000001F1C04103
:1022E00001F0004170479EEA0C0F0CEA131518BF6D
:1022F00095EA0C0F06D04FF0000081EA030E0EF0B5
:10230000004170BD00F01CF88900013E00F007B8E4
:1023100000F009B84FEA430C5FEA5C5C08D081EA40
:10232000030100F05BB84FEA410C5FEA5C5CF6D158
:102330004FF00000014970470000FF070000F87FE0
:102340000EF1020E2EF0030E5EF8046B364205D439
:10235000012A43EB030515F5001F12D8012841EBB4
:10236000010C1CF5001F0CD80ED14FEAD17C15F5DD
:10237000001F0CEB4C0C0CF1020C08BF4CEBD37C97
:1023800004E04FF0080C01E04FEAD37C0CEB4C0565
:1023900026FA05F606F00706B6F1040C06D20EEB97
:1023A000860CBDE870404CF0010C6047DFE80CF093
:1023B000090B02024FF000414FF00000A1F500218F
:1023C00070BD19461046012851EB010418BFD4F521
:1023D000001484BF002001F0004170BD0808A0F582
:1023E00000114FEA3101704710B591EA030F48BF61
:1023F00083F000433FF5BCAC841A71EB030C07D2A9
:1024000012198CF0004C43EB0C03001B61EB0C0128
:10241000DFF8A4E14FEA1154A4EB135C1EEA430F6A
:1024200018BF9EEA445F00F0B08023EA6E03524278
:1024300021EA0451C3EB6E0338BF5B1EDCF1200EB2
:1024400025D322FA0CFE10EB0E0043FA0CFE41EBF2
:102450000E01CCF1200E03FA0EFE10EB0E0051F12E
:102460000001CCF1200E29D412FA0EF201EB045136
:10247000BDE8104058BF7047401C1CBFB2F1004F70
:10248000704700280CBF491C20F00100704712EB78
:10249000020E43EB030218BF4FF0010E4EEA420258
:1024A000ACF1200CDCF11E0E54D943FA0CFE10EBFB
:1024B0000E0051F1FF31CCF11E0ED5D50EF1010EFB
:1024C00012FA0EFE404141EB010101EB445C5FEA70
:1024D0005C5C10D910EBDE7001EB045138BFBEF12B
:1024E000004FBDE8104018BF704700280CBF491CC2
:1024F00020F00100704730D24FEAD42C11F50011C2
:1025000024F400641BD0B1FA81F20B3AA41AA41E81
:10251000D2F12003914030FA03F31943904001EBCC
:10252000CC71002C01EB0451BDE81040A8BF7047EE
:1025300001F1C0414FF0000001F000417047B0FAD6
:1025400080F310FA03F100D110BDE41A173C4805DE
:10255000C90AE4E701EB045110BD491001EB045135
:10256000BDE810404FEA300002E04FF00001704734
:102570004A0008BF0042F8D0B2F5001F28BF7047DC
:1025800001F000414FF0000070479EEA445F07D021
:1025900011EA5E0FBDE8104004BF00210020704723
:1025A000BDE8104070B5FFF7CBFE00BF40DFF63E40
:1025B00083F00041104670470000E0FF4FF47F0CAD
:1025C0001CEAD0121EBF1CEAD11392EA0C0F93EA48
:1025D0000C0F00F0858090EA010F48BF42F4807232
:1025E00040F4000C41F400002CF07F4120F07F40CB
:1025F00000B58142A2EB03020FF2081CACEB504E77
:10260000C0F100009EF800E04FEA4E0E00FB0EFC09
:1026100038BF49004FEA2C1C02F5FA020CFB0EF3FE
:102620004FEACE1E4FEA112C4FEAC1210EEB635E3A
:1026300042EB22420EFB0CFC4FEA1C5300FB031141
:102640004FEA112C4FEA01310EFB0CFC4FEADC4C37
:1026500000FB0C11C14228BF09184CEB03335DF895
:1026600004EB10EB410143EBC250B2F57C0F38BFD5
:10267000704729D512F0F00F1CBF00F1C04000F0E8
:1026800000407047008182838485868788898B8C8F
:102690008D8E8F919293959697999A9C9D9FA0A2CB
:1026A000A3A5A7A8AAACAEB0B2B3B5B7B9BCBEC01B
:1026B000C2C5C7C9CCCED1D4D7D9DCDFE2E6E9ECBC
:1026C000F0F3F7FAFE0000004FEA400C0CF1807CBA
:1026D000BCF17E4F28BF7047B0F1C04000F02BB96D
:1026E00090EA010F0CEAD11348BF42F480726245B0
:1026F00038BF634507D213F47F0F16D080EA01007C
:1027000000F00040704710B500F0CFF8097EFC3EA5
:1027100000F005B880EA010000F00040704780EA50
:10272000010000F0004000F006B912F47F0F04BF72
:102730000248704780EA010000F0FDB80000C07F49
:1027400041000B0ED3F19E0208D950F400034FEA6A
:10275000032323FA02F048BF4042704710B500F04F
:10276000A4F800BF49922480002070476FF0004217
:1027700082EA20007047000010F0004148BF40424C
:10278000B0FA80F310FA03F2C3F19D030BD051EAC3
:10279000C35101EB1220530638BF704700F101000E
:1027A00008BF20F0010070474FF47F0C1CEAD012E4
:1027B0001EBF1CEAD11392EA0C0F93EA0C0F00F033
:1027C000478090EA010F48BF42F480724FF0004CFE
:1027D0004CEA00204CEA012102EB0302A0FB0113AA
:1027E000A2F50002002918BF43F001035B0028BFD7
:1027F0004FEA330342EB22425FEA132C4CEBC25008
:102800002EBFBCEB436FB2F57C0F70474FEA036CF1
:10281000BCF1004F08BF20F00100B2F57C0F38BFBB
:1028200070470BD582F0FF0212F5803FC8BF70479A
:1028300000F1C040D8BF00F00040704700F5000C28
:102840005FEA4C0C48BF7047B0F1C04000F073B86D
:1028500090EA010F0CEAD11348BF42F4807262453E
:1028600038BF634504D280EA010000F000407047A1
:1028700010B500F01AF800BF8900013E00F007B85B
:1028800000F009B85FEA410C5FEA1C6C08D080EAEE
:10289000010000F050B85FEA400C5FEA1C6CF6D112
:1028A0004FF00040A0F5800070470EF1020E2EF0B0
:1028B000030E5EF8044B244204D44FEA4102B2F105
:1028C0007F4F11D84FEA4003B3F17F4F0CD80ED1A0
:1028D0004FEAD07CB2F17F4F0CEB4C0C0CF1020CA8
:1028E00008BF4CEBD17C04E04FF0080C01E04FEA4C
:1028F000D17C0CEB4C0324FA03F404F00704B4F18C
:10290000040C06D20EEB840CBDE810404CF0010C18
:102910006047DFE80CF0070802024FF00040A0F526
:10292000800010BD0846420018BFD2F1807288BFF7
:1029300000F0004010BDFF2141EAD050C0057047B3
:1029400000080140010000000008014002000000F2
:1029500000080140040000000008014008000000D9
:102960000008014000010000000801400080000054
:10297000000C014000040000000C014000080000B1
:10298000001001400800000000100140400000005D
:102990000010014080000000001001400001000014
:1029A000001001400002000000000000682900083B
:1029B0003400004003000000782900084000004077
:1029C00002000000702900083C00004000000000E8
:1029D0008829000834040040802900080100000014
:1029E0009029000838040040602900080200000017
:1029F000982900083C040040A029000800000000BD
:102A000040290008340C004001000000482900085B
:102A1000380C004002000000502900083C0C004027
:102A20000300000058290008400C00400008014045
:102A300000020000000801400004000000100140F6
:102A4000000400000010014000080000000C0140DC
:102A500000200000000C014000400000000C01407C
:102A60000080000000080140010000000008014053
:102A700002000000000801400400000000080140BE
:102A8000080000000008014010000000000801409C
:102A90002000000000080140400000000008014044
:102AA00080000000000C014000100000000C0140FC
:102AB0000040000000000000003E5B4F5B3E3E6BAC
:102AC0004F6B3E1C3E7C3E1C183C7E3C181C577DC8
:102AD000571C1C5E7F5E1C00183C1800FFE7C3E714
:102AE000FF0018241800FFE7DBE7FF30483A060E26
:102AF0002629792926407F050507407F05253F5A6D
:102B00003CE73C5A7F3E1C1C08081C1C3E7F1422DC
:102B10007F22145F5F005F5F06097F017F00668987
:102B2000956A606060606094A2FFA29408047E04CD
:102B30000810207E201008082A1C08081C2A0808F3
:102B40001E101010100C1E0C1E0C30383E383006B3
:102B50000E3E0E06000000000000005F00000007AF
:102B6000000700147F147F14242A7F2A12231308DD
:102B7000646236495620500008070300001C2241B9
:102B8000000041221C002A1C7F1C2A08083E08085D
:102B9000008070300008080808080000606000200D
:102BA000100804023E5149453E00427F40007249F0
:102BB0004949462141494D331814127F1027454594
:102BC00045393C4A494931412111090736494949AA
:102BD00036464949291E0000140000004034000018
:102BE0000008142241141414141400412214080281
:102BF000015909063E415D594E7C1211127C7F49F4
:102C00004949363E414141227F4141413E7F494948
:102C100049417F090909013E414151737F08080874
:102C20007F00417F41002040413F017F0814224145
:102C30007F404040407F021C027F7F0408107F3E9F
:102C40004141413E7F090909063E4151215E7F090C
:102C5000192946264949493203017F01033F404073
:102C6000403F1F2040201F3F4038403F631408145E
:102C70006303047804036159494D43007F41414196
:102C80000204081020004141417F04020102044077
:102C900040404040000307080020545478407F28FB
:102CA0004444383844444428384444287F385454F1
:102CB000541800087E090218A4A49C787F08040414
:102CC0007800447D40002040403D007F10284400B3
:102CD00000417F40007C047804787C080404783844
:102CE00044444438FC1824241818242418FC7C0874
:102CF000040408485454542404043F44243C4040F1
:102D0000207C1C2040201C3C4030403C44281028A3
:102D1000444C9090907C4464544C440008364100EC
:102D20000000770000004136080002010204023C66
:102D30002623263C1EA1A161123A4040207A385435
:102D400054555921555579412254547842215554AE
:102D5000784020545579400C1E5272123955555501
:102D600059395454545939555454580000457C41EC
:102D70000002457D420001457C407D1211127DF02C
:102D8000282528F07C545545002054547C547C0A56
:102D9000097F4932494949323A4444443A324A481F
:102DA00048303A4141217A3A42402078009DA0A023
:102DB0007D3D4242423D3D4040403D3C24FF242475
:102DC000487E4943662B2FFC2F2BFF0929F620C094
:102DD000887E090320545479410000447D413048E5
:102DE000484A32384040227A007A0A0A727D0D1928
:102DF000317D2629292F28262929292630484D408A
:102E000020380808080808080808382F10C8ACBA85
:102E10002F102834FA00007B000008142A14222204
:102E2000142A14085500550055AA55AA55AAFF554D
:102E3000FF55FF000000FF00101010FF00141414D5
:102E4000FF001010FF00FF1010F010F0141414FC1D
:102E5000001414F700FF0000FF00FF1414F404FC3A
:102E6000141417101F10101F101F1414141F00101B
:102E70001010F0000000001F101010101F10101094
:102E800010F010000000FF101010101010101010A3
:102E9000FF10000000FF140000FF00FF00001F10E3
:102EA000170000FC04F414141710171414F404F49D
:102EB0000000FF00F714141414141414F700F7148E
:102EC0001414171410101F101F141414F4141010DD
:102ED000F010F000001F101F0000001F1400000081
:102EE000FC140000F010F01010FF10FF141414FF79
:102EF000141010101F00000000F010FFFFFFFFFF74
:102F0000F0F0F0F0F0FFFFFF0000000000FFFF0F07
:102F10000F0F0F0F3844443844FC4A4A4A347E02AB
:102F2000020606027E027E0263554941633844442C
:102F30003C04407E201E2006027E020299A5E7A5E1
:102F4000991C2A492A1C4C7201724C304A4D4D3052
:102F50003048784830BC625A463D3E494949007E77
:102F60000101017E2A2A2A2A2A44445F444440510E
:102F70004A444040444A51400000FF0103E080FFC2
:102F8000000008086B6B083612362436060F090F4E
:102F900006000018180000001010003040FF01016A
:102FA000001F01011E00191D1712003C3C3C3C0093
:102FB00000000000D42F000800000020780100006D
:102FC00028010008D830000878010020C006000061
:102FD000840100081184A24A04D0090102030406F6
:102FE000070809163801402C2A1B083404D112485E
:102FF0001B403C149A441812101A1430111B404CF8
:10300000141A5404DA5C341211101E1246172018D8
:1030100014192F1A1E320429142C1E2A04427F4D23
:103020000963E064FF6520661267101413F00D81D8
:103030000FC5142122FF23012434253C26A12B1087
:103040001E6BAA13FF695D900A910192019301948E
:103050005F95539611971A983D995A9A1E9B103274
:103060009C25A765A8659E81A6067E0C7F16802AF2
:10307000814E8261836F847B8586868E879788A444
:1030800089AF8AC58BD78CE88D20A980AA80ACFF38
:103090003316229923034A100E491347084B144C48
:1030A0001746050CD00E924D1A64B4320F2A6C08E4
:1030B00022012A740822022A7C0822032A84082278
:1030C000042A8C0822052A940822062A9C087207E2
:0830D0007A10F1D11A7750814A
:04000005080000ED02
:00000001FF
