:020000040800F2
:1000000030080020C9010008D1010008D301000810
:10001000D5010008D7010008D90100080000000040
:10002000000000000000000000000000DB010008EC
:10003000DD01000800000000DF01000825080008BD
:10004000E3010008E3010008E3010008E301000800
:10005000E3010008E3010008E3010008E3010008F0
:10006000E3010008E3010008E3010008FD020008C5
:10007000E3010008E3010008E3010008E3010008D0
:10008000E3010008E301000885020008E30100081D
:10009000E3010008E3010008E3010008E3010008B0
:1000A000E3010008E3010008E3010008E3010008A0
:1000B000E3010008E3010008E3010008E301000890
:1000C000E3010008E3010008E3010008E301000880
:1000D00059060008AD080008E3010008BD08000843
:1000E00065030008E3010008E301000800F002F8DE
:1000F00000F05AF80AA090E8000C82448344AAF168
:100100000107DA4501D100F04FF8AFF2090EBAE865
:100110000F0013F0010F18BFFB1A43F0010318473B
:1001200064140000841400000A444FF0000C10F81E
:10013000013B13F0070408BF10F8014B1D1108BF65
:1001400010F8015B641E05D010F8016B641E01F805
:10015000016BF9D113F0080F1EBF10F8014BAD1C55
:100160000C1B09D16D1E58BF01F801CBFAD505E073
:1001700014F8016B01F8016B6D1EF9D59142D6D3CD
:10018000704700000023002400250026103A28BFF5
:1001900078C1FBD8520728BF30C148BF0B607047F9
:1001A0001FB51FBD10B510BD00F031F81146FFF7A7
:1001B000F7FF00F01DFC00F04FF803B4FFF7F2FF6B
:1001C00003BC00F057F80000094880470948004781
:1001D000FEE7FEE7FEE7FEE7FEE7FEE7FEE7FEE7F7
:1001E000FEE7FEE704480549054A064B7047000054
:1001F0004D080008ED000008300200203008002003
:100200003004002030040020704770477047754666
:1002100000F02CF8AE4605006946534620F0070072
:10022000854618B020B5FFF7DDFFBDE820404FF050
:1002300000064FF000074FF000084FF0000B21F0D0
:100240000701AC46ACE8C009ACE8C009ACE8C0099D
:10025000ACE8C0098D46704710B50446AFF3008086
:100260002046BDE81040FFF7A8BF000000487047D7
:10027000CC01002001491820ABBEFEE72600020099
:100280007047000010B54FF408710B4800F023F8D8
:1002900088B1094800F01BF80849094A127821F88A
:1002A000120007480078401C054908704FF4087197
:1002B000014800F007F810BD002401406C01002047
:1002C0006001002000220A12D343036070470146F8
:1002D000C86C80B2704770B502460020002300242D
:1002E0000B125568CEB205EA060415681D4015B11B
:1002F0000CB1012000E0002070BD000010B502200C
:1003000000F01AF838B104480078401C024908701F
:10031000022000F003F810BD6001002000F08051C1
:1003200011B10349086001E00249486070470000CC
:10033000040402400000024001460020002201F0B7
:10034000805313B1054B1A6801E0054B1A6802EAA5
:1003500001030BB1012000E00020704700040240BF
:100360000000024010B54FF4805000F031F810B397
:100370001148007888B904201049086080021049AB
:10038000086001200C49087000030D49091F08602E
:1003900004200A49091F086009E00748007801287D
:1003A00005D10003064908600220034908704FF494
:1003B000805000F007F810BD08010020141401401F
:1003C000140801400149086070470000140401400E
:1003D000014600200022074B1B6803EA0102054B7F
:1003E00014331B680B4013B10AB1012000E0002058
:1003F00070470000000401402DE9F041024600254D
:100400000026002000230024002791F803C00CF0F0
:100410000F0591F803C00CF0100CBCF1000F03D0D5
:1004200091F802C04CEA050591F800C0BCF1000F3C
:1004300031D0146800202BE04FF0010C0CFA00F3CF
:10044000B1F800C00CEA03069E4220D183004FF0B1
:100450000F0C0CFA03F7BC4305FA03FC4CEA040446
:1004600091F803C0BCF1280F06D14FF0010C0CFA33
:1004700000FCC2F814C00AE091F803C0BCF1480FB8
:1004800005D14FF0010C0CFA00FCC2F810C0401C62
:100490000828D1D31460B1F800C0BCF1FF0F34DDDF
:1004A000546800202EE000F1080C4FF0010808FA13
:1004B0000CF3B1F800C00CEA03069E4221D1830080
:1004C0004FF00F0C0CFA03F7BC4305FA03FC4CEA9F
:1004D000040491F803C0BCF1280F05D100F1080C09
:1004E00008FA0CF8C2F8148091F803C0BCF1480F68
:1004F00007D100F1080C4FF0010808FA0CF8C2F817
:100500001080401C0828CED35460BDE8F081000064
:10051000F0B50A46002300240021002500F0004623
:10052000B6F1004F02D11D4EF16901E01B4E71681A
:10053000C0F3034583B200F44016B6F5401F08D15E
:1005400021F07061154E766826F07066134F7E605C
:1005500012E000F48016B6F5801F06D1032606FAD5
:1005600005F4A14341F0706106E0460D360103FA3F
:1005700006F6B14341F0706122B1460D360103FA2F
:1005800006F6314300F00046B6F1004F02D1034EAB
:10059000F16101E0014E7160F0BD0000000001401A
:1005A000416170470161704770B5002100230F223F
:1005B000C47804B3154C246804F4E064C4F5E06422
:1005C000210AC1F10403CA40447804FA03F1847893
:1005D0001440214309010E4C0678A155047804F01B
:1005E0001F050124AC4005786D11AD0005F1E02533
:1005F000C5F8004109E0047804F01F050124AC406F
:10060000044D0678761145F8264070BD0CED00E0EB
:1006100000E400E080E100E029B1064AD26902432B
:10062000044BDA6104E0034AD2698243014BDA6188
:10063000704700000010024029B1064A9269024347
:10064000044B9A6104E0034A92698243014B9A6128
:10065000704700000010024010B5024800F0DEFBB9
:1006600010BD00005000002021B1028842F4005269
:10067000028004E002884DF6FF731A400280704742
:1006800021B1028842F04002028004E002884FF665
:10069000BF731A400280704710B5002201F00F04AA
:1006A0000123A3409AB2D343038110BDF0B50246A3
:1006B000002000240023002501F00F070126BE4082
:1006C000B4B20B1101269E40B3B2968806EA030528
:1006D0001689264016B10DB1012000E00020F0BDC2
:1006E00001468889704710B50022028802F4415201
:1006F0000B884C8823438C882343CC8823430C8964
:1007000023434C8923438C892343CC8923431A43B5
:100710000280838B4FF2FF74234083830B8A038212
:1007200010BD21B1828842F00402828004E08288F8
:100730004FF6FB731A408280704710B500F002F844
:1007400010BD00000CB500200190009033480068F7
:1007500040F480303149086000BF3048006800F440
:10076000003000900198401C0190009818B9019841
:10077000B0F5A06FF1D12948006800F4003010B145
:100780000120009001E0002000900098012843D152
:100790002348006840F010002149086008460068BE
:1007A00020F0030008600846006840F0020008607E
:1007B0001A48406819494860084640684860084639
:1007C000406840F4806048600846406820F47C102F
:1007D00048600846406840F4E810486008460068F1
:1007E00040F08070086000BF0C48006800F00070A6
:1007F0000028F9D00948406820F003000749486004
:100800000846406840F00200486000BF0348406866
:1008100000F00C000828F9D10CBD000000100240C7
:100820000020024006480068401C05490860054851
:100830000068401E034908600020034908707047A3
:1008400014000020180000201C00002010B51348E0
:10085000006840F0010011490860084640681049EE
:1008600008400E494860084600680E4908400B4998
:1008700008600846006820F4802008600846406848
:1008800020F4FE0048604FF41F008860FFF755FF1A
:100890004FF000600449086010BD000000100240E5
:1008A0000000FFF8FFFFF6FE08ED00E010B502487B
:1008B00000F03AFB10BD00002000002010B50248F7
:1008C00000F032FB10BD00003800002010B50022FF
:1008D000002340F66A14A14200D100BF0A1201248D
:1008E0009440A3B2DC43048010BD70B502460024DE
:1008F00000230025002040F66A16B14200D100BF57
:10090000C1F3421501F01F03012606FA03F3012D7E
:1009100002D19689334006E0022D02D1168A334077
:1009200001E0968A33400C12012606FA04F4168878
:10093000344013B10CB1012000E0002070BD01462D
:100940008888C0F30800704710B501210846FFF7FA
:1009500073FE10BD0349086000BF02490968002901
:10096000FBD1704718000020014800687047000064
:100970001400002038B504460D4603208DF802000F
:100980008DF80350A088ADF8000069462068FFF795
:1009900033FD38BD38B504460D4603208DF80200FE
:1009A0008DF80350A088ADF8000069462068FFF775
:1009B00023FD38BD38B504460D4603208DF80200EE
:1009C0008DF80350A088ADF8000069462068FFF755
:1009D00013FD38BD10B50446A1882068FFF7E0FD7F
:1009E00010BD10B50446A1882068FFF7DBFD10BDDF
:1009F00000F09EF800F056FA00F02EF800F0BCFA75
:100A000015E000BFFFF7B0FF094909688842F9D037
:100A1000FFF7AAFF0649086008460068054909680B
:100A2000401A192803D30248006802490860E8E721
:100A3000640100206801002010B5002280211046CA
:100A400000F0A2F84FF4806403E0002000F0B8FA50
:100A5000641E002CF9D110BD08B500204FF482733C
:100A60004FF44042014600902E4800F0A5F81021B6
:100A70002D48FFF78FFF10212C48FFF78BFF00F068
:100A80006FF8AE2000F086FAD52000F083FA8020BF
:100A900000F080FAA82000F07DFA3F2000F07AFAFA
:100AA000D32000F077FA002000F074FA402000F024
:100AB00071FA8D2000F06EFA142000F06BFAA1207C
:100AC00000F068FAC82000F065FADA2000F062FA57
:100AD000122000F05FFA812000F05CFACF2000F0D5
:100AE00059FAD92000F056FAF12000F053FADB2031
:100AF00000F050FA402000F04DFA202000F04AFAB1
:100B0000002000F047FAA42000F044FAA62000F0EC
:100B100041FAAF2000F03EFA6420FFF71BFFFFF719
:100B20008BFF08BD50000020641000086C10000806
:100B300010B5FFF709FF01210420FFF77DFD01211A
:100B40000820FFF779FD01211020FFF775FD012135
:100B50002020FFF771FD01214020FFF76DFD10BD42
:100B600010B50848FFF73DFF6420FFF7F3FE054886
:100B7000FFF730FF6420FFF7EDFE0248FFF731FF7B
:100B800010BD00006410000870B506460C461546FE
:100B9000212000F0FFF9304600F0FCF9611EC8B2D8
:100BA00000F0F8F9222000F0F5F9284600F0F2F9FB
:100BB000072000F0EFF970BD2DE9F04186B0044642
:100BC0000F4615461E46DDF83080206800F04AF9D1
:100BD00018216068FFF7CEFE05F4004048B1B6F575
:100BE000827F01D1A16800E0E16808461821FFF783
:100BF000C1FE05F4404048B1B6F5827F01D1E168FD
:100C000000E0A16808461821FFF7B4FE206901281A
:100C10007ED020690228FBD020690428F8D0206902
:100C20000828F5D06A4920698842F1D06849203106
:100C300020698842ECD0674920698842E8D065493C
:100C400080312069884263D06349206988425FD03F
:100C50006249206988425BD061492069884257D047
:100C600060492069884253D05F49206988424FD04B
:100C70002069B0F5805F4BD02069B0F5EA1F7CD0C9
:100C80002069B0F5EB1F78D02069B0F5004F74D023
:100C900056492069884270D0491C206988426CD02E
:100CA000891C2069884268D0091D2069884264D067
:100CB0004E490F31206988425FD02069B0F1201F72
:100CC0005BD04FEAF1312069884256D0484920690B
:100CD000884252D04749206988424ED0464920690F
:100CE00088424AD045492069884246D04449206913
:100CF000884242D02069B0F5011F3ED041492069A9
:100D000088423AD0491C2069884236D0891C00E0CC
:100D100033E02069884230D0091D206988422CD0F8
:100D200038490F312069884227D036491F31206960
:100D3000884222D033493F31206988421DD0314951
:100D40007F312069884218D02E49FF3120698842BE
:100D500013D02D49206988420FD02C492069884240
:100D60000BD02B492069884207D02A492069884244
:100D700003D029492069884203D101212069FFF766
:100D8000C7FBADF80450ADF80660ADF8088002204E
:100D9000ADF80A000120ADF80C004002ADF80E00DD
:100DA000ADF810700020ADF8120001A92068FFF71F
:100DB0009AFC01212068FFF763FC00212068FFF7FF
:100DC00053FC00212068FFF7ACFC06B0BDE8F081C1
:100DD0001000140040001600000118000002180066
:100DE0000003180000081A00000C1A00010020007F
:100DF000000130000002300000043000001120002B
:100E0000002020000100008000020080000400801B
:100E100000080080001000800020008070B50446AB
:100E200060212068FFF742FC68B12068FFF758FC9A
:100E30000546606910B1E8B26169884760212068A1
:100E4000FFF72AFC0DE071212068FFF72FFC40B16D
:100E5000A06910B1A1692068884771212068FFF757
:100E60001BFC70BD10B504460B48844204D101211F
:100E70008014FFF7E1FB0EE00848844204D1012111
:100E80000014FFF7C9FB06E00548844203D10121A5
:100E9000C013FFF7C1FB10BD003001400038004017
:100EA000003C004038B500208DF801008DF80200AC
:100EB00001208DF80300FF208DF800006846FFF741
:100EC00073FB154800684FF47A72B0FBF2F1481ECC
:100ED000B0F1807F00D31BE0481E4FF0E02250614C
:100EE00050170F22002804DB13071C0E0B4B1C5459
:100EF00006E013071D0E0A4B00F00F04241F1D55BA
:100F000000BF00204FF0E02290610720106100BF79
:100F100000200449086038BD0000002000E400E023
:100F200018ED00E01400002070B5044640F2255191
:100F30002068FFF7DAFC70B12068FFF700FD054676
:100F4000E06810B1E8B2E168884740F225512068B6
:100F5000FFF7BCFC0EE040F227712068FFF7C5FCEC
:100F600040B1206908B12069804740F227712068AC
:100F7000FFF7ACFC70BD000010B510210348FFF76F
:100F800019FD28210248FFF715FD10BD7415000852
:100F90007C15000810B504460748FFF71BFD00BF8D
:100FA00006480068008900F002000028F8D00348D5
:100FB0000068848110BD00006C1000085000002003
:100FC00010B504460748FFF70CFD00BF064800684F
:100FD000008900F002000028F8D0034800688481EE
:100FE00010BD00006C1000085000002000080140F7
:100FF0000002000000080140000400000010014051
:10100000000400000010014000080000000C014036
:1010100000200000000C014000400000000C0140D6
:1010200000800000000801400100000000080140AD
:101030000200000000080140040000000008014018
:1010400008000000000801401000000000080140F6
:10105000200000000008014040000000000801409E
:1010600080000000000C014000100000000C014056
:101070000040000000000000003E5B4F5B3E3E6B06
:101080004F6B3E1C3E7C3E1C183C7E3C181C577D22
:10109000571C1C5E7F5E1C00183C1800FFE7C3E76E
:1010A000FF0018241800FFE7DBE7FF30483A060E80
:1010B0002629792926407F050507407F05253F5AC7
:1010C0003CE73C5A7F3E1C1C08081C1C3E7F142237
:1010D0007F22145F5F005F5F06097F017F006689E2
:1010E000956A606060606094A2FFA29408047E0428
:1010F0000810207E201008082A1C08081C2A08084E
:101100001E101010100C1E0C1E0C30383E3830060D
:101110000E3E0E06000000000000005F0000000709
:10112000000700147F147F14242A7F2A1223130837
:10113000646236495620500008070300001C224113
:10114000000041221C002A1C7F1C2A08083E0808B7
:101150000080703000080808080800006060002067
:10116000100804023E5149453E00427F400072494A
:101170004949462141494D331814127F10274545EE
:1011800045393C4A49493141211109073649494904
:1011900036464949291E0000140000004034000072
:1011A00000081422411414141414004122140802DB
:1011B000015909063E415D594E7C1211127C7F494E
:1011C0004949363E414141227F4141413E7F4949A3
:1011D00049417F090909013E414151737F080808CF
:1011E0007F00417F41002040413F017F08142241A0
:1011F0007F404040407F021C027F7F0408107F3EFA
:101200004141413E7F090909063E4151215E7F0966
:10121000192946264949493203017F01033F4040CD
:10122000403F1F2040201F3F4038403F63140814B8
:101230006303047804036159494D43007F414141F0
:101240000204081020004141417F040201020440D1
:1012500040404040000307080020545478407F2855
:101260004444383844444428384444287F3854544B
:10127000541800087E090218A4A49C787F0804046E
:101280007800447D40002040403D007F102844000D
:1012900000417F40007C047804787C08040478389E
:1012A00044444438FC1824241818242418FC7C08CE
:1012B000040408485454542404043F44243C40404B
:1012C000207C1C2040201C3C4030403C44281028FE
:1012D000444C9090907C4464544C44000836410047
:1012E0000000770000004136080002010204023CC1
:1012F0002623263C1EA1A161123A4040207A385490
:101300005455592155557941225454784221555408
:10131000784020545579400C1E527212395555555B
:1013200059395454545939555454580000457C4146
:101330000002457D420001457C407D1211127DF086
:10134000282528F07C545545002054547C547C0AB0
:10135000097F4932494949323A4444443A324A4879
:1013600048303A4141217A3A42402078009DA0A07D
:101370007D3D4242423D3D4040403D3C24FF2424CF
:10138000487E4943662B2FFC2F2BFF0929F620C0EE
:10139000887E090320545479410000447D4130483F
:1013A000484A32384040227A007A0A0A727D0D1982
:1013B000317D2629292F28262929292630484D40E4
:1013C00020380808080808080808382F10C8ACBAE0
:1013D0002F102834FA00007B000008142A1422225F
:1013E000142A14085500550055AA55AA55AAFF55A8
:1013F000FF55FF000000FF00101010FF0014141430
:10140000FF001010FF00FF1010F010F0141414FC77
:10141000001414F700FF0000FF00FF1414F404FC94
:10142000141417101F10101F101F1414141F001075
:101430001010F0000000001F101010101F101010EE
:1014400010F010000000FF101010101010101010FD
:10145000FF10000000FF140000FF00FF00001F103D
:10146000170000FC04F414141710171414F404F4F7
:101470000000FF00F714141414141414F700F714E8
:101480001414171410101F101F141414F414101037
:10149000F010F000001F101F0000001F14000000DB
:1014A000FC140000F010F01010FF10FF141414FFD3
:1014B000141010101F00000000F010FFFFFFFFFFCE
:1014C000F0F0F0F0F0FFFFFF0000000000FFFF0F62
:1014D0000F0F0F0F3844443844FC4A4A4A347E0206
:1014E000020606027E027E02635549416338444487
:1014F0003C04407E201E2006027E020299A5E7A53C
:10150000991C2A492A1C4C7201724C304A4D4D30AC
:101510003048784830BC625A463D3E494949007ED1
:101520000101017E2A2A2A2A2A44445F4444405168
:101530004A444040444A51400000FF0103E080FF1C
:10154000000008086B6B083612362436060F090FA8
:1015500006000018180000001010003040FF0101C4
:10156000001F01011E00191D1712003C3C3C3C00ED
:1015700000000000000801400100000000080140D8
:1015800002000000A4150008000000206C0100000B
:1015900028010008A81600086C010020C4060000FD
:1015A000840100081184A24A04D009010203040640
:1015B00007080916380140EC0F1B08F404D1124843
:1015C0001B40FC148B04101812101A1430111B400D
:1015D0000C141A14049A1C1C411211101E124617E6
:1015E000201814192F1A1E320429142C1E2A044202
:1015F0007F4D0963E064FF6520661267101413F0E5
:101600000D810FC5142122FF23012434253C26A17E
:101610002B101E6BAA13FF695D900A910192019332
:1016200001945F95539611971A983D995A9A1E9B6B
:1016300010329C25A765A8659E81A6067E0C7F16A4
:10164000802A814E8261836F847B8586868E879710
:1016500088A489AF8AC58BD78CE88D20A980AA8001
:10166000ACFF3316229923034A100E491347084B47
:10167000144C1746050CD00E924D1A24B4320F2A82
:101680002C0822012A340822022A3C0822032A4478
:101690000822042A4C0822052A540822062A5C083B
:0816A00072077A10F1D100007D
:04000005080000ED02
:00000001FF
