:020000040800F2
:10000000A0160020750200087D0200087F0200088B
:100010008102000883020008850200080000000039
:10002000000000000000000000000000870200083F
:1000300089020008000000008B02000881280008E7
:100040008F0200088F0200088F0200088F0200084C
:100050008F0200088F0200088F0200088F0200083C
:100060008F0200088F0200088F020008291E000876
:100070008F0200088F0200088F0200088F0200081C
:100080008F0200088F020008291C00088F02000858
:100090008F0200088F0200088F0200088D210008DF
:1000A0008F0200088F0200088F0200088F020008EC
:1000B0008F0200088F0200088F0200088F020008DC
:1000C0008F0200088F0200088F0200088F020008CC
:1000D000A1260008B92C00088F020008C92C0008CE
:1000E000952000088F0200088F02000800F002F837
:1000F00000F0B0F80AA090E8000C82448344AAF112
:100100000107DA4501D100F0A5F8AFF2090EBAE80F
:100110000F0013F0010F18BFFB1A43F0010318473B
:10012000AC620000CC6200000A444FF0000C10F8F2
:10013000013B13F0070408BF10F8014B1D1108BF65
:1001400010F8015B641E05D010F8016B641E01F805
:10015000016BF9D113F0080F1EBF10F8014BAD1C55
:100160000C1B09D16D1E58BF01F801CBFAD505E073
:1001700014F8016B01F8016B6D1EF9D59142D6D3CD
:10018000704700000023002400250026103A28BFF5
:1001900078C1FBD8520728BF30C148BF0B607047F9
:1001A0006E2900F0B381702900F0F582662905F010
:1001B000B884652905F0B584672905F0B284612902
:1001C00005F0B18403681B0A28BF41F0800169294A
:1001D00000F06081642900F05D81752900F05A818A
:1001E0006F2900F08282782900F0C182E92900F0AD
:1001F0001D82E42900F01A82F52900F01782EF2908
:1002000000F07F82F82900F0C0820368DB0928BF74
:1002100041F08001632900F0C387732900F0C8878B
:10022000E32900F0D387F32900F0D8870020704736
:100230001FB501F025F804000020002104F084FE21
:10024000401C60600020002104F068FEE0601FBDDB
:1002500010B510BD00F0E6FF1146FFF7E9FF03F00F
:1002600089F901F0C3F803B4FFF7F2FF03BC01F012
:100270000BF900000948804709480047FEE7FEE700
:10028000FEE7FEE7FEE7FEE7FEE7FEE7FEE7FEE746
:1002900004480549054A064B70470000A928000894
:1002A000ED000008A0100020A0160020A0120020E1
:1002B000A012002053EA020C00F069802DE9F04BF7
:1002C0004FF00006002B1FBFB3FA83F503FA05F4C5
:1002D00024FA05F65E4012BF1643B2FA82F502FA1E
:1002E00005F4C5F120051EBF22FA05FC44EA0C0402
:1002F000203556EA044C4FEA144418BF641C4FF0F2
:1003000000084FF00009904271EB030C39D300292B
:1003100019BFB1FA81F701FA07F6B0FA80F700FACF
:1003200007F6C7F120071EBF20FA07FC46EA0C06B5
:100330002037B6FBF4FCA7EB0507103F07F01F0BB7
:10034000CBF120060CFA0BFB2CFA06F644BFB346A1
:100350000026202FA4BF5E464FF0000B5BEA060C80
:1003600008BF4FF0010B19EB0B09ABFB027C48EB0C
:100370000608C01B06FB02CC0BFB03CC71EB0C0187
:10038000C1E70B46024641464846BDE8F08B13B52F
:100390004FF000004FF00001AFF30080BDE81C40BB
:1003A000704700001CB50C46064B7B446946009024
:1003B000204600F0C4F804460020694600F0D2F858
:1003C00020461CBDB701000070477047704770B5EC
:1003D000044685690068C10601D5302600E0202664
:1003E000C00707D070BDD4E9012130469047206A8C
:1003F000401C20626D1EF6D570BD70B5044685693F
:100400000078C00707D170BDD4E9012120209047B2
:10041000206A401C20626D1EF6D570BD09684A0531
:1004200001D540B27047C905FCD500B270470968D4
:100430004A0501D5C0B27047C905FCD580B27047E6
:1004400070B50C460546012A05D02878800600D5EF
:10045000EA69002302E0012305E05B1C934202D21B
:10046000E05C0028F9D1A869E618C01AA861286ADA
:10047000184428622846FFF7AAFF04E0D5E90121C5
:1004800014F8010B9047B442F8D32846FFF7B5FFA4
:1004900070BD00002DE9F041064600241068752962
:1004A000314616A510D0FFF7B9FF002802DA404206
:1004B00013A507E031688A0701D512A502E04907B4
:1004C00004D511A5012401E0FFF7B1FF00210A22A4
:1004D00006F1240709E0B0FBF2FCB0FBF2F302FBEB
:1004E0001C00303078541846491C0028F3D12346AC
:1004F0002A463046BDE8F04100F061BA0000000035
:100500002D0000002B000000200000001168026890
:10051000006A530501D508700AE0D30501D50880AB
:1005200006E0130603D5C217C1E9000200E0086027
:100530000120704701694A1C02610878704700B5C4
:100540008FB0CDE901310021059105497944CDE90C
:1005500003101146684600F029F90FB000BD0000F5
:10056000E5FFFFFF0A6802F8010B0A607047000010
:100570002DE9FF5F15468A460446DFF8AC80F84453
:100580000027D8E900103E46CDE9001010E03AF807
:1005900016106A4602A800F025FE411C07D02178FB
:1005A000890603D5E269391891420DD80744761CB3
:1005B0002078800602D5E069B84205DDAE42E6DB70
:1005C0003AF816000028E2D1A069C01BA0612046BD
:1005D000FFF7FDFED8E90010CDE90010002017E07C
:1005E0003AF818106A4602A800F0FCFDB0F1FF3F8F
:1005F00081460BD000250DF1080B05E0D4E901215F
:100600001BF8050090476D1C4D45F7D308F101001C
:10061000B0428046E4DB206A384420622046FFF77F
:10062000ECFEBDE8FF9F00004E5D00002DE9F041AB
:100630008046D21D22F007020025D2E90002F529EA
:1006400015A614D0011E72F1000106DA0023D0EBCA
:10065000030063EB020211A608E0D8F800108B0734
:1006600001D50FA602E0490701D50EA601251146C6
:10067000002408F1240704E000F05CF930323A5518
:10068000641C50EA0102F7D12B463246214640460F
:10069000BDE8F04100F093B9000000002D0000001B
:1006A0002B0000002000000030B4002100F12404E1
:1006B00008E002F00705D208303542EA4372DB0851
:1006C0006554491C52EA0305F3D10468002310A2C3
:1006D000250707D5A40600D421B1C46901230DA2C2
:1006E000641EC46130BC00F06AB910B504462146EE
:1006F0001068FFF79CFE02462046BDE8104000232C
:10070000D2E7D21D22F00701D1E90023CCE7000097
:100710000000000030000000F0B40D46018809051B
:1007200002D5214C7C4402E01F4C7C440E34002155
:1007300000F1240608E002F00F071209E75D42EA23
:1007400003721B097754491C52EA0307F3D102785C
:100750000023120704D5702D06D009B102231134ED
:100760002246F0BC00F02BB901231034F8E770B535
:1007700004460D4621461068FFF759FE02462946F9
:100780002046BDE870400023C6E7D21D22F00703D3
:10079000D3E90023C0E70368126843F02003036035
:1007A0000823C3610023B7E7B05B00002DE9F05FC9
:1007B000894604464FF0000ADFF874B1FB44C0F8E4
:1007C00020A02046E1688847002874D0252806D05C
:1007D000D4E901219047206A401C2062F1E70026FD
:1007E0005F462046E16888472028054607DB312D13
:1007F00005D2781910F8200C08B10643F1E7B007CC
:1008000001D526F00406C4F81CA00027C4F818A0DF
:100810002A2D09D0284602F069FB38B304EB87087B
:10082000303DC8F8185019E059F8041B204604EB75
:1008300087029161E1688847012F054618D1E06978
:10084000002820DA26F020061DE0D8F8180000EB7A
:10085000800005EB40003038C8F818002046E168F9
:100860008847054602F042FB0028EED1012F0AD04E
:100870002E2D08D12046E16888477F1C0546022FAF
:1008800046F02006C4DBA069002803DA404246F0A7
:100890000106A061F00701D026F010066C2D0BD0E8
:1008A000682D09D04C2D39D06A2D35D0742D35D016
:1008B0007A2D33D016E038E0E1682F46204688478D
:1008C000B842054609D16C2F26D04FF48060E1680C
:1008D000064320468847054604E06C2F1AD04FF4A3
:1008E000807006430DB3A5F14100192802D82035C8
:1008F00046F400664A462946204626604E46FFF7E3
:100900004FFC80B101280BD0F61D26F0070000F146
:10091000080956E74020E4E78020D8E70020D6E722
:1009200006F104094DE7284652E7206ABDE8F09F2A
:10093000405B000030B5B0F10A024FEA900E71F151
:1009400000034EEA817EB0EB0E0061EB91014FEAAD
:10095000101E4EEA017E10EB0E0041EB11114FEA22
:10096000102E4EEA016E10EB0E0041EB11214FEA02
:10097000104E4EEA014E10EB0E0041EB11414018B3
:1009800041F100014FEAD00040EA41704FEAD10145
:1009900010EB80054FEA810444EA907444EB0104B3
:1009A0006D1944EB0404521BA3414FF0000348BFF0
:1009B0000A3200D530BD401C41F1000130BD2DE9A7
:1009C000F0470D4699469246044600F12408016816
:1009D000880604D5E06921F01001216000E00120C3
:1009E000A84201DD471B00E00027A1697A1902EB4C
:1009F0000900081AA0612078C00602D42046FFF73B
:100A0000E6FC002608E0D4E901211AF80600904728
:100A1000206A401C761C20624E45F4DB2078C0061C
:100A20000AD52046FFF7D3FC06E0D4E901213020A7
:100A30009047206A401C2062381EA7F10107F4DCB1
:100A400007E0D4E9012118F805009047206A401C0E
:100A50002062281EA5F10105F3DC2046FFF7CDFC3E
:100A60002078000602D50220BDE8F0870120FBE7D0
:100A700070472DE9FF4F0C461E464FF0FF378BB0F5
:100A8000D2E90001DDF860800A908A46C1F30A5578
:100A900005B93D46002108464FF00000BAF1000FAD
:100AA00000F4400005DA00EB80004FF4400101EA59
:100AB00050004FEA9059B9F1010F00DDB9460A988C
:100AC00050EA4A000ED044F61050A5F2FF354543D7
:100AD0002F14B8F1000F1ED07542291E1EDDC9F17A
:100AE00000021CE0B8F1010F4FF0000001D03021EE
:100AF00003E0F24305E02154401CB042FBDB3046EA
:100B00000022002121540B99C1F80880C1E900207E
:100B10000FB0BDE8F08FBD1B6D1CDEE74A4600DA62
:100B2000694206A800F0F0FB06AB93E8070003ABB0
:100B300083E8070050460A9900F0ADFC8DE80700F5
:100B4000A0F500501F3800900398002D0ADD42F2F6
:100B50001F014A460844002303A90390684600F099
:100B600016FF09E0A0F500504A461F38002303A9EC
:100B70000390684600F020FF8DE807000004000C99
:100B800003D04FF0FF30410800E01046B8F1000FED
:100B900003D00022009215461EE0751E05D4FFF713
:100BA000C9FE303262556D1EF9D5B34601220843A5
:100BB00002D000227F1C04E02078302801D10022DE
:100BC0007F1E002A099784D01DE0112D07DAFFF758
:100BD000B1FE303262556D1C50EA0102F5D1084376
:100BE00002D00098C8B10EE00021681E05E0235C29
:100BF000625C63542254401E491C8142F7DBAB46C1
:100C0000A81B401E0990002004F80B000B98099ABD
:100C1000C0F80880C0E9002B7AE711264FF00008E1
:100C200057E72DE9F04F88460446D21D22F0070110
:100C300091B0D1E90001CDE90A0102F014F90246B0
:100C40000B98C00F01D02D2007E02068810701D547
:100C50002B2002E0202101EAC000032A099001D0E4
:100C6000072A05DB03464146204600F00DFB0BE159
:100C70002078800601D5E06900E00620B8F1650F14
:100C8000814606D0B8F1660F18D0B8F1670F70D161
:100C900031E00020B9F1110F009001DB112301E0D8
:100CA00009F101030AAA01A90CA8FFF7E2FEDDE998
:100CB0000C70002609F10105834647E001204B46F0
:100CC00000904FF000470AAA01A90CA8FFF7D1FE37
:100CD000DDE90DB00C995D46002610B909F101005F
:100CE0000D18B9EB050003D4C0F1FF3609F1010579
:100CF000A5EB09002BE0B9F1010F01DA4FF0010972
:100D00000020B9F1110F0090484601DD112300E0E9
:100D100003460AAA01A90CA8FFF7ABFEDDE90C7097
:100D20004D4600268346207800070AD4AB4500DAFA
:100D30005D4601A8012D04DD411911F8011C30297F
:100D400007D04F4502DA17F1040F04DA012082467A
:100D50000FE06D1EEEE7002F02DCED1B3E4403E0CA
:100D6000781CA84200DD7D1CB81B00F1010A4FF081
:100D700000472078000703D4AA4501DB4FF0FF3A73
:100D80000021B7F1004F0DF143088DF8431024D036
:100D900002202B23002F01DA7F422D230A21021E7D
:100DA000A0F1010000DC5FB197FBF1FC97FBF1F2D1
:100DB00001FB1C7C17460CF1300C08F801CDEEE766
:100DC000A8F1010003702188090501D5452100E043
:100DD0006521A0F1010800F8011C09980FA9A1EBF9
:100DE0000807FF1D00B10120411901EBEA70A1695C
:100DF0003844081A401EA0612078C00602D420465C
:100E0000FFF7E5FA099828B1D4E901219047206A53
:100E1000401C20622078C00622D52046FFF7D7FA72
:100E20001EE0002E04DBB34502DD01A8805D00E07A
:100E30003020D4E901219047206A401C2062761CB2
:100E4000AAF101005FEA000A0AD100F019FAC068AD
:100E50000168405CD4E901219047206A401C20626F
:100E6000281EA5F10105DCDC07E0D4E9012118F812
:100E7000010B9047206A401C2062381EA7F1010731
:100E8000F3DC2046FFF7B9FA032011B041E6000079
:100E90002DE9F04F04460D46D21D22F0070089B01F
:100EA000D0E900974846394601F0DDFF0246F80FC9
:100EB00001D02D2307E02068810701D52B2302E014
:100EC000202101EAC0038DF820300BB1012000E0A1
:100ED0000020032A824601D0072A04DB2946204647
:100EE00000F0D2F93FE12078800601D40D2500E022
:100EF000E569C7F30A560D2D49DA00214FEA175B61
:100F000008464FF00000002F00F4400007DA00EB25
:100F100080004FF4400100EBD07001EA60008115C1
:100F2000012901DD4FF0FF3100224FEA850CBCF1B1
:100F3000180F06D31346ACF118004FF08052C24090
:100F400003E04FF4801323FA0CF30CF10C0CBCF10A
:100F5000200F04D3ACF1200C09FA0CF001E007FAE1
:100F60000CF000294FF0004801DD18B90FE00ED158
:100F700040450CD319EB02095F4121B9404502D12C
:100F80009F4329EA0209BBEB175F00D0761C20883B
:100F9000000502D57B48784402E07A487844193845
:100FA00008AA302302F80A30037C0AF10101002E5E
:100FB0000AF1020A53546A4602DC4FF0300101E0A4
:100FC0004FF031014FF001088DF8001002D0A6F269
:100FD000FF3603E059EA470100D06B4E002D02DCDA
:100FE0002178090704D54FF002082E218DF8011051
:100FF000C44600210BE0C7F303433F01C35C491C17
:101000006D1E02F80830052908F1010801DA002DEB
:10101000F1DC00210CE000EB1973491C1B786D1EFC
:10102000082902F808304FEA091908F1010801DA25
:10103000002DF0DC21688B0602D516E0A8F101082E
:10104000E04505DD02EB080313F8013C302BF5D039
:10105000B8F1000F09DD02EB080313F8013C2E2B59
:1010600003D1090701D4A8F10108002D05DD3E21B7
:1010700002F808106D1E08F10108407C002E02F8ED
:10108000080008F1010804DA2D20764202F8080071
:1010900002E02B2002F808000A214FF47A70864201
:1010A00008F101080BDB96FBF0F3303302F808304F
:1010B00096FBF0F308F1010800FB136601E0642ED3
:1010C0000CDB642096FBF0F3303302F8083096FB1B
:1010D000F0F308F1010800FB136601E00A2E06DBBD
:1010E00096FBF1F0303002F8080008F1010896FB99
:1010F000F1F001FB1060303002F80800A16908F13E
:10110000010808EB050202EB0A00081AA06120782A
:10111000C00602D42046FFF75AF9216A08AE01EB57
:101120000A00206204E0D4E9012116F8010B90477F
:10113000BAF1010AF7D22078C00602D52046FFF79F
:1011400046F96E4609E016F8010B3E280FD0D4E9A7
:1011500001219047206A401C2062B8F10108F2D2B8
:101160002046FFF74AF909B00320BDE8F08F206A56
:101170002844206203E0D4E90121302090476D1E0D
:10118000EBD3F8E78A53000002FCFFFF10B5436978
:1011900013B1AFF3008001E0FFF752F9012010BD59
:1011A000127800F124010A7000224A700122EDE752
:1011B00011684FF0FF32E9E710B5436913B1AFF39F
:1011C000008001E0FFF7D4F9012010BD128800F182
:1011D000240182840022C2840122EDE711684FF0CD
:1011E000FF32E9E770B516460C46054600F040F8B8
:1011F000036893F80101012806D0FF2C0FD8185D71
:1012000068B101202C7070BDD3F807013246214629
:1012100003F2071303442846BDE8704018474FF017
:10122000FF3070BD754600F0EBF8AE46050069462C
:10123000534620F00700854618B020B5FFF728F880
:10124000BDE820404FF000064FF000074FF00008C7
:101250004FF0000B21F00701AC46ACE8C009ACE848
:10126000C009ACE8C009ACE8C0098D467047000071
:1012700010B500F005F8001D10BD00BFCD3C00000A
:1012800000487047601000202DE9F0411F460446D9
:1012900003260168072A01F4006004DB08B116A5E3
:1012A00005E016A503E008B115A500E015A521F09D
:1012B00010002060A069C01EA0610FB1401EA06197
:1012C0002046FFF784F84FB1D4E901213846904712
:1012D000206A401C2062C01C206206E0206AFAE7F7
:1012E000D4E9012115F8010B9047761EF8D220466B
:1012F000FFF783F8BDE8F0814E414E006E616E004D
:10130000494E4600696E66002DE9F0478146164653
:101310008AB0354878440DC88DE80D0032487844CD
:10132000801C03AC0DC884E80D0041F69B300844D6
:10133000372190FBF1F290FBF1F5A5F1800501FB5F
:1013400012041B3C02D56442012000E00020DFF8BB
:1013500098A080460027FA44AAF1BE0A0EE0E007F2
:101360000AD03246684607EB470101230AEB8101A8
:1013700000F022FB8DE8070064107F1C002CEED1EA
:10138000194F7F44AE3F19E0E80715D007EB041072
:101390000DF1180A90E80E008AE80E00C068F042CD
:1013A00001D1981908903246012306A903A800F03C
:1013B00003FB03AB83E807006D10641C002DE3D131
:1013C0004FF0010332466946B8F1000F03A802D07E
:1013D00000F0DDFA01E000F0EFFAC9E90001C9F818
:1013E00008200AB0BDE8F0879C50000010B5044604
:1013F000AFF300802046BDE81040FEF734BF000088
:1014000000487047401000204FF0013C50F8042B7A
:1014100051F8043B9A4221D1A2EB0C03934313EA07
:10142000CC1317D150F8042B51F8043B9A4215D134
:10143000A2EB0C03934313EACC130BD150F8042B0B
:1014400051F8043B9A4209D1A2EB0C03934313EAEF
:10145000CC13DBD04FF00000704700BFD01A01BAA8
:10146000B1FA81F101F0180122FA01F0CB40C1F18B
:101470002001DBB2C0B2C01A2CFA01F3D11A914399
:1014800011EAC311E6D1704701491820ABBEFEE74F
:101490002600020070475FEA400C08BF91F0000F81
:1014A0004FEA8C234FEAC12243EA51514FEA1C50C4
:1014B00018BF00F5F0404FEA300018BF41F000417E
:1014C0005FEA6C5C00F02980BCF1FF3F08BF40F090
:1014D00080407047130C06BF12044FF0100C4FF001
:1014E000000C130E04BF12020CF1080C130F04BF02
:1014F00012010CF1040C930F04BF92000CF1020CCA
:10150000D30F04BF52000CF1010C11464FF0000242
:10151000A0F11F00A0EB0C00704711F0004F08BFB6
:10152000704731F000413FF4D5AF0B0C06BF090402
:101530004FF0100C4FF0000C0B0E04BF09020CF121
:10154000080C0B0F04BF09010CF1040C8B0F04BF36
:1015500089000CF1020CCB0F04BF49000CF1010C07
:10156000CCF12003A0EB0C0022FA03F302FA0CF2F8
:1015700041EA030100F10100704720F07F4C80EA4E
:10158000030023F07F47ACEB070303F57C5300F027
:10159000004003F1FF032DE980494FEA154B09B4E0
:1015A0004FEA144325EA0B4E24EA03480FF20426BF
:1015B00006EB132749083E785FEA320203FB066711
:1015C000C7F5000707FB06F64FEA54374FEAD64641
:1015D00006F1020607FB066CCCF1005C4FEA1C47E3
:1015E0002CEA074C07FB06F40CFB06F504EB15464A
:1015F0004FEA961634BF00204FF000404FEAD13733
:1016000006FB07FC4FEA1C4C0CFB0BF7D21B03FB41
:101610000CF761EB07010CFB0EF7B0EB074072EB28
:1016200017420CFB08F734BFA2EB0742B2EB0742AC
:1016300061EB17414FEA0C444FEA910706FB07FCA8
:101640004FEA1C4C0CFB0BF7B0EBC74072EB573268
:1016500003FB0CF734BFA2EBC742B2EBC74261EB0E
:1016600057310CFB0EF7B0EBC70072EB57720CFB57
:1016700008F734BFA2EBC702B2EBC70261EB5771A8
:10168000039F4FEA816141EA921104EBCC044FEAD7
:10169000D1374FEA826206FB07FC42EA90124FEA1A
:1016A00080604FEA1C4C0CFB0BF7D21B03FB0CF7C2
:1016B00061EB07010CFB0EF7B0EB074072EB174232
:1016C0000CFB08F734BFA2EB0742B2EB074261EB19
:1016D00017414FEA8C554FEA910704EB9C2406FB17
:1016E00007FC4FEA1C4C0CFB0BF7B0EBC74072EB4E
:1016F000573203FB0CF734BFA2EBC742B2EBC74231
:1017000061EB57310CFB0EF7B0EBC70072EB577271
:101710000CFB08F734BFA2EBC702B2EBC70261EBC8
:10172000577115EB4C254FEA816141EA92114FEA5E
:1017300082624FEAD13742EA901206FB07FC44F17D
:1017400000044FEA80604FEA1C4C0CFB0BF7D21BE5
:1017500003FB0CF761EB07010CFB0EF7B0EB074046
:1017600072EB17420CFB08F734BFA2EB0742B2EB57
:10177000074261EB174115EB1C154FEA813141EA35
:1017800092414FEA823242EA90424FEA80304FEA79
:101790000C7644F1000448EA03434EEA0B484FF04C
:1017A000000EB2EB080C71EB030724BF624639460A
:1017B0004EEB0E0E4FF0000B0018524149414BEB1F
:1017C0000B0BB2EB080C71EB03077BF1000B24BF92
:1017D000624639464EEB0E0E4FF0000B0018524198
:1017E00049414BEB0B0BB2EB080C71EB03077BF1A0
:1017F000000B24BF624639464EEB0E0E51EA02073B
:1018000018BF46F0010616EB0E7655F1000254F1B2
:10181000000103D5BDE88901BDE80088BDE8890164
:10182000BDE80048B619524141EB0101A3F10103A3
:10183000704780807F7E7D7C7B7A7978777676753D
:101840007473727171706F6E6E6D6C6C6B6A6A69B5
:101850006868676666656464636362616160605F4F
:101860005F5E5E5D5D5C5C5B5B5A5A5959585857C8
:101870005756565555555454535352525251515030
:1018800050504F4F4F4E4E4D4D4D4C4C4C4B4B4B83
:101890004A4A4A49494948484847474747464646C9
:1018A0004545454444444443434343424242424104
:1018B0004141002B9C4630D477002BD01CB54FEA19
:1018C000370703B44FF010004FF01001BAF1000FCA
:1018D00006D0BCF1000FDCBF40F0080040F008016A
:1018E0004FF000000FBCBDE810400BF1010BBBF145
:1018F000010F08BF5FEA170722BF12F1010211F1C1
:1019000001014FF0004143F1000300F0004043EAC1
:1019100000007047F9D35708D0E746EA064613F1AE
:10192000400F4FEA16461FDD13F1200FDFBF1643AD
:101930000A46002120335B42BED0C3F1200746EAAD
:10194000064602FA07F74FEA164646EA0706C3F1CB
:10195000200722FA03F201FA07F721FA03F14FF008
:10196000000342EA0702A7E746EA020646EA0646FD
:101970004FEA164646EA0106BCBF46EA0646360C62
:101980004FF000034FF000024FF0000194E72DE903
:10199000804C9A46934670B491E8380007C831EA03
:1019A000400C48BF34EA430C03D5FFF7E6FDFFF7D0
:1019B00080FFF0BCBDE8008C2DE9804C9A46934630
:1019C00070B491E8380007C810F0804F08BF13F0DA
:1019D000804F03D100F005F8FFF76BFFF0BCBDE8C6
:1019E000008C20F07F4780EA030023F07F4C07EB58
:1019F0000C03A3F57C5300F00040A3F1FE0392F02A
:101A0000000F00F0B38095F0000F00F077802DE913
:101A100001494FEA11404FEA144621EA004800FB11
:101A200006FC24EA064708FB06F607FB08F800FB5D
:101A300007F718EB06484CEB164C4FEA124B18EB25
:101A400007484FEA15464CEB174022EA0B4E0BFBBA
:101A500006FC25EA06470EFB06F607FB0EFE0BFB0F
:101A600007F71EEB064E4CEB164C4FF000061EEB34
:101A7000074E4CEB174B18EB0B0840F1000018EB2E
:101A80000E0B58EB000840F100008F1A4FF00001D8
:101A90003CBFC943661B14BFB5EB040C00213CBF1F
:101AA000C943F61B4FEA17444EEA8E0E27EA044557
:101AB0004FEA1C4704FB07622CEA074C05FB07F7BB
:101AC0000CFB05F604FB0CFC16EB074642EB174239
:101AD00016EB0C4642EB1C421BEB060658EB0202CF
:101AE000414146EA9E0601D5BDE80189B619524139
:101AF00041EB0101A3F10103BDE801894FEA14455F
:101B00004FEA114724EA054621EA074C05FB07F492
:101B100006FB07F70CFB06F105FB0CFC11EB07417C
:101B200044EB17444FEA124711EB0C4144EB1C44C1
:101B300022EA074C05FB07F206FB07F70CFB06F64B
:101B400005FB0CFC16EB074642EB174216EB0C4666
:101B500042EB1C456A1854F1000148BF7047B619A2
:101B6000524141EB0101A3F10103704795F0000FD1
:101B700037D04FEA11424FEA144721EA024624EADD
:101B8000074C02FB07F106FB07F70CFB06F402FB10
:101B90000CFC14EB074441EB17414FEA154714EBDB
:101BA0000C4441EB1C4125EA074C02FB07F506FB00
:101BB00007F70CFB06F602FB0CFC16EB074645EBA1
:101BC000174516EB0C4645EB1C42121951F100016A
:101BD00048BF7047B619524141EB0101A3F101031F
:101BE00070474FEA14454FEA114724EA054621EAB7
:101BF000074C05FB07F106FB07F70CFB06F24FF05D
:101C0000000605FB0CFC12EB074241EB174112EBFF
:101C10000C4251EB1C4148BF7047921841EB010147
:101C2000A3F101037047000010B54FF408710B4891
:101C300000F043F888B1094800F03BF80849094A28
:101C4000127821F8120007480078401C05490870F6
:101C50004FF40871014800F007F810BD002401405E
:101C6000E00F0020B807002000220A12D3430360CF
:101C7000704721B1826842F00102826003E082680D
:101C800022F001028260704721B1826842F48072C2
:101C9000826003E0826822F48072826070470146AD
:101CA00000208A6802F004020AB1012000E000204E
:101CB00070470146C86C80B2704770B5024600207C
:101CC000002300240B125568CEB205EA06041568FD
:101CD0001D4015B10CB1012000E0002070BD01468F
:101CE00000208A6802F008020AB1012000E000200A
:101CF0007047000030B502460020002350680F4CAA
:101D000020400D790C6844EA052420435060906817
:101D10000B4C2040D1E902542C434D7944EA450450
:101D200020439060D06A20F470000C7C641EE4B202
:101D3000234340EA0350D06230BD0000FFFEF0FFB5
:101D4000FDF7F1FFF0B504460D4600200021092DF6
:101D500011DDE068A5F10A0606EB4607072606FA3C
:101D600007F18843A5F10A0606EB460603FA06F1D9
:101D70000843E0600CE0206905EB4507072606FAFA
:101D800007F1884305EB450603FA06F10843206195
:101D9000072A0FDA606B561E06EB86071F2606FA27
:101DA00007F18843561E06EB860605FA06F108433E
:101DB000606322E00D2A0FDA206BD61F06EB860740
:101DC0001F2606FA07F18843D61F06EB860605FA9A
:101DD00006F10843206310E0E06AA2F10D0606EB6D
:101DE00086071F2606FA07F18843A2F10D0606EBC7
:101DF000860605FA06F10843E062F0BD816841F00D
:101E000008018160704721B1826842F4A0028260BB
:101E100003E0826822F4A00282607047816841F08A
:101E2000040181607047000010B5022000F0CCF87A
:101E300038B104480078401C02490870022000F0C4
:101E400003F810BDB807002000F0805111B103491C
:101E5000086001E002494860704700000404024045
:101E60000000024021B1026842F00102026004E079
:101E700002684FF6FE731A400260704701684FF621
:101E8000FE72114001600021016041608160C1600B
:101E90004B49884208D14A490839496841F00F0145
:101EA000474A083A51608AE045491431884208D1CE
:101EB00043490839496841F0F001414A083A516004
:101EC0007DE03F492831884208D13D4908394968B9
:101ED00041F470613A4A083A516070E038493C3147
:101EE000884208D136490839496841F47041344A7A
:101EF000083A516063E032495031884208D1304994
:101F00000839496841F470212D4A083A516056E079
:101F10002B496431884208D129490839496841F47C
:101F20007001274A083A516049E0254978318842D2
:101F300008D123490839496841F07061204A083ABC
:101F400051603CE01F49884206D1011F096841F0F9
:101F50000F01021F116032E01A491431884208D182
:101F60001849091F096841F0F001164A121F116053
:101F700025E014492831884208D11249091F09680F
:101F800041F470610F4A121F116018E00D493C3195
:101F9000884208D10B49091F096841F47041094A78
:101FA000121F11600BE007495031884207D10549E3
:101FB000091F096841F47021024A121F116070471D
:101FC000080002400804024001460020002201F0FF
:101FD000805313B1054B1A6801E0054B1A6802EAF9
:101FE00001030BB1012000E0002070470004024013
:101FF0000000024010B50022026847F6F0739A43D1
:102000000C6A8B6823430C6923434C6923438C6916
:102010002343CC6923434C6A23438C6A23431A43EA
:102020000260CB6843600B6883604B68C36010BD7F
:10203000704770470F48007888B904200E4908603F
:1020400080020E49086001200A49087000030B490C
:10205000091F086004200849091F086009E00548B5
:102060000078012805D100030449086002200149D5
:1020700008707047610700201414014014080140E3
:1020800010B5002000F004FF10BD10B5012000F0D5
:10209000FFFE10BD10B51648006800F4805028B14E
:1020A000FFF7C8FF4FF4805000F0C0F810480068F8
:1020B00000F4005028B1FFF7E3FF4FF4005000F0A8
:1020C000B5F80B48006800F4804028B1FFF7DDFF49
:1020D0004FF4804000F0AAF80548006800F4004082
:1020E00028B100F007F84FF4004000F09FF810BD51
:1020F0001404014010B5022000F0CAFE10BD704764
:10210000704700002DE9F041174801F059F94FF0F0
:10211000E020846915480068201A0A2822D913484B
:102120000068201A12490860084600681149884270
:1021300002D908460E4908604FF0E02080690B493B
:1021400008600B48006803F01FF905460A4A0B4B6C
:1021500003F06AF9074602F00DFF09490860012003
:1021600008490860BDE8F081A8620008D80700208F
:10217000D407002040420F0015413A0093F23E3F41
:10218000E4070020D00700207047000010B5254864
:10219000006800F0200020B1FFF7B1FF202000F020
:1021A00045F82048006800F0400020B1FFF7A8FF84
:1021B000402000F03BF81B48006800F0800020B190
:1021C000FFF7A0FF802000F031F81648006800F407
:1021D000807028B1FFF7D8FF4FF4807000F026F828
:1021E0001048006800F4007028B100F01DF84FF4AA
:1021F000007000F01BF80B48006800F4806028B104
:10220000FFF716FF4FF4806000F010F805480068F3
:1022100000F4006028B1FFF70CFF4FF4006000F0FD
:1022200005F810BD14040140704700000149086022
:102230007047000014040140002123498279002ADC
:102240003AD00A46126803689A430B461A600A1D80
:10225000126803689A430B1D1A60027911440A68D8
:1022600003681A430A60184A0832126803689A43DE
:10227000154B08331A601A1D126803689A43124BF3
:102280000C331A604279102A0ED11A1F12680368A3
:102290001A430D4B08331A601A1D126803681A435B
:1022A000094B0C331A600DE00749427911440A6862
:1022B00003681A430A6005E0027911440A6803685A
:1022C0009A430A60704700000004014030B50022C4
:1022D0008B071C0F0F2303FA04F20B4B8C1053F8DF
:1022E00024309343084C8D1044F8253023468C103D
:1022F00053F824308C07240F00FA04F42343024CD3
:102300008D1044F8253030BD080001402DE9F04122
:10231000024600250026002000230024002791F813
:1023200003C00CF00F0591F803C00CF0100CBCF1C9
:10233000000F03D091F802C04CEA050591F800C0E7
:10234000BCF1000F31D0146800202BE04FF0010CDD
:102350000CFA00F3B1F800C00CEA03069E4220D14B
:1023600083004FF00F0C0CFA03F7BC4305FA03FC93
:102370004CEA040491F803C0BCF1280F06D14FF0D9
:10238000010C0CFA00FCC2F814C00AE091F803C07A
:10239000BCF1480F05D14FF0010C0CFA00FCC2F85B
:1023A00010C0401C0828D1D31460B1F800C0BCF1A3
:1023B000FF0F34DD546800202EE000F1080C4FF0D0
:1023C000010808FA0CF3B1F800C00CEA03069E42BB
:1023D00021D183004FF00F0C0CFA03F7BC4305FA30
:1023E00003FC4CEA040491F803C0BCF1280F05D1AA
:1023F00000F1080C08FA0CF8C2F8148091F803C038
:10240000BCF1480F07D100F1080C4FF0010808FAA1
:102410000CF8C2F81080401C0828CED35460BDE8E8
:10242000F0810000F0B50A460023002400210025B9
:1024300000F00046B6F1004F02D11D4EF16901E0F7
:102440001B4E7168C0F3034583B200F44016B6F525
:10245000401F08D121F07061154E766826F0706635
:10246000134F7E6012E000F48016B6F5801F06D18F
:10247000032606FA05F4A14341F0706106E0460D1B
:10248000360103FA06F6B14341F0706122B1460D00
:10249000360103FA06F6314300F00046B6F1004F6C
:1024A00002D1034EF16101E0014E7160F0BD000008
:1024B000000001400246002093680B400BB1012050
:1024C00000E00020704741617047016170470000E3
:1024D00070B5002100230F22C47804B3154C246882
:1024E00004F4E064C4F5E064210AC1F10403CA40C5
:1024F000447804FA03F184781440214309010E4C16
:102500000678A155047804F01F050124AC40057835
:102510006D11AD0005F1E025C5F8004109E0047832
:1025200004F01F050124AC40044D0678761145F8EF
:10253000264070BD0CED00E000E400E080E100E02A
:1025400002490143024A1160704700000000FA0589
:102550000CED00E001460020034A506820F44040A2
:1025600008435060704700000010024029B1064A3D
:1025700052690243044B5A6104E0034A52698243A0
:10258000014B5A61704700000010024029B1064A11
:10259000D2690243044BDA6104E0034AD269824300
:1025A000014BDA61704700000010024029B1064A71
:1025B00092690243044B9A6104E0034A92698243A0
:1025C000014B9A61704700000010024030B50021B5
:1025D0000022002400232D4D6D6805F00C0121B16F
:1025E000042905D0082923D105E0294D056022E002
:1025F000274D05601FE0254D6D6805F47012234DD1
:102600006D6805F48034022505EB92421CB9214D1A
:10261000554305600BE01D4D6D6805F400351DB197
:102620001C4D5543056002E0194D5543056002E01D
:10263000174D056000BF00BF144D6D6805F0F00137
:102640000909154D6B5C0568DD4045600F4D6D68EF
:1026500005F4E061090A104D6B5C4568DD4085605A
:102660000A4D6D6805F46051C90A0B4D6B5C4568F5
:10267000DD40C560054D6D6805F44041890B074D8F
:102680006B5CC568B5FBF3F5056130BD0010024019
:1026900000127A0000093D00000000201000002018
:1026A00010B5024801F0D6FC10BD000094000020D7
:1026B00021B1028842F40052028004E002884DF603
:1026C000FF731A400280704721B1028842F0400235
:1026D000028004E002884FF6BF731A400280704700
:1026E00010B5002201F00F040123A3409AB2D34396
:1026F000038110BD0246002013890B400BB101205D
:1027000000E000207047F0B50246002000240023BE
:10271000002501F00F070126BE40B4B20B110126BF
:102720009E40B3B2968806EA03051689264016B184
:102730000DB1012000E00020F0BD014688897047FE
:102740008181704710B50022028802F441520B8843
:102750004C8823438C882343CC8823430C89234310
:102760004C8923438C892343CC8923431A43028019
:10277000838B4FF2FF74234083830B8A038210BD47
:1027800021B1828842F00402828004E082884FF600
:10279000FB731A408280704710B500F001F810BD3D
:1027A0000CB50020019000903348006840F4803060
:1027B0003149086000BF3048006800F400300090E4
:1027C0000198401C0190009818B90198B0F5A06FCD
:1027D000F1D12948006800F4003010B101200090C8
:1027E00001E0002000900098012843D123480068B0
:1027F00040F01000214908600846006820F00300FE
:1028000008600846006840F0020008601A48406806
:10281000194948600846406848600846406840F4E6
:10282000806048600846406820F47C104860084694
:10283000406840F4E81048600846006840F0807046
:10284000086000BF0C48006800F000700028F9D054
:102850000948406820F0030007494860084640687E
:1028600040F00200486000BF0348406800F00C00E0
:102870000828F9D10CBD00000010024000200240E1
:1028800006480068401C0549086005480068401E6D
:1028900003490860002003490870704728000020A1
:1028A0002C0000203000002010B51348006840F0D4
:1028B00001001149086008464068104908400E4967
:1028C0004860084600680E4908400B490860084601
:1028D000006820F4802008600846406820F4FE006C
:1028E00048604FF41F008860FFF756FF4FF000600C
:1028F0000449086010BD0000001002400000FFF80D
:10290000FFFFF6FE08ED00E021B1028842F08002F0
:10291000028004E002884FF67F731A4002807047FD
:1029200021B1028842F00102028004E002884FF6E1
:10293000FE731A400280704731B1B0F8442042F46F
:102940000042A0F8442005E0B0F84420C2F30E0293
:10295000A0F844207047000070B500240022002336
:10296000058C4FF6FE7635400584028C8388048BF7
:102970004FF68F752C40B51E2C400D882C43751ECC
:102980002A400D892A434D882A43144DA8420BD072
:10299000134DA84208D0134DA84205D0124DA842AD
:1029A00002D0124DA84213D14FF6F7752A404D8937
:1029B0002A434FF6FB752A408D882A434FF6FF6560
:1029C0002B404FF6FF552B408D892B43CD892B4350
:1029D00083800483CD888586028470BD002C0140ED
:1029E00000340140004001400044014000480140E3
:1029F0000A460021018B4FF6F773194011430183FA
:102A00007047000070B5002400220023058C4FF6AB
:102A1000EF7635400584028C8388048B48F6FF7579
:102A20002C404FF6FF452C400D884FF6FF7606EA06
:102A300005252C434FF6DF752A400D8906EA05155A
:102A40002A434D8806EA05152A43154DA84202D0AF
:102A5000144DA8421DD14FF67F752A404D894FF67F
:102A6000FF7606EA05152A434FF6BF752A408D8882
:102A700006EA05152A434FF6FF352B404FF2FF7546
:102A80002B408D8906EA85052B43CD8906EA85050D
:102A90002B4383800483CD880587028470BD0000AA
:102AA000002C0140003401400A460021018B4FF206
:102AB000FF7319404FF6FF7303EA022319430183A2
:102AC0007047000070B5002400220023058C4FF6EB
:102AD000FF6635400584028C8388848B4FF68F75A2
:102AE0002C404FF6FC752C400D882C434FF6FF55BB
:102AF0002A400D894FF6FF7606EA05252A434D88C0
:102B000006EA05252A43154DA84202D0144DA842D5
:102B10001DD14FF2FF752A404D894FF6FF7606EA28
:102B200005252A434FF6FF352A408D8806EA0525FC
:102B30002A434EF6FF752B404DF6FF752B408D89CD
:102B400006EA05152B43CD8906EA05152B4383803C
:102B50008483CD888587028470BD0000002C0140ED
:102B6000003401400A460021818B4FF6F77319406B
:102B7000114381837047000070B5002200230024B8
:102B8000058C4EF6FF7635400584038C8488828B55
:102B900048F6FF752A404FF6FF452A400D884FF64C
:102BA000FF7606EA05252A434DF6FF752B400D8971
:102BB00006EA05352B434D8806EA05352B430B4DB8
:102BC000A84202D00A4DA84208D14BF6FF752C400E
:102BD0008D894FF6FF7606EA85152C438480828323
:102BE000CD88A0F84050038470BD0000002C014047
:102BF000003401400A460021818B4FF2FF731940D7
:102C00004FF6FF7303EA02231943818370478184DF
:102C100070470000002202881D4B98420ED01D4BC9
:102C200098420BD0B0F1804F08D01B4B984205D092
:102C30001A4B984202D01A4B984204D14FF68F7328
:102C40001A404B881A43174B984207D0164B9842AC
:102C500004D04FF6FF431A40CB881A4302808B887A
:102C600083850B8803850A4B98420BD0094B984209
:102C700008D00E4B984205D00D4B984202D00D4B18
:102C8000984201D10B7A03860123838270470000AA
:102C9000002C0140003401400004004000080040C6
:102CA000000C0040001000400014004000400140B3
:102CB000004401400048014010B5024802F066F8A7
:102CC00010BD00006400002010B5024802F05EF85C
:102CD00010BD00007C00002010B50022002340F64B
:102CE0006A14A14200D100BF0A1201249440A3B289
:102CF000DC43048010BD21B1828942F400528281FC
:102D000004E082894DF6FF731A40828170470246C3
:102D10000020B1F5007F00D100BF13880B400BB13C
:102D2000012000E00020704770B502460024002317
:102D30000025002040F66A16B14200D100BFC1F361
:102D4000421501F01F03012606FA03F3012D02D1FB
:102D50009689334006E0022D02D1168A334001E005
:102D6000968A33400C12012606FA04F41688344081
:102D700013B10CB1012000E0002070BD2DE9F04737
:102D800086B005460E460024A24600BFA146002795
:102D9000B08900B100BF2F462C8A4CF6FF7004406A
:102DA000F08804432C82AC894EF6F3100440B088BE
:102DB00031890843718908430443AC81AC8A4FF6DA
:102DC000FF400440B0890443AC8201A8FFF7FEFB3A
:102DD0001F48874202D1DDF810A001E0DDF80CA009
:102DE000A88900F4004040B10AEBCA0000EB0A10C9
:102DF00031684900B0FBF1F807E00AEBCA0000EBCC
:102E00000A1031688900B0FBF1F86420B8FBF0F0DB
:102E100004012009642101FB1089A88900F4004005
:102E200040B1322000EBC900B0FBF1F000F0070028
:102E3000044308E0322000EB09106421B0FBF1F0FC
:102E400000F00F0004432C8106B0BDE8F0870000BD
:102E50000038014001468888C0F308007047C1F37C
:102E6000080282807047490050EAC12018BF042040
:102E70004A0D18BF40F0010040F2FF72B2EB515F03
:102E800008BF40F00200012808BF0520704700007D
:102E900070B50446204600F011F90546124800EBD3
:102EA0000410806850B14DB10F4800EB0410007958
:102EB00020B90D4901EB0411886880470A4800EBEE
:102EC0000410C06850B14DB9074800EB04100079F8
:102ED00020B1054901EB0411C8688047024800EBA6
:102EE0000410057170BD00003400002030380A283D
:102EF00001D201207047002070470000F8B5044659
:102F00000F48007820710E480078401C0C4908706A
:102F1000206878B10026256803208DF802008DF81E
:102F20000360A888ADF8000069462868FFF7EEF94D
:102F300000BF00BF2079034941F82040F8BD0000E0
:102F4000640700200010002000B58BB0144800F08A
:102F5000D1F813480830FEF791FF12480090002086
:102F60000290114800780390002004908020059082
:102F700040000690800007902020089000020990F1
:102F800000200A9009480190694605480830FFF77B
:102F900031F8012102480830FEF764FF0BB000BD94
:102FA000000002404C24014064070020E00F002094
:102FB00010B586B02A4800F05BF80020019001208F
:102FC0008DF808008DF809004FF460200390002070
:102FD0000490244800788DF814004FF40040FFF767
:102FE000B9FAFFF7B1FF00F041F800240FE01E48E6
:102FF00050F824000079401CC2B21B4850F824004D
:10300000417907231648FEF79DFE601CC4B215489F
:1030100000788442EBDB01A91148FEF76BFE012129
:103020000F48FEF731FE01210D48FEF722FE0C4845
:10303000FEF7E4FE00BF0A48FEF751FE0028FAD171
:103040000748FEF7EBFE00BF0548FEF728FE002804
:10305000FAD101210248FEF7D6FE06B010BD0000ED
:103060000024014064070020001000207047000089
:1030700010B504460B48844204D101214015FFF7E6
:1030800095FA0EE00848844204D101210015FFF7AB
:103090008DFA06E00548844203D10121C803FFF7F9
:1030A00085FA10BD0024014000280140003C014089
:1030B00010B501210846FFF779FA10BD70B5054635
:1030C000064800EB05100468A1882068FFF7F2F9B4
:1030D00008B9012070BD0020FCE70000340000208A
:1030E0000349086000BF024909680029FBD1704705
:1030F0002C00002010B504460748844204D1012169
:103100000846FFF733FA06E00448844203D1012160
:103110000220FFF72BFA10BD00000240000402401D
:1031200001460879014A32F810007047E00F00208C
:103130000148006870470000280000202DE9FE4388
:1031400005468946A888B0F5807F38D012DC102863
:1031500030D008DC012825D0022825D0042825D02D
:10316000082836D124E0202826D0402825D08028E1
:103170002FD123E0B0F5805F26D009DCB0F5007FC9
:103180001ED0B0F5806F1DD0B0F5006F21D11AE0D0
:10319000B0F5005F19D0B0F5804F17D0B0F5004FF3
:1031A00017D114E0062414E0062412E0062410E0EF
:1031B00006240EE006240CE000BF00BF00BF00BFE5
:1031C000172406E000BF00BF00BF00BF00BF2824D7
:1031D00000BF00BF25492868084448B1B0F5806F9A
:1031E00008D0B0F5006F07D0B0F5406F08D105E00A
:1031F000002605E0012603E0022601E0032600BFC9
:1032000000BF4FF00008AF8800BF07F0010000B119
:1032100005E07F1008F1010000F0FF08F5E700BFAE
:103220004FF4C060FFF78CF9E0B28DF80800002081
:103230008DF8090001208DF80A008DF80B0002A816
:10324000FFF746F941463046FFF740F8A88800905E
:1032500000208DF804008DF8059001208DF80600FF
:103260006846FEF7E9FFBDE8FE83000000F8FEBFF8
:1032700038B504460D4603208DF802008DF8035042
:10328000A088ADF8000069462068FFF73FF838BD18
:1032900038B504460D4603208DF802008DF8035022
:1032A000A088ADF8000069462068FFF72FF838BD08
:1032B00038B504460D4603208DF802008DF8035002
:1032C000A088ADF8000069462068FFF71FF838BDF8
:1032D00038B504460D4603208DF802008DF80350E2
:1032E000A088ADF8000069462068FFF70FF838BDE8
:1032F00038B504460D4603208DF802008DF80350C2
:10330000A088ADF8000069462068FEF7FFFF38BDD1
:1033100038B504460D4603208DF802008DF80350A1
:10332000A088ADF8000069462068FEF7EFFF38BDC1
:1033300038B504460D4603208DF802008DF8035081
:10334000A088ADF8000069462068FEF7DFFF38BDB1
:1033500010B50446A1882068FFF7B5F810BD10B578
:103360000446A1882068FFF7AEF810BD10B50446EA
:10337000A1882068FFF7A9F810BD10B50446A18800
:103380002068FFF7A2F810BD70B504460D4625B1C0
:10339000A1882068FFF799F803E0A1882068FFF76B
:1033A00092F870BD70B504460D4625B1A18820681D
:1033B000FFF78BF803E0A1882068FFF784F870BD61
:1033C00010B5044600BFA1882068FFF77EF800BF53
:1033D00010BD000010B510210348FFF759FF102160
:1033E0000248FFF755FF10BD585C0008605C0008FC
:1033F00070B500263648008836490988401A05D538
:103400003448008832490988401A04E0304800886E
:1034100030490988401AA8B12E4801882C480088F4
:1034200000F0C0FA044601F06BFF2B490880084603
:10343000008800EB4001C1EBC01000F596702749F1
:10344000088026E02648008826490988401A05D5C4
:103450002448008822490988401A04E0204800884E
:1034600020490988401AA0B11D4801881D480088DC
:1034700000F098FA044601F043FF17490880084617
:10348000008800EB4001C1EBC01000F596701349B5
:10349000088012480088A0F59670002804D50F48CF
:1034A0000088C0F5967003E00C480088A0F596707F
:1034B0007D280BDD09480088B0F5D57F02DB40F29E
:1034C000A91001E040F213100449088070BD00000B
:1034D000F0070020F2070020FA070020F80700207C
:1034E000F4070020F607002010B51948007810B145
:1034F00001282AD114E01748FFF712FE1649088068
:103500001648FFF70DFE164908801648FFF708FE1B
:10351000154908801548FFF703FE1549088014E097
:103520001248FFF7FDFD0C4908800E48FFF7F8FD33
:103530000B4908800948FFF7F3FD0B49088005484F
:10354000FFF7EEFD0A49088000BF00BF10BD000074
:10355000FC07002068070020F0070020700700200B
:10356000F207002078070020F407002080070020E1
:10357000F60700208AB000F09BFB01F015FA00F07E
:10358000A5F9FFF727FF4FF400404FF4FC634FF419
:1035900078424FF6FF710090002000F03FFF00F0EE
:1035A00069FE694869A200210368084600F0ACFF83
:1035B00001F018F96748FFF7A1FC6748FFF79EFC88
:1035C0006648FFF79BFC6648FFF798FCFFF7F0FCA6
:1035D0004FF4967341F2883240F21F11614800F0B7
:1035E000A3FB6148007864231A46902100905F484D
:1035F00000F010F95C48007864231A46902100908E
:103600005B4800F007F94FF4E1315A4801F0B8FA8D
:1036100001F04AFC10215848FFF790FD4FF0E020E0
:103620008069564908608DE000BF4FF0E020806956
:10363000534909688842F8D04FF0E020806950492A
:1036400008600846006800F089FBFFF771FD4D49EE
:103650000968884276D04C48FFF7B2FEFFF744FF76
:10366000FFF7C6FE494801883E4800F055FB00F0D0
:10367000F3F800F0FFFD4648006801F0D3FF044670
:1036800031480068CDE906410890424800683F494A
:103690000988414A1288414B1B88CDE90132CDE9A6
:1036A00003103F48008800903E4803883EA2002156
:1036B000084600F029FF01F095F83748008837499F
:1036C0000988CDE90010364803883648028841A1B0
:1036D000284801F0CAFB2F480068A0B14FF0824192
:1036E0002B48006802F0ECF90AD2414928480068EA
:1036F00002F0E6F804D214480068401C1249086041
:10370000002024490860FFF713FD1E4908600E4899
:10371000006864280BDB42F21070FFF7E1FC1248EE
:10372000007808B9012000E000200F490870154812
:10373000006830490968401A192803D31148006805
:103740002C49086070E70000DC07002068656C6C9D
:103750006F00000068070020700700207807002035
:1037600080070020B05B0008FC070020C85B000851
:10377000D85B000864000020A0620008D807002081
:10378000EC070020E8070020A8620008F8070020E6
:10379000E4070020D0070020F6070020F4070020EF
:1037A000F2070020F0070020464C256420465225F1
:1037B00064200A424C256420425225640A4F433A51
:1037C0002025640A0A256420446973743A2566201A
:1037D0000A256400464C3A2564202046523A256466
:1037E0000A20424C3A25642042523A25640A0000DD
:1037F0000000A0410008002070B504460E461546A2
:103800002946E068FFF7C0FD3146204600F0D8F9B0
:1038100070BD00002DE9F84304460D4616461F46CC
:10382000DDF8208033462A4621460948009700F0FB
:10383000CAF91021E068FFF71BFD4146E068FFF779
:10384000A3FD01210348FEF7EDFDBDE8F88300006C
:1038500000340140000C1A0070B51048008800EBDD
:10386000C00101EB0010233084B20C48008800EB4B
:10387000C00101EB0010233085B2C4F1640081B2B5
:10388000074802780748FFF7B7FFC5F1640081B227
:10389000034802780448FFF7AFFF70BDFA07002025
:1038A000FC070020C85B0008D85B000810B50022A8
:1038B0008021104600F07CFA4FF4806403E0002081
:1038C00001F016FB641E002CF9D110BD08B50020D4
:1038D0004FF482734FF44042014600902E4800F0AE
:1038E00087FA10212D48FFF713FD10212C48FFF710
:1038F0000FFD00F0F5F9AE2001F0E4FAD52001F05B
:10390000E1FA802001F0DEFAA82001F0DBFA3F2086
:1039100001F0D8FAD32001F0D5FA002001F0D2FA54
:10392000402001F0CFFA8D2001F0CCFA142001F0F4
:10393000C9FAA12001F0C6FAC82001F0C3FADA20C2
:1039400001F0C0FA122001F0BDFA812001F0BAFAAC
:10395000CF2001F0B7FAD92001F0B4FAF12001F03C
:10396000B1FADB2001F0AEFA402001F0ABFA2020E2
:1039700001F0A8FA002001F0A5FAA42001F0A2FAB3
:10398000A62001F09FFAAF2001F09CFA6420FFF717
:10399000A7FBFFF78BFF08BD94000020805D0008A7
:1039A000885D00082DE9F04F85B006468946012064
:1039B00010B902287ED156E04FF496684FF4967AFB
:1039C0004FF07E500490002473490988734A12888E
:1039D000891A05D5714909886F4A1288891A04E045
:1039E0006D4909886D4A1288891A084601F050FF0E
:1039F00007464FF07E5101F097FF0546684901F0F8
:103A00005FFF15D2A9EB060001F042FF6449039065
:103A100001F040FE8346634901F086FF07464FF000
:103A20007E5101F081FF054601F0F6FE04B206E08A
:103A3000B14501DD642001E06FF0630004462346D8
:103A400059A20521002000F05FFD224656A15948E9
:103A500001F00BFA642094FBF0F5284601F07DFCA0
:103A600005B0BDE8F08F00210C460D46962004906D
:103A70004948008800F042FB4848008800F03EFBBF
:103A80004548008800F03AFB0121B1FBF0FB4348B8
:103A9000008800F033FB0121B1FBF0F0ABEB000A32
:103AA000504601F071FC074643480CC8384601F007
:103AB0007FFC00E06EE015D23748008800F01EFB66
:103AC0000121B1FBF0F83548008800F017FB012117
:103AD000B1FBF0F0A8EB0007384601F055FC0446B6
:103AE0000D461CE02C48008800F008FB2B4800889D
:103AF00000F004FB2848008800F000FB0121B1FB26
:103B0000F0F82648008800F0F9FA0121B1FBF0F046
:103B1000A8EB0007384601F037FC274A03C22046CD
:103B2000294601F0BDFB019001F017FCCDE902012F
:103B300021480CC8029801F05BFA824600221F4B14
:103B400001F072FC18A2CDE900010521002000F06F
:103B5000DBFC2046294601F0A3FB019001F0FDFBB0
:103B6000CDE9020114480CC8029801F041FA074659
:103B70000022124B01F058FC824652460B460AA125
:103B80000C4801F072F90C480CC82046294601F097
:103B90002FFA65E700BF63E7F2070020F007002077
:103BA000000061440000C8425455524E3A2025643A
:103BB0000A2000006400002008080020000059408E
:103BC0008268118070472DE9F04188B007460C46A5
:103BD00015461E46DDF83880384600F027FF0020E5
:103BE000ADF81600ADF81A008DF81C00ADF81450B1
:103BF000ADF8186005A93846FFF70CF80020ADF8BD
:103C00000C00ADF80E006020ADF804000020ADF807
:103C10001000ADF812000120ADF806000420ADF848
:103C20000800ADF80A80207830B101280DD00228B4
:103C300014D0032824D11AE001A93846FEF78CFEDF
:103C400001213846FEF7D4FE1AE001A93846FEF7F6
:103C5000D9FE01213846FEF727FF11E001A93846B9
:103C6000FEF730FF01213846FEF77CFF08E001A98E
:103C70003846FEF781FF01213846FEF7BBFF00BF43
:103C800000BF18216068FFF7F3FA01213846FEF7FC
:103C90003BFE01213846FEF743FE00213846FEF781
:103CA000B6FF01213846FEF747FE08B0BDE8F081B7
:103CB00010B5FFF7FDF901210420FEF777FC012183
:103CC0000820FEF773FC01211020FEF76FFC012194
:103CD0002020FEF76BFC01214020FEF767FC10BDA1
:103CE00010B50848FFF749FB6420FFF7F9F90548CC
:103CF000FFF735FB6420FFF7F3F90248FFF73DFBC0
:103D000010BD0000805D000810B500210148FFF7DC
:103D100049FB10BD9062000870B504460D46294667
:103D20002046FFF74DFF70BDF8B504460D46164618
:103D30001F4633462A4621464FF080400097FFF742
:103D400042FF01210348FEF76DFB01210248FEF707
:103D500069FBF8BD000230000003180010B50446EE
:103D60004FF0E0208169104800686430814202D23F
:103D700000F036F801E0FFF7C7FF4FF0E020806960
:103D800009490968401A64280DD94FF0E02080697C
:103D900005490968401A0549884204D94FF0E020D6
:103DA00080690149086010BDC4070020A086010099
:103DB00070B506460C461546212001F083F83046C2
:103DC00001F080F8611EC8B201F07CF8222001F0F9
:103DD00079F8284601F076F8072001F073F870BDF5
:103DE00010B501210148FFF7DDFA10BD906200080F
:103DF0002DE9F04186B004460F4615461E46DDF813
:103E00003080206800F04AF918216068FFF760FAF6
:103E100005F4004048B1B6F5827F01D1A16800E009
:103E2000E16808461821FFF753FA05F4404048B10D
:103E3000B6F5827F01D1E16800E0A168084618214B
:103E4000FFF746FA206901287ED020690228FBD0BE
:103E500020690428F8D020690828F5D06A4920692B
:103E60008842F1D06849203120698842ECD0674906
:103E700020698842E8D0654980312069884263D052
:103E80006349206988425FD06249206988425BD0DB
:103E900061492069884257D060492069884253D0DF
:103EA0005F49206988424FD02069B0F5805F4BD0D0
:103EB0002069B0F5EA1F7CD02069B0F5EB1F78D0FF
:103EC0002069B0F5004F74D056492069884270D0FF
:103ED000491C206988426CD0891C2069884268D0BE
:103EE000091D2069884264D04E490F3120698842FB
:103EF0005FD02069B0F1201F5BD04FEAF13120691B
:103F0000884256D048492069884252D047492069A2
:103F100088424ED04649206988424AD045492069A6
:103F2000884246D044492069884242D02069B0F591
:103F3000011F3ED04149206988423AD0491C20697E
:103F4000884236D0891C00E033E02069884230D0B6
:103F5000091D206988422CD038490F3120698842D8
:103F600027D036491F312069884222D033493F315A
:103F7000206988421DD031497F312069884218D09C
:103F80002E49FF312069884213D02D49206988428B
:103F90000FD02C49206988420BD02B4920698842D8
:103FA00007D02A492069884203D0294920698842DC
:103FB00003D101212069FEF735FAADF80450ADF8C0
:103FC0000660ADF808800220ADF80A000120ADF8C7
:103FD0000C004002ADF80E00ADF810700020ADF8F6
:103FE000120001A92068FEF7ADFB01212068FEF751
:103FF0006BFB00212068FEF75BFB00212068FEF7C9
:10400000BFFB06B0BDE8F0811000140040001600B0
:1040100000011800000218000003180000081A0030
:10402000000C1A00010020000001300000023000E6
:10403000000430000011200000202000010000805A
:104040000002008000040080000800800010008052
:104050000020008070B5044660212068FEF753FB05
:1040600068B12068FEF769FB0546606910B1E8B2E7
:104070006169884760212068FEF732FB0DE07121FD
:104080002068FEF740FB40B1A06910B1A16920682B
:10409000884771212068FEF723FB70BD10B50446E8
:1040A0000B48844204D101218014FEF77FFA0EE010
:1040B0000848844204D101210014FEF767FA06E0A3
:1040C0000548844203D10121C013FEF75FFA10BDF9
:1040D0000030014000380040003C004070B504460C
:1040E0000D4600BF02212068FEF704FB0028F9D02E
:1040F00029462068FEF724FB70BD00002DE9F84337
:104100000446002C01DA604200E0204604462046C6
:1041100001F0BEFB0090009801F09AFB00901D4951
:10412000009801EB500000904FF4804084FB007039
:104130000146DDF800C0624600233846FCF7BAF8B5
:10414000009A821841F10000551C40F10001022242
:1041500000232846FCF7AEF800904FF4804084FB23
:1041600000700146DDF800C0624600233846FCF7C7
:10417000A1F8009A821841F10001551C41F100019B
:10418000022200232846FCF795F800900098C00012
:10419000BDE8F88300403B2310B502463048007864
:1041A00000EBC00303EB00102E4B03EBC00002EB4F
:1041B000820300EB4300405C2B4B1B7803EBC304F2
:1041C00004EB0313274C04EBC30302EB820403EB61
:1041D00044035B5C98423FD12148007800EBC00368
:1041E00003EB0010214B03EB001002EB820300EB0A
:1041F000830030F811001C4B1B7803EBC30404EB65
:1042000003131A4C04EB031302EB820403EB840345
:1042100033F8113098421FD11148007800EBC003E9
:1042200003EB0010124B03EB001002EB820300EBD8
:10423000830030F811000C4B1B7803EBC30404EB34
:1042400003130B4C04EB031302EB820403EB840314
:1042500033F81130984201D0012010BD0020FCE756
:10426000C206002010080020C3060020A00900207C
:10427000C00C002010B5002006490880002404E08E
:10428000204600F00BF8601CC4B20348007884425A
:10429000F6DB10BDBC060020C106002010B50146AB
:1042A000002032E020221B4B1B7803EBC30404EBFD
:1042B0000313194C04EBC30300EB800403EB44032A
:1042C0005A54164A1288134B1B7803EBC30404EBB1
:1042D0000313134C04EB031300EB800403EB840380
:1042E00023F811200F4A12880A4B1B7803EBC304F2
:1042F00004EB03130C4C04EB031300EB800403EBFF
:10430000840323F81120421CD0B2084A127890424C
:10431000C8DB10BDC206002010080020B406002033
:10432000A0090020B0060020C00C0020C00600201C
:1043300010B5002423E01549085D00F019FB13486F
:10434000005D362805D11249124A1278885C00F0C7
:104350001DFB0EE00D48005DFF2806D1611C0C46D8
:104360000A4A505CFEF7BCFE03E00849085D00F015
:104370000DFB601C04460549085C4328EAD1601C1B
:1043800004460249085C4228D5D110BDC85C00082B
:10439000395D0008BA060020012001490870704705
:1043A000BB06002070B505460F49087800EBD071B8
:1043B0004910A0EB410131B18023A0220021084621
:1043C00000F098F905E0A02380220021084600F0C3
:1043D00091F9002403E0284600F0C0FA641CB4F50B
:1043E000A04FF8D370BD0000BA060020084800882E
:1043F000401C0749088000200649088004480088BE
:1044000005490978884202DB00200149088070478D
:10441000BC060020BE060020C10600202DE9F041A8
:1044200004460D4616461F46DDF8188000202E492A
:1044300008802E49087001202D4908702D4804700D
:104440000146087800EBD0714910A0EB410109B199
:10445000012100E00221284A11702649087800EB6A
:10446000D0714910A0EB410109B1022100E0012106
:10447000224A117000F09CF900F06CF8FFF758FF29
:10448000284600F077F8304600F08CF9384600F006
:1044900083F9404600F028F92846FFF783FF2046BD
:1044A00004EBD0714910A4EB410109B1142100E0E3
:1044B0001021134A1170204604EBD0714910A4EB6F
:1044C000410109B1082100E00A210E4A1170FFF7ED
:1044D00063FFFFF7CFFE00F085F9FFF7CBFE00F09A
:1044E00081F9BDE8F0810000BC060020C206002072
:1044F000C3060020BA060020B8060020B906002036
:10450000C0060020C10600200FB430B5C1B004467B
:104510000D460E480078844203DA0D480078854243
:1045200003DB41B030BC5DF814FB47A8009001A844
:10453000009A4699FBF736FF0020009001AA294611
:10454000204600F01DF800BFEBE70000C006002089
:10455000C106002010B50648FEF7FAFE6420FEF7FB
:10456000BFFD0348FEF702FF6420FEF7B9FD10BD52
:10457000B85C00080149088070470000B0060020C0
:104580002DE9F05F0746884614463E4645464FF003
:10459000000AD346D14685E020785D2816D006DC97
:1045A0000A280CD00D2809D05B2828D10DE07B28E3
:1045B00014D07C281BD07D2821D110E000BF681CBE
:1045C000C5B20026FFF712FF6AE000BF20785B2823
:1045D00001D1012000E00020824661E000BF207888
:1045E0007B2801D1012000E00020834658E0B9F18A
:1045F000000F01D1012000E00020814650E020782A
:10460000B9F1000F01D0802100E0002108432B49BF
:10461000097801EBC10202EB0111294A02EBC10149
:1046200006EB860201EB42014855BAF1000F02D0B9
:104630002448008801E0244800882049097801EBDB
:10464000C10202EB0111214A02EB011106EB8602C5
:1046500001EB820121F81500BBF1000F02D01C48CC
:10466000028801E01B4802881448007800EBC00172
:1046700001EB0010184901EB00133046711CCEB25B
:1046800000EB800003EB800020F815201348007831
:10469000864204D1681CC5B20026FFF7A7FE00BF02
:1046A00000BF641C207820B10D4800788542FFF6D9
:1046B00073AF0C480680BDE8F09F0000C2060020E2
:1046C00010080020B6060020B4060020A009002033
:1046D000B2060020B0060020C00C0020C00600205A
:1046E000C1060020BE060020014908807047000076
:1046F000B20600202DE9F05F04460D4692469B4627
:1047000026462F4604EB0A001FFA80F805EB0B0043
:104710001FFA80F91D480078304486B21C480078A2
:10472000384487B21948007840441FFA80F8184886
:10473000007848441FFA80F92A2000F019F9300A5D
:1047400000F024F9F0B200F021F94FEA182000F04F
:104750001DF908F0FF0000F019F92B2000F008F90E
:10476000380A00F013F9F8B200F010F94FEA1920F6
:1047700000F00CF909F0FF0000F008F92C2000F01F
:10478000F7F80448FEF7F2FDBDE8F09FB8060020F8
:10479000B9060020C05C000801490880704700008D
:1047A000B60600200149088070470000B4060020CA
:1047B00008B500204FF482734FF440420146009048
:1047C0000548FFF715FB10210448FEF791FD102165
:1047D0000348FEF78DFD08BD94000020B85C00087A
:1047E000C05C00082DE9F05F00250027A84652486C
:1047F000007808B9BDE8F09F002686E000247DE03F
:1048000031462046FFF7C8FC002875D0012501E09D
:10481000681C05B2601949490978884206DA6119AD
:10482000C8B23146FFF7B8FC0028F1D10123C3EB31
:10483000C5039AB23101E0000F23FFF75BFF4FF091
:10484000000853E03E48007800EBC00101EB001087
:104850003C4901EBC000E11901EB810100EB410093
:10486000805D2038384901EB001A4FF0080930E02C
:104870001AF80800A9F10101084100F0010080B117
:104880002F48007800EBC00101EB00102F4901EB2D
:104890000010E11901EB810100EB810030F81600F6
:1048A0000FE02748007800EBC00101EB0010284919
:1048B00001EB0010E11901EB810100EB810030F800
:1048C00016008346584600F049F8A9F1010000F0AF
:1048D000FF09B9F1000FCBDC781CC0B20746A84233
:1048E00004D1002708F1010000F0FF08B8F1100F13
:1048F000A8DB681E2044C4B2601CC4B20F48007814
:104900008442FFF67DAF701CC6B212480078864222
:10491000FFF674AF0A48007808B9012000E00020D3
:10492000074908700C48007808B9012000E0002011
:104930000949087000BF5DE7BB060020C0060020E3
:10494000C206002010080020B0000020A0090020AE
:10495000C00C0020C1060020C306002010B504468C
:10496000201200F013F8E0B200F010F810BD0000C3
:1049700010B504460348FEF7EBFC21460248FFF75A
:10498000ADFB10BDC05C00089400002010B50446CB
:104990000348FEF7EBFC21460248FFF79FFB10BDE2
:1049A000C05C00089400002038B500208DF801009C
:1049B0008DF8020001208DF80300FF208DF8000023
:1049C0006846FDF785FD154800684FF47A72B0FB24
:1049D000F2F1481EB0F1807F00D31BE0481E4FF07B
:1049E000E022506150170F22002804DB13071C0E31
:1049F0000B4B1C5406E013071D0E0A4B00F00F046E
:104A0000241F1D5500BF00204FF0E02290610720B9
:104A1000106100BF00200449086038BD1400002068
:104A200000E400E018ED00E02800002010B5044686
:104A30004348844204D10121C014FDF7B7FD7EE054
:104A40004048844204D101214014FDF7AFFD76E0D7
:104A50003D48844204D101210804FDF7A7FD6EE022
:104A60003A48844204D101214804FDF79FFD66E0E5
:104A70003748844204D101218804FDF797FD5EE0A8
:104A80003448844204D10121C804FDF78FFD56E06B
:104A90003148844204D101210805FDF787FD4EE02D
:104AA0002E48844204D101214805FDF77FFD46E0F0
:104AB000B4F1804F04D101210846FDF767FD3EE0C7
:104AC0002748844204D101210220FDF75FFD36E032
:104AD0002448844204D101210420FDF757FD2EE033
:104AE0002148844204D101210820FDF74FFD26E032
:104AF0001E48844204D101211020FDF747FD1EE02D
:104B00001B48844204D101212020FDF73FFD16E01F
:104B10001848844204D101214020FDF737FD0EE002
:104B20001548844204D101218020FDF72FFD06E0C5
:104B30001248844203D101218015FDF727FD10BDE5
:104B4000002C01400034014000400140004401407D
:104B500000480140004C0140005001400054014019
:104B60000004004000080040000C0040001000401D
:104B70000014004000180040001C004000200040CD
:104B80007FB504460D46206800F028F918216068BA
:104B9000FEF78EFB0421A068FEF78AFB60690128FE
:104BA0007ED060690228FBD060690428F8D0606973
:104BB0000828F5D0624960698842F1D06049203107
:104BC00060698842ECD05F4960698842E8D05D49FD
:104BD000803160698842E3D05B49606988425FD078
:104BE0005A49606988425BD059496069884257D008
:104BF00058496069884253D05749606988424FD00C
:104C00006069B0F5805F4BD06069B0F5EA1F7CD079
:104C10006069B0F5EB1F78D06069B0F5004F74D0D3
:104C20004E496069884270D0491C606988426CD0E6
:104C3000891C6069884268D0091D6069884264D017
:104C400046490F31606988425FD06069B0F1201F2A
:104C50005BD04FEAF1316069884256D040496069C3
:104C6000884252D03F49606988424ED03E496069CF
:104C700088424AD03D496069884246D03C496069D3
:104C8000884242D06069B0F5011F3ED03949606961
:104C900088423AD0491C6069884236D0891C00E0BD
:104CA00033E06069884230D0091D606988422CD0A9
:104CB00030490F316069884227D02E491F31606921
:104CC000884222D02B493F31606988421DD0294952
:104CD0007F316069884218D02649FF316069884277
:104CE00013D02549606988420FD024496069884201
:104CF0000BD023496069884207D022496069884205
:104D000003D021496069884203D101216069FDF720
:104D100089FB00950020ADF80400ADF80600ADF861
:104D20000800ADF80C000C20ADF80A0069462068B8
:104D3000FEF724F801212068FDF7DDFF7FBD0000AC
:104D400010001400400016000001180000021800B6
:104D50000003180000081A00000C1A0001002000CF
:104D6000000130000002300000043000001120007B
:104D7000002020000100008000020080000400806C
:104D800000080080001000800020008070B50446FC
:104D900040F225512068FDF7C7FF70B12068FEF78B
:104DA00059F80546E06810B1E8B2E168884740F27A
:104DB00025512068FDF790FF0EE040F22771206832
:104DC000FDF7B2FF40B1206908B12069804740F289
:104DD00027712068FDF780FF70BD000010B5044604
:104DE0001348844204D101218803FDF7DFFB1EE054
:104DF0001048844204D101214804FDF7C7FB16E0A6
:104E00000D48844204D101218804FDF7BFFB0EE068
:104E10000A48844204D10121C804FDF7B7FB06E02B
:104E20000748844203D101210805FDF7AFFB10BDFF
:104E3000003801400044004000480040004C004061
:104E40000050004070B504460D46206900B170BDA9
:104E500000BF40212068FDF75AFF0028F9D02946FD
:104E60002068FDF7FCFF00BFF1E70FB430B5C1B01B
:104E70000546286918B141B030BC5DF814FB46A85E
:104E800040906846409A4599FBF78CFA0020409084
:104E90006C4604E014F8011B2846FFF7D3FF207886
:104EA0000028F7D100BFE6E710B510210348FEF750
:104EB0003FFA48210248FEF73BFA10BD9062000815
:104EC0009862000810B504460748FEF748FA00BF8C
:104ED00006480068008900F002000028F8D0034866
:104EE0000068848110BD0000885D000894000020E7
:104EF00010B504460748FEF740FA00BF06480068B0
:104F0000008900F002000028F8D00348006884817E
:104F100010BD0000885D00089400002010B5002935
:104F20000AD00878002807D005487844FCF76CFAC6
:104F3000002801D0002010BD0248784410BD0000B8
:104F4000C2140000BA14000010B500290AD0087875
:104F5000002807D005487844FCF756FA002801D00D
:104F6000002010BD0248784410BD0000B2140000BB
:104F7000AA14000021F00042A2F16052B2F5801F95
:104F800001F0004328BFD2F17F6C0BD95FEA001C0F
:104F900043EAC20242EB507018BF704728BF20F0AE
:104FA00001007047B2F5801FBCBF184670474FEA3A
:104FB000410C1CF5001F02D2084600F07CBD70B504
:104FC00000F0DCFA00000089FFF7F6BF4FF0004068
:104FD000A0F580007047491058BFC1F140415B10F7
:104FE00058BFC3F140438B42EFF30080704700008D
:104FF0002DE9C04130B4DFF8A0C23CEA111418BF5B
:105000003CEA131400F0EC8081EA03051CEA111459
:1050100044EAD57418BF1CEA131500F0C780A4EB4E
:1050200005044FF0004545EAC12145EAC32341EAA2
:10503000505143EA525304F17F74994204F500340D
:105040004FEAC0204FEAC22208BF904200F09C8085
:105050004FEA13650FF24016765D4FEA134506FBE3
:1050600005F7C7F1807706FB07F74FEAD737A7FBAD
:1050700003687642C8F58038A7FB06CE38BFA8F192
:10508000010807FB08E64FF0000EA6FB028CE6FBCA
:1050900003CEDCF1000CCEF1004E38BFAEF1010EB4
:1050A000A6FB0C584FF000074FF00005E6FB0E87FB
:1050B000A1FB08C6A0FB07CE16EB0E0645F10005C6
:1050C000E1FB076515F1E04E7EBFA4F580345FEA91
:1050D00046066D4116F1800745F100054FEA172796
:1050E0004FEA066647EA0567A6F1DE46B6F1805F3D
:1050F0004FEA15251FD9384624F0010C05EBC47181
:10510000BCF1FE6F01EB0C1102D8F0BCBDE80081D0
:1051100024425CBF01F5801E9EEAC47F02D4F0BC2D
:10512000BDE80081244238D4F0BCA1F1C041BDE803
:10513000004100F071BA4FEAD22242EA43524FEAEC
:10514000D323A7FB02864FEAD02040EA415007FB59
:1051500003661EEA0E0F4FEAD12105FB026658BF17
:10516000A6EB0056B6EB00564FEA520E4EEAC37E4F
:1051700018EB0E0E56EB530EBDD518EB02085E4130
:105180007F1C55F10005B6E74FF480154FF000077E
:105190004FF000064FF00008ADE7F0BC4FF0000004
:1051A00001F1C04101F00041BDE8008111EA0C1F8E
:1051B0000CEA131500D00CE013EA0C1F00F0258058
:1051C0004FF00000F0BC81EA030101F00041BDE8AE
:1051D0000081F0BCBDE8004181EA030100F01CBA87
:1051E000F0BCBDE8004170B500F0C8F9097EFC3E96
:1051F00000F007B881EA03014FF0000001F0004120
:10520000704781EA030100F007BAF0BCBDE8004135
:105210004FF0000021497047FFFDFBF9F7F5F4F26C
:10522000F0EEEDEBE9E8E6E4E3E1E0DEDDDBDAD841
:10523000D7D5D4D3D1D0CFCDCCCBCAC8C7C6C5C49F
:10524000C2C1C0BFBEBDBCBBBAB9B8B7B6B5B4B3B6
:10525000B2B1B0AFAEADACABAAA9A8A8A7A6A5A4A1
:10526000A3A3A2A1A09F9F9E9D9C9C9B9A99999865
:105270009797969595949393929191908F8F8E8E08
:105280008D8C8C8B8B8A8989888887878685858495
:1052900084838382828181800000FF070000F87F81
:1052A0004FEA41034FEA5353A3F58063D3F11E0342
:1052B000C8BFD3F1210C0CDD4FF0004242EAC122FD
:1052C00042EA505232FA03FC8CEAE17CACEBE1702A
:1052D0007047102BC4BF0020704703F5787CBCF1E9
:1052E000FF3F04D06FF0004282EA2100704770B5A2
:1052F00000F044F94992248000207047F2E7000052
:105300004FEA1153A3F58063D3F11E03A8BFD3F175
:10531000200C08DB4FF0004242EAC12252EA505210
:1053200032FA03F0704709420BD4102BC4BF00209F
:10533000704703F5787CBCF1FF3F05D04FF0FF309C
:1053400070474FF00000704770B500F017F900BFCC
:105350004992248000207047F0E710F0004248BFD7
:105360004042B0FA80F310FA03F10AD0C3F11D03F2
:1053700003F580634FEA415002EB035202EBD12167
:1053800070474FF000007047B0FA80F310FA03F155
:105390000AD0C3F11D0303F580634FEA41504FEA81
:1053A000035202EBD12170474FF00000704700001C
:1053B00051EA030C17D41CF5801F58BFBCF5801FA1
:1053C00000F10680994218BF704708BF90427047AD
:1053D00007D711F5801F58BF13F5801F19D49942C4
:1053E0007047894270471CF5801F08D5BCF5801FA7
:1053F000F7D58B4218BF704708BF824270474FF401
:10540000001C1CEB410F38BF1CEB430F01D28B4239
:10541000704770B500F0B2F8922449004FF0005187
:105420004FF08053FFF7D7BDDFF848C170B51CEAD5
:10543000111E1EBF1CEA13159EEA0C0F95EA0C0FF5
:1054400000F06F8081EA030423EA4C134EEAD47E15
:1054500021EA4C1141F4801143F48013AE44A1FBC6
:10546000024CA0FB0365AEF17F7E361955EB0C05AF
:10547000A1FB034C4CF10003A0FB021C16EB0C0635
:10548000654153F10003094218BF46F0010613F4C9
:10549000007F0BD14FEA03314FEA0530340341EA74
:1054A000155140EA16506FF003020AE04FEAC3219B
:1054B0004FEAC520F40241EA555140EA56506FF0D8
:1054C000020202EB2E4201EB025585EACE710AD0B0
:1054D0005FEA440C18BF24F0004450F1000041F191
:1054E000000120EAD47040F2FE7C624500D270BD1B
:1054F000A84214BF4FF080444FF04044002E08BF34
:105500000024BEF1806FA8BFA1F1C041BDE870408A
:1055100080F282804FF0000001F1C04101F00041B3
:1055200070479EEA0C0F0CEA131518BF95EA0C0F92
:1055300006D04FF0000081EA030E0EF0004170BD6E
:1055400000F01CF88900013E00F007B800F009B82F
:105550004FEA430C5FEA5C5C08D081EA030100F08B
:105560005BB84FEA410C5FEA5C5CF6D14FF000009B
:10557000014970470000FF070000F87F0EF1020E9E
:105580002EF0030E5EF8046B364205D4012A43EB7D
:10559000030515F5001F12D8012841EB010C1CF57D
:1055A000001F0CD80ED14FEAD17C15F5001F0CEB73
:1055B0004C0C0CF1020C08BF4CEBD37C04E04FF018
:1055C000080C01E04FEAD37C0CEB4C0526FA05F6FB
:1055D00006F00706B6F1040C06D20EEB860CBDE809
:1055E00070404CF0010C6047DFE80CF0090B020240
:1055F0004FF000414FF00000A1F5002170BD1946A9
:105600001046012851EB010418BFD4F5001484BFE3
:10561000002001F0004170BD0808A0F500114FEA1C
:105620003101704743004FEAD30C4FEA3C0C434032
:105630001FBF40070CF1605113F0FE4F70471CF084
:10564000006F03D100200CF0004170470CF00043C4
:1056500043EA507010B540EACC0000F0E6F900BF14
:10566000000000924FEA0001FFF7D6BF4FF0004163
:105670004FF00000A1F500217047401058BFC0F165
:105680004040491058BFC1F140418142EFF30080D2
:10569000704700004FF47F0C1CEAD0121EBF1CEABA
:1056A000D11392EA0C0F93EA0C0F00F0858090EA78
:1056B000010F48BF42F4807240F4000C41F4000036
:1056C0002CF07F4120F07F4000B58142A2EB030225
:1056D0000FF2081CACEB504EC0F100009EF800E049
:1056E0004FEA4E0E00FB0EFC38BF49004FEA2C1C5F
:1056F00002F5FA020CFB0EF34FEACE1E4FEA112C14
:105700004FEAC1210EEB635E42EB22420EFB0CFC22
:105710004FEA1C5300FB03114FEA112C4FEA0131F1
:105720000EFB0CFC4FEADC4C00FB0C11C14228BF05
:1057300009184CEB03335DF804EB10EB410143EB2C
:10574000C250B2F57C0F38BF704729D512F0F00F68
:105750001CBF00F1C04000F0004070470081828310
:105760008485868788898B8C8D8E8F919293959670
:1057700097999A9C9D9FA0A2A3A5A7A8AAACAEB0FA
:10578000B2B3B5B7B9BCBEC0C2C5C7C9CCCED1D4FF
:10579000D7D9DCDFE2E6E9ECF0F3F7FAFE0000002F
:1057A0004FEA400C0CF1807CBCF17E4F28BF704763
:1057B000B0F1C04000F07FB990EA010F0CEAD113BC
:1057C00048BF42F48072624538BF634507D213F484
:1057D0007F0F16D080EA010000F00040704710B53E
:1057E00000F023F9097EFC3E00F005B880EA0100D4
:1057F00000F00040704780EA010000F0004000F037
:105800005AB912F47F0F04BF0248704780EA0100C2
:1058100000F051B90000C07F41000B0ED3F19E0291
:1058200008D950F400034FEA032323FA02F048BFDB
:105830004042704710B500F0F8F800BF499224804C
:10584000002070476FF0004282EA2000704700009D
:10585000C10DD1F19E0206DB4FEA002343F0004365
:1058600023FA02F07047004207D54FEA4001B1F138
:10587000FE4F02D24FF00000704710B500F0D5F88F
:1058800049922480002070476FEA20007047000092
:1058900010F0004148BF4042B0FA80F310FA03F222
:1058A000C3F19D030BD051EAC35101EB1220530603
:1058B00038BF704700F1010008BF20F001007047B9
:1058C00050EA010C00F113801CF5000F58BFBCF525
:1058D000000F01D48842704707D710F5000F58BF5A
:1058E00011F5000F15D488427047894270471CF5A6
:1058F000000F04D5BCF5000FF7D5814270474FF07B
:10590000807C1CEB400F38BF1CEB410F01D2814261
:10591000704710B500F089F8922449004FF000500C
:105920004FF08051FFF7A9BE4FF47F0C1CEAD01254
:105930001EBF1CEAD11392EA0C0F93EA0C0F00F081
:10594000478090EA010F48BF42F480724FF0004C4C
:105950004CEA00204CEA012102EB0302A0FB0113F8
:10596000A2F50002002918BF43F001035B0028BF25
:105970004FEA330342EB22425FEA132C4CEBC25056
:105980002EBFBCEB436FB2F57C0F70474FEA036C40
:10599000BCF1004F08BF20F00100B2F57C0F38BF0A
:1059A00070470BD582F0FF0212F5803FC8BF7047E9
:1059B00000F1C040D8BF00F00040704700F5000C77
:1059C0005FEA4C0C48BF7047B0F1C04000F073B8BC
:1059D00090EA010F0CEAD11348BF42F4807262458D
:1059E00038BF634504D280EA010000F000407047F0
:1059F00010B500F01AF800BF8900013E00F007B8AA
:105A000000F009B85FEA410C5FEA1C6C08D080EA3C
:105A1000010000F050B85FEA400C5FEA1C6CF6D160
:105A20004FF00040A0F5800070470EF1020E2EF0FE
:105A3000030E5EF8044B244204D44FEA4102B2F153
:105A40007F4F11D84FEA4003B3F17F4F0CD80ED1EE
:105A50004FEAD07CB2F17F4F0CEB4C0C0CF1020CF6
:105A600008BF4CEBD17C04E04FF0080C01E04FEA9A
:105A7000D17C0CEB4C0324FA03F404F00704B4F1DA
:105A8000040C06D20EEB840CBDE810404CF0010C67
:105A90006047DFE80CF0070802024FF00040A0F575
:105AA000800010BD0846420018BFD2F1807288BF46
:105AB00000F0004010BDFF2141EAD050C005704702
:105AC00051EA000C00F113801CF5000F58BFBCF523
:105AD000000F01D48142704707D711F5000F58BF5E
